{"abi":[{"type":"constructor","inputs":[{"name":"_entranceFee","type":"uint256","internalType":"uint256"},{"name":"_choosingRamContract","type":"address","internalType":"address"},{"name":"_ramNFT","type":"address","internalType":"address"}],"stateMutability":"nonpayable"},{"type":"function","name":"IsRavanKilled","inputs":[],"outputs":[{"name":"","type":"bool","internalType":"bool"}],"stateMutability":"view"},{"type":"function","name":"SelectedRam","inputs":[],"outputs":[{"name":"","type":"address","internalType":"address"}],"stateMutability":"view"},{"type":"function","name":"WantToBeLikeRam","inputs":[{"name":"","type":"uint256","internalType":"uint256"}],"outputs":[{"name":"","type":"address","internalType":"address"}],"stateMutability":"view"},{"type":"function","name":"choosingRamContract","inputs":[],"outputs":[{"name":"","type":"address","internalType":"contract ChoosingRam"}],"stateMutability":"view"},{"type":"function","name":"enterPeopleWhoLikeRam","inputs":[],"outputs":[],"stateMutability":"payable"},{"type":"function","name":"entranceFee","inputs":[],"outputs":[{"name":"","type":"uint256","internalType":"uint256"}],"stateMutability":"view"},{"type":"function","name":"killRavana","inputs":[],"outputs":[],"stateMutability":"nonpayable"},{"type":"function","name":"organiser","inputs":[],"outputs":[{"name":"","type":"address","internalType":"address"}],"stateMutability":"view"},{"type":"function","name":"peopleLikeRam","inputs":[{"name":"competitor","type":"address","internalType":"address"}],"outputs":[{"name":"isPresent","type":"bool","internalType":"bool"}],"stateMutability":"view"},{"type":"function","name":"ramNFT","inputs":[],"outputs":[{"name":"","type":"address","internalType":"contract RamNFT"}],"stateMutability":"view"},{"type":"function","name":"totalAmountGivenToRam","inputs":[],"outputs":[{"name":"","type":"uint256","internalType":"uint256"}],"stateMutability":"view"},{"type":"function","name":"withdraw","inputs":[],"outputs":[],"stateMutability":"nonpayable"},{"type":"event","name":"PeopleWhoLikeRamIsEntered","inputs":[{"name":"competitor","type":"address","indexed":false,"internalType":"address"}],"anonymous":false},{"type":"error","name":"Dussehra__AlreadyClaimedAmount","inputs":[]},{"type":"error","name":"Dussehra__AlreadyPresent","inputs":[]},{"type":"error","name":"Dussehra__MahuratIsFinished","inputs":[]},{"type":"error","name":"Dussehra__MahuratIsNotStart","inputs":[]},{"type":"error","name":"Dussehra__NotEqualToEntranceFee","inputs":[]}],"bytecode":{"object":"0x608060405234801561001057600080fd5b50604051610a39380380610a3983398101604081905261002f9161008d565b600192909255600280546001600160a01b03199081163317909155600480546001600160a01b03948516908316179055600780549290931691161790556100c9565b80516001600160a01b038116811461008857600080fd5b919050565b6000806000606084860312156100a257600080fd5b835192506100b260208501610071565b91506100c060408501610071565b90509250925092565b610961806100d86000396000f3fe6080604052600436106100a75760003560e01c80637153b54a116100645780637153b54a1461019b57806376886955146101bb5780637e537486146101db578063c640dc2e146101fb578063dea3d2301461021b578063f44516391461022357600080fd5b806302ed9ae4146100ac5780633ccfd60b146100f15780635bbc960e146101085780635e64aef81461012c578063649677e1146101645780636b41b9f31461017a575b600080fd5b3480156100b857600080fd5b506100dc6100c7366004610862565b60056020526000908152604090205460ff1681565b60405190151581526020015b60405180910390f35b3480156100fd57600080fd5b50610106610238565b005b34801561011457600080fd5b5061011e60065481565b6040519081526020016100e8565b34801561013857600080fd5b5060045461014c906001600160a01b031681565b6040516001600160a01b0390911681526020016100e8565b34801561017057600080fd5b5061011e60015481565b34801561018657600080fd5b506004546100dc90600160a01b900460ff1681565b3480156101a757600080fd5b5061014c6101b6366004610886565b6104de565b3480156101c757600080fd5b5060075461014c906001600160a01b031681565b3480156101e757600080fd5b5060025461014c906001600160a01b031681565b34801561020757600080fd5b5060035461014c906001600160a01b031681565b610106610508565b34801561022f57600080fd5b5061010661064d565b600760009054906101000a90046001600160a01b03166001600160a01b031663ff5b71656040518163ffffffff1660e01b8152600401602060405180830381865afa15801561028b573d6000803e3d6000fd5b505050506040513d601f19601f820116820180604052508101906102af919061089f565b6102fb5760405162461bcd60e51b815260206004820152601860248201527752616d206973206e6f742073656c6563746564207965742160401b60448201526064015b60405180910390fd5b60075460408051633d0272a360e11b8152905133926001600160a01b031691637a04e5469160048083019260209291908290030181865afa158015610344573d6000803e3d6000fd5b505050506040513d601f19601f8201168201806040525081019061036891906108c1565b6001600160a01b0316146103be5760405162461bcd60e51b815260206004820181905260248201527f4f6e6c792052616d2063616e2063616c6c20746869732066756e6374696f6e2160448201526064016102f2565b600454600160a01b900460ff166104175760405162461bcd60e51b815260206004820152601860248201527f526176616e206973206e6f74206b696c6c65642079657421000000000000000060448201526064016102f2565b60065460000361043a5760405163f5fe192760e01b815260040160405180910390fd5b600654604051600090339083908381818185875af1925050503d806000811461047f576040519150601f19603f3d011682016040523d82523d6000602084013e610484565b606091505b50509050806104d55760405162461bcd60e51b815260206004820152601b60248201527f4661696c656420746f2073656e64206d6f6e657920746f2052616d000000000060448201526064016102f2565b50506000600655565b600081815481106104ee57600080fd5b6000918252602090912001546001600160a01b0316905081565b600154341461052a57604051632b272c7360e21b815260040160405180910390fd5b3360009081526005602052604090205460ff16151560010361055f576040516339e6729360e01b815260040160405180910390fd5b33600081815260056020526040808220805460ff19166001908117909155825490810183559180527f290decd9548b62a8d60345a988386fc84ba6bc95484008f6362f93160ef3e56390910180546001600160a01b031916831790556004805491516321a6034360e21b8152908101929092526001600160a01b0316906386980d0c90602401600060405180830381600087803b1580156105ff57600080fd5b505af1158015610613573d6000803e3d6000fd5b50506040513381527f8d881844768992bf595912c9050d3f93aeb487e6a69a62a7d7549e2839b557a89250602001905060405180910390a1565b600760009054906101000a90046001600160a01b03166001600160a01b031663ff5b71656040518163ffffffff1660e01b8152600401602060405180830381865afa1580156106a0573d6000803e3d6000fd5b505050506040513d601f19601f820116820180604052508101906106c4919061089f565b61070b5760405162461bcd60e51b815260206004820152601860248201527752616d206973206e6f742073656c6563746564207965742160401b60448201526064016102f2565b636709bb7d421015610730576040516302bb173d60e31b815260040160405180910390fd5b63670b0dc54211156107555760405163cc0c26a560e01b815260040160405180910390fd5b6004805460ff60a01b1916600160a01b17905560015460008054909161077a916108de565b905060646107898260326108de565b6107939190610909565b60068190556002546040516000926001600160a01b0390921691908381818185875af1925050503d80600081146107e6576040519150601f19603f3d011682016040523d82523d6000602084013e6107eb565b606091505b50509050806108465760405162461bcd60e51b815260206004820152602160248201527f4661696c656420746f2073656e64206d6f6e657920746f206f7267616e6973656044820152603960f91b60648201526084016102f2565b5050565b6001600160a01b038116811461085f57600080fd5b50565b60006020828403121561087457600080fd5b813561087f8161084a565b9392505050565b60006020828403121561089857600080fd5b5035919050565b6000602082840312156108b157600080fd5b8151801515811461087f57600080fd5b6000602082840312156108d357600080fd5b815161087f8161084a565b808202811582820484141761090357634e487b7160e01b600052601160045260246000fd5b92915050565b60008261092657634e487b7160e01b600052601260045260246000fd5b50049056fea2646970667358221220b2b6ef5d2bb58720b03d0ec2372210de567506fecd56ce7b1f794b07eed8b38464736f6c63430008140033","linkReferences":{}},"methodIdentifiers":{"IsRavanKilled()":"6b41b9f3","SelectedRam()":"c640dc2e","WantToBeLikeRam(uint256)":"7153b54a","choosingRamContract()":"76886955","enterPeopleWhoLikeRam()":"dea3d230","entranceFee()":"649677e1","killRavana()":"f4451639","organiser()":"7e537486","peopleLikeRam(address)":"02ed9ae4","ramNFT()":"5e64aef8","totalAmountGivenToRam()":"5bbc960e","withdraw()":"3ccfd60b"},"id":40}