{"abi":[{"type":"constructor","inputs":[],"stateMutability":"nonpayable"},{"type":"function","name":"Characteristics","inputs":[{"name":"tokenId","type":"uint256","internalType":"uint256"}],"outputs":[{"name":"ram","type":"address","internalType":"address"},{"name":"isJitaKrodhah","type":"bool","internalType":"bool"},{"name":"isDhyutimaan","type":"bool","internalType":"bool"},{"name":"isVidvaan","type":"bool","internalType":"bool"},{"name":"isAatmavan","type":"bool","internalType":"bool"},{"name":"isSatyavaakyah","type":"bool","internalType":"bool"}],"stateMutability":"view"},{"type":"function","name":"approve","inputs":[{"name":"to","type":"address","internalType":"address"},{"name":"tokenId","type":"uint256","internalType":"uint256"}],"outputs":[],"stateMutability":"nonpayable"},{"type":"function","name":"balanceOf","inputs":[{"name":"owner","type":"address","internalType":"address"}],"outputs":[{"name":"","type":"uint256","internalType":"uint256"}],"stateMutability":"view"},{"type":"function","name":"choosingRamContract","inputs":[],"outputs":[{"name":"","type":"address","internalType":"address"}],"stateMutability":"view"},{"type":"function","name":"getApproved","inputs":[{"name":"tokenId","type":"uint256","internalType":"uint256"}],"outputs":[{"name":"","type":"address","internalType":"address"}],"stateMutability":"view"},{"type":"function","name":"getCharacteristics","inputs":[{"name":"tokenId","type":"uint256","internalType":"uint256"}],"outputs":[{"name":"","type":"tuple","internalType":"struct RamNFT.CharacteristicsOfRam","components":[{"name":"ram","type":"address","internalType":"address"},{"name":"isJitaKrodhah","type":"bool","internalType":"bool"},{"name":"isDhyutimaan","type":"bool","internalType":"bool"},{"name":"isVidvaan","type":"bool","internalType":"bool"},{"name":"isAatmavan","type":"bool","internalType":"bool"},{"name":"isSatyavaakyah","type":"bool","internalType":"bool"}]}],"stateMutability":"view"},{"type":"function","name":"getNextTokenId","inputs":[],"outputs":[{"name":"","type":"uint256","internalType":"uint256"}],"stateMutability":"view"},{"type":"function","name":"isApprovedForAll","inputs":[{"name":"owner","type":"address","internalType":"address"},{"name":"operator","type":"address","internalType":"address"}],"outputs":[{"name":"","type":"bool","internalType":"bool"}],"stateMutability":"view"},{"type":"function","name":"mintRamNFT","inputs":[{"name":"to","type":"address","internalType":"address"}],"outputs":[],"stateMutability":"nonpayable"},{"type":"function","name":"name","inputs":[],"outputs":[{"name":"","type":"string","internalType":"string"}],"stateMutability":"view"},{"type":"function","name":"organiser","inputs":[],"outputs":[{"name":"","type":"address","internalType":"address"}],"stateMutability":"view"},{"type":"function","name":"ownerOf","inputs":[{"name":"tokenId","type":"uint256","internalType":"uint256"}],"outputs":[{"name":"","type":"address","internalType":"address"}],"stateMutability":"view"},{"type":"function","name":"safeTransferFrom","inputs":[{"name":"from","type":"address","internalType":"address"},{"name":"to","type":"address","internalType":"address"},{"name":"tokenId","type":"uint256","internalType":"uint256"}],"outputs":[],"stateMutability":"nonpayable"},{"type":"function","name":"safeTransferFrom","inputs":[{"name":"from","type":"address","internalType":"address"},{"name":"to","type":"address","internalType":"address"},{"name":"tokenId","type":"uint256","internalType":"uint256"},{"name":"data","type":"bytes","internalType":"bytes"}],"outputs":[],"stateMutability":"nonpayable"},{"type":"function","name":"setApprovalForAll","inputs":[{"name":"operator","type":"address","internalType":"address"},{"name":"approved","type":"bool","internalType":"bool"}],"outputs":[],"stateMutability":"nonpayable"},{"type":"function","name":"setChoosingRamContract","inputs":[{"name":"_choosingRamContract","type":"address","internalType":"address"}],"outputs":[],"stateMutability":"nonpayable"},{"type":"function","name":"supportsInterface","inputs":[{"name":"interfaceId","type":"bytes4","internalType":"bytes4"}],"outputs":[{"name":"","type":"bool","internalType":"bool"}],"stateMutability":"view"},{"type":"function","name":"symbol","inputs":[],"outputs":[{"name":"","type":"string","internalType":"string"}],"stateMutability":"view"},{"type":"function","name":"tokenCounter","inputs":[],"outputs":[{"name":"","type":"uint256","internalType":"uint256"}],"stateMutability":"view"},{"type":"function","name":"tokenURI","inputs":[{"name":"tokenId","type":"uint256","internalType":"uint256"}],"outputs":[{"name":"","type":"string","internalType":"string"}],"stateMutability":"view"},{"type":"function","name":"transferFrom","inputs":[{"name":"from","type":"address","internalType":"address"},{"name":"to","type":"address","internalType":"address"},{"name":"tokenId","type":"uint256","internalType":"uint256"}],"outputs":[],"stateMutability":"nonpayable"},{"type":"function","name":"updateCharacteristics","inputs":[{"name":"tokenId","type":"uint256","internalType":"uint256"},{"name":"_isJitaKrodhah","type":"bool","internalType":"bool"},{"name":"_isDhyutimaan","type":"bool","internalType":"bool"},{"name":"_isVidvaan","type":"bool","internalType":"bool"},{"name":"_isAatmavan","type":"bool","internalType":"bool"},{"name":"_isSatyavaakyah","type":"bool","internalType":"bool"}],"outputs":[],"stateMutability":"nonpayable"},{"type":"event","name":"Approval","inputs":[{"name":"owner","type":"address","indexed":true,"internalType":"address"},{"name":"approved","type":"address","indexed":true,"internalType":"address"},{"name":"tokenId","type":"uint256","indexed":true,"internalType":"uint256"}],"anonymous":false},{"type":"event","name":"ApprovalForAll","inputs":[{"name":"owner","type":"address","indexed":true,"internalType":"address"},{"name":"operator","type":"address","indexed":true,"internalType":"address"},{"name":"approved","type":"bool","indexed":false,"internalType":"bool"}],"anonymous":false},{"type":"event","name":"BatchMetadataUpdate","inputs":[{"name":"_fromTokenId","type":"uint256","indexed":false,"internalType":"uint256"},{"name":"_toTokenId","type":"uint256","indexed":false,"internalType":"uint256"}],"anonymous":false},{"type":"event","name":"MetadataUpdate","inputs":[{"name":"_tokenId","type":"uint256","indexed":false,"internalType":"uint256"}],"anonymous":false},{"type":"event","name":"Transfer","inputs":[{"name":"from","type":"address","indexed":true,"internalType":"address"},{"name":"to","type":"address","indexed":true,"internalType":"address"},{"name":"tokenId","type":"uint256","indexed":true,"internalType":"uint256"}],"anonymous":false},{"type":"error","name":"ERC721IncorrectOwner","inputs":[{"name":"sender","type":"address","internalType":"address"},{"name":"tokenId","type":"uint256","internalType":"uint256"},{"name":"owner","type":"address","internalType":"address"}]},{"type":"error","name":"ERC721InsufficientApproval","inputs":[{"name":"operator","type":"address","internalType":"address"},{"name":"tokenId","type":"uint256","internalType":"uint256"}]},{"type":"error","name":"ERC721InvalidApprover","inputs":[{"name":"approver","type":"address","internalType":"address"}]},{"type":"error","name":"ERC721InvalidOperator","inputs":[{"name":"operator","type":"address","internalType":"address"}]},{"type":"error","name":"ERC721InvalidOwner","inputs":[{"name":"owner","type":"address","internalType":"address"}]},{"type":"error","name":"ERC721InvalidReceiver","inputs":[{"name":"receiver","type":"address","internalType":"address"}]},{"type":"error","name":"ERC721InvalidSender","inputs":[{"name":"sender","type":"address","internalType":"address"}]},{"type":"error","name":"ERC721NonexistentToken","inputs":[{"name":"tokenId","type":"uint256","internalType":"uint256"}]},{"type":"error","name":"RamNFT__NotChoosingRamContract","inputs":[]},{"type":"error","name":"RamNFT__NotOrganiser","inputs":[]}],"bytecode":{"object":"0x60806040523480156200001157600080fd5b506040518060400160405280600681526020016514985b53919560d21b8152506040518060400160405280600381526020016252414d60e81b81525081600090816200005e919062000132565b5060016200006d828262000132565b5050600060075550600880546001600160a01b03191633179055620001fe565b634e487b7160e01b600052604160045260246000fd5b600181811c90821680620000b857607f821691505b602082108103620000d957634e487b7160e01b600052602260045260246000fd5b50919050565b601f8211156200012d57600081815260208120601f850160051c81016020861015620001085750805b601f850160051c820191505b81811015620001295782815560010162000114565b5050505b505050565b81516001600160401b038111156200014e576200014e6200008d565b62000166816200015f8454620000a3565b84620000df565b602080601f8311600181146200019e5760008415620001855750858301515b600019600386901b1c1916600185901b17855562000129565b600085815260208120601f198616915b82811015620001cf57888601518255948401946001909101908401620001ae565b5085821015620001ee5787850151600019600388901b60f8161c191681555b5050505050600190811b01905550565b611627806200020e6000396000f3fe608060405234801561001057600080fd5b50600436106101425760003560e01c806376886955116100b8578063b03822111161007c578063b038221114610337578063b88d4fde14610453578063c87b56dd14610466578063caa0f92a14610479578063d082e38114610481578063e985e9c51461048a57600080fd5b806376886955146102e35780637e537486146102f657806386980d0c1461030957806395d89b411461031c578063a22cb4651461032457600080fd5b806323b872dd1161010a57806323b872dd14610263578063317d7ff51461027657806342842e0e146102895780635bb190401461029c5780636352211e146102af57806370a08231146102c257600080fd5b806301ffc9a71461014757806306fdde031461016f578063081812fc14610184578063095ea7b3146101af57806322fe87cf146101c4575b600080fd5b61015a610155366004611205565b61049d565b60405190151581526020015b60405180910390f35b6101776104c8565b6040516101669190611272565b610197610192366004611285565b61055a565b6040516001600160a01b039091168152602001610166565b6101c26101bd3660046112ba565b610583565b005b6102226101d2366004611285565b600a602052600090815260409020546001600160a01b0381169060ff600160a01b8204811691600160a81b8104821691600160b01b8204811691600160b81b8104821691600160c01b9091041686565b604080516001600160a01b039097168752941515602087015292151593850193909352151560608401529015156080830152151560a082015260c001610166565b6101c26102713660046112e4565b610592565b6101c2610284366004611330565b610622565b6101c26102973660046112e4565b61072f565b6101c26102aa36600461139d565b61074f565b6101976102bd366004611285565b61079c565b6102d56102d036600461139d565b6107a7565b604051908152602001610166565b600954610197906001600160a01b031681565b600854610197906001600160a01b031681565b6101c261031736600461139d565b6107ef565b6101776108e2565b6101c26103323660046113b8565b6108f1565b6103f9610345366004611285565b6040805160c081018252600080825260208201819052918101829052606081018290526080810182905260a0810191909152506000908152600a6020908152604091829020825160c08101845290546001600160a01b038116825260ff600160a01b82048116151593830193909352600160a81b81048316151593820193909352600160b01b8304821615156060820152600160b81b8304821615156080820152600160c01b90920416151560a082015290565b604051610166919081516001600160a01b0316815260208083015115159082015260408083015115159082015260608083015115159082015260808083015115159082015260a09182015115159181019190915260c00190565b6101c2610461366004611401565b6108fc565b610177610474366004611285565b610913565b6007546102d5565b6102d560075481565b61015a6104983660046114dd565b610a24565b60006001600160e01b03198216632483248360e11b14806104c257506104c282610a52565b92915050565b6060600080546104d790611507565b80601f016020809104026020016040519081016040528092919081815260200182805461050390611507565b80156105505780601f1061052557610100808354040283529160200191610550565b820191906000526020600020905b81548152906001019060200180831161053357829003601f168201915b5050505050905090565b600061056582610aa2565b506000828152600460205260409020546001600160a01b03166104c2565b61058e828233610adb565b5050565b6001600160a01b0382166105c157604051633250574960e11b8152600060048201526024015b60405180910390fd5b60006105ce838333610ae8565b9050836001600160a01b0316816001600160a01b03161461061c576040516364283d7b60e01b81526001600160a01b03808616600483015260248201849052821660448201526064016105b8565b50505050565b6009546001600160a01b0316331461064d57604051631210846b60e31b815260040160405180910390fd5b6040805160c0810182526000888152600a602081815284832080546001600160a01b0380821687529b15158387019081529a1515968601968752981515606086019081529715156080860190815296151560a086019081529b909352529051955191519351925197511515600160c01b0260ff60c01b19981515600160b81b029890981661ffff60b81b19931515600160b01b0260ff60b01b19951515600160a81b029590951661ffff60a81b19931515600160a01b026001600160a81b03199097169790981696909617949094171694909417179290921617919091179055565b61074a838383604051806020016040528060008152506108fc565b505050565b6008546001600160a01b0316331461077a57604051630474d7f560e31b815260040160405180910390fd5b600980546001600160a01b0319166001600160a01b0392909216919091179055565b60006104c282610aa2565b60006001600160a01b0382166107d3576040516322718ad960e21b8152600060048201526024016105b8565b506001600160a01b031660009081526003602052604090205490565b600780546000918261080083611541565b9190505590506108108282610be1565b6040805160c0810182526001600160a01b03938416815260006020808301828152838501838152606085018481526080860185815260a08701868152988652600a9094529590932093518454915193519551925196511515600160c01b0260ff60c01b19971515600160b81b029790971661ffff60b81b19931515600160b01b0260ff60b01b19971515600160a81b029790971661ffff60a81b19951515600160a01b026001600160a81b03199094169290991691909117919091179290921695909517929092179390931617179055565b6060600180546104d790611507565b61058e338383610bfb565b610907848484610592565b61061c84848484610c9a565b606061091e82610aa2565b506000828152600660205260408120805461093890611507565b80601f016020809104026020016040519081016040528092919081815260200182805461096490611507565b80156109b15780601f10610986576101008083540402835291602001916109b1565b820191906000526020600020905b81548152906001019060200180831161099457829003601f168201915b5050505050905060006109cf60408051602081019091526000815290565b905080516000036109e1575092915050565b815115610a135780826040516020016109fb929190611568565b60405160208183030381529060405292505050919050565b610a1c84610dc3565b949350505050565b6001600160a01b03918216600090815260056020908152604080832093909416825291909152205460ff1690565b60006001600160e01b031982166380ac58cd60e01b1480610a8357506001600160e01b03198216635b5e139f60e01b145b806104c257506301ffc9a760e01b6001600160e01b03198316146104c2565b6000818152600260205260408120546001600160a01b0316806104c257604051637e27328960e01b8152600481018490526024016105b8565b61074a8383836001610e38565b6000828152600260205260408120546001600160a01b0390811690831615610b1557610b15818486610f3e565b6001600160a01b03811615610b5357610b32600085600080610e38565b6001600160a01b038116600090815260036020526040902080546000190190555b6001600160a01b03851615610b82576001600160a01b0385166000908152600360205260409020805460010190555b60008481526002602052604080822080546001600160a01b0319166001600160a01b0389811691821790925591518793918516917fddf252ad1be2c89b69c2b068fc378daa952ba7f163c4a11628f55a4df523b3ef91a4949350505050565b61058e828260405180602001604052806000815250610fa2565b6001600160a01b038216610c2d57604051630b61174360e31b81526001600160a01b03831660048201526024016105b8565b6001600160a01b03838116600081815260056020908152604080832094871680845294825291829020805460ff191686151590811790915591519182527f17307eab39ab6107e8899845ad3d59bd9653f200f220920489ca2b5937696c31910160405180910390a3505050565b6001600160a01b0383163b1561061c57604051630a85bd0160e11b81526001600160a01b0384169063150b7a0290610cdc903390889087908790600401611597565b6020604051808303816000875af1925050508015610d17575060408051601f3d908101601f19168201909252610d14918101906115d4565b60015b610d80573d808015610d45576040519150601f19603f3d011682016040523d82523d6000602084013e610d4a565b606091505b508051600003610d7857604051633250574960e11b81526001600160a01b03851660048201526024016105b8565b805181602001fd5b6001600160e01b03198116630a85bd0160e11b14610dbc57604051633250574960e11b81526001600160a01b03851660048201526024016105b8565b5050505050565b6060610dce82610aa2565b506000610de660408051602081019091526000815290565b90506000815111610e065760405180602001604052806000815250610e31565b80610e1084610fb9565b604051602001610e21929190611568565b6040516020818303038152906040525b9392505050565b8080610e4c57506001600160a01b03821615155b15610f0e576000610e5c84610aa2565b90506001600160a01b03831615801590610e885750826001600160a01b0316816001600160a01b031614155b8015610e9b5750610e998184610a24565b155b15610ec45760405163a9fbf51f60e01b81526001600160a01b03841660048201526024016105b8565b8115610f0c5783856001600160a01b0316826001600160a01b03167f8c5be1e5ebec7d5bd14f71427d1e84f3dd0314c0f7b2291e5b200ac8c7c3b92560405160405180910390a45b505b5050600090815260046020526040902080546001600160a01b0319166001600160a01b0392909216919091179055565b610f4983838361104c565b61074a576001600160a01b038316610f7757604051637e27328960e01b8152600481018290526024016105b8565b60405163177e802f60e01b81526001600160a01b0383166004820152602481018290526044016105b8565b610fac83836110af565b61074a6000848484610c9a565b60606000610fc683611114565b600101905060008167ffffffffffffffff811115610fe657610fe66113eb565b6040519080825280601f01601f191660200182016040528015611010576020820181803683370190505b5090508181016020015b600019016f181899199a1a9b1b9c1cb0b131b232b360811b600a86061a8153600a850494508461101a57509392505050565b60006001600160a01b03831615801590610a1c5750826001600160a01b0316846001600160a01b0316148061108657506110868484610a24565b80610a1c5750506000908152600460205260409020546001600160a01b03908116911614919050565b6001600160a01b0382166110d957604051633250574960e11b8152600060048201526024016105b8565b60006110e783836000610ae8565b90506001600160a01b0381161561074a576040516339e3563760e11b8152600060048201526024016105b8565b60008072184f03e93ff9f4daa797ed6e38ed64bf6a1f0160401b83106111535772184f03e93ff9f4daa797ed6e38ed64bf6a1f0160401b830492506040015b6d04ee2d6d415b85acef8100000000831061117f576d04ee2d6d415b85acef8100000000830492506020015b662386f26fc10000831061119d57662386f26fc10000830492506010015b6305f5e10083106111b5576305f5e100830492506008015b61271083106111c957612710830492506004015b606483106111db576064830492506002015b600a83106104c25760010192915050565b6001600160e01b03198116811461120257600080fd5b50565b60006020828403121561121757600080fd5b8135610e31816111ec565b60005b8381101561123d578181015183820152602001611225565b50506000910152565b6000815180845261125e816020860160208601611222565b601f01601f19169290920160200192915050565b602081526000610e316020830184611246565b60006020828403121561129757600080fd5b5035919050565b80356001600160a01b03811681146112b557600080fd5b919050565b600080604083850312156112cd57600080fd5b6112d68361129e565b946020939093013593505050565b6000806000606084860312156112f957600080fd5b6113028461129e565b92506113106020850161129e565b9150604084013590509250925092565b803580151581146112b557600080fd5b60008060008060008060c0878903121561134957600080fd5b8635955061135960208801611320565b945061136760408801611320565b935061137560608801611320565b925061138360808801611320565b915061139160a08801611320565b90509295509295509295565b6000602082840312156113af57600080fd5b610e318261129e565b600080604083850312156113cb57600080fd5b6113d48361129e565b91506113e260208401611320565b90509250929050565b634e487b7160e01b600052604160045260246000fd5b6000806000806080858703121561141757600080fd5b6114208561129e565b935061142e6020860161129e565b925060408501359150606085013567ffffffffffffffff8082111561145257600080fd5b818701915087601f83011261146657600080fd5b813581811115611478576114786113eb565b604051601f8201601f19908116603f011681019083821181831017156114a0576114a06113eb565b816040528281528a60208487010111156114b957600080fd5b82602086016020830137600060208483010152809550505050505092959194509250565b600080604083850312156114f057600080fd5b6114f98361129e565b91506113e26020840161129e565b600181811c9082168061151b57607f821691505b60208210810361153b57634e487b7160e01b600052602260045260246000fd5b50919050565b60006001820161156157634e487b7160e01b600052601160045260246000fd5b5060010190565b6000835161157a818460208801611222565b83519083019061158e818360208801611222565b01949350505050565b6001600160a01b03858116825284166020820152604081018390526080606082018190526000906115ca90830184611246565b9695505050505050565b6000602082840312156115e657600080fd5b8151610e31816111ec56fea2646970667358221220fec45c32f830b00ca593ebda3ccf5d270c47131b4d104153788db9c1653908e764736f6c63430008140033","linkReferences":{}},"methodIdentifiers":{"Characteristics(uint256)":"22fe87cf","approve(address,uint256)":"095ea7b3","balanceOf(address)":"70a08231","choosingRamContract()":"76886955","getApproved(uint256)":"081812fc","getCharacteristics(uint256)":"b0382211","getNextTokenId()":"caa0f92a","isApprovedForAll(address,address)":"e985e9c5","mintRamNFT(address)":"86980d0c","name()":"06fdde03","organiser()":"7e537486","ownerOf(uint256)":"6352211e","safeTransferFrom(address,address,uint256)":"42842e0e","safeTransferFrom(address,address,uint256,bytes)":"b88d4fde","setApprovalForAll(address,bool)":"a22cb465","setChoosingRamContract(address)":"5bb19040","supportsInterface(bytes4)":"01ffc9a7","symbol()":"95d89b41","tokenCounter()":"d082e381","tokenURI(uint256)":"c87b56dd","transferFrom(address,address,uint256)":"23b872dd","updateCharacteristics(uint256,bool,bool,bool,bool,bool)":"317d7ff5"},"id":41}