{
  "src/RamNFT.sol": {
    "RamNFT": {
      "abi": [
        {
          "type": "constructor",
          "inputs": [],
          "stateMutability": "nonpayable"
        },
        {
          "type": "function",
          "name": "Characteristics",
          "inputs": [
            {
              "name": "tokenId",
              "type": "uint256",
              "internalType": "uint256"
            }
          ],
          "outputs": [
            {
              "name": "ram",
              "type": "address",
              "internalType": "address"
            },
            {
              "name": "isJitaKrodhah",
              "type": "bool",
              "internalType": "bool"
            },
            {
              "name": "isDhyutimaan",
              "type": "bool",
              "internalType": "bool"
            },
            {
              "name": "isVidvaan",
              "type": "bool",
              "internalType": "bool"
            },
            {
              "name": "isAatmavan",
              "type": "bool",
              "internalType": "bool"
            },
            {
              "name": "isSatyavaakyah",
              "type": "bool",
              "internalType": "bool"
            }
          ],
          "stateMutability": "view"
        },
        {
          "type": "function",
          "name": "approve",
          "inputs": [
            {
              "name": "to",
              "type": "address",
              "internalType": "address"
            },
            {
              "name": "tokenId",
              "type": "uint256",
              "internalType": "uint256"
            }
          ],
          "outputs": [],
          "stateMutability": "nonpayable"
        },
        {
          "type": "function",
          "name": "balanceOf",
          "inputs": [
            {
              "name": "owner",
              "type": "address",
              "internalType": "address"
            }
          ],
          "outputs": [
            {
              "name": "",
              "type": "uint256",
              "internalType": "uint256"
            }
          ],
          "stateMutability": "view"
        },
        {
          "type": "function",
          "name": "choosingRamContract",
          "inputs": [],
          "outputs": [
            {
              "name": "",
              "type": "address",
              "internalType": "address"
            }
          ],
          "stateMutability": "view"
        },
        {
          "type": "function",
          "name": "getApproved",
          "inputs": [
            {
              "name": "tokenId",
              "type": "uint256",
              "internalType": "uint256"
            }
          ],
          "outputs": [
            {
              "name": "",
              "type": "address",
              "internalType": "address"
            }
          ],
          "stateMutability": "view"
        },
        {
          "type": "function",
          "name": "getCharacteristics",
          "inputs": [
            {
              "name": "tokenId",
              "type": "uint256",
              "internalType": "uint256"
            }
          ],
          "outputs": [
            {
              "name": "",
              "type": "tuple",
              "internalType": "struct RamNFT.CharacteristicsOfRam",
              "components": [
                {
                  "name": "ram",
                  "type": "address",
                  "internalType": "address"
                },
                {
                  "name": "isJitaKrodhah",
                  "type": "bool",
                  "internalType": "bool"
                },
                {
                  "name": "isDhyutimaan",
                  "type": "bool",
                  "internalType": "bool"
                },
                {
                  "name": "isVidvaan",
                  "type": "bool",
                  "internalType": "bool"
                },
                {
                  "name": "isAatmavan",
                  "type": "bool",
                  "internalType": "bool"
                },
                {
                  "name": "isSatyavaakyah",
                  "type": "bool",
                  "internalType": "bool"
                }
              ]
            }
          ],
          "stateMutability": "view"
        },
        {
          "type": "function",
          "name": "getNextTokenId",
          "inputs": [],
          "outputs": [
            {
              "name": "",
              "type": "uint256",
              "internalType": "uint256"
            }
          ],
          "stateMutability": "view"
        },
        {
          "type": "function",
          "name": "isApprovedForAll",
          "inputs": [
            {
              "name": "owner",
              "type": "address",
              "internalType": "address"
            },
            {
              "name": "operator",
              "type": "address",
              "internalType": "address"
            }
          ],
          "outputs": [
            {
              "name": "",
              "type": "bool",
              "internalType": "bool"
            }
          ],
          "stateMutability": "view"
        },
        {
          "type": "function",
          "name": "mintRamNFT",
          "inputs": [
            {
              "name": "to",
              "type": "address",
              "internalType": "address"
            }
          ],
          "outputs": [],
          "stateMutability": "nonpayable"
        },
        {
          "type": "function",
          "name": "name",
          "inputs": [],
          "outputs": [
            {
              "name": "",
              "type": "string",
              "internalType": "string"
            }
          ],
          "stateMutability": "view"
        },
        {
          "type": "function",
          "name": "organiser",
          "inputs": [],
          "outputs": [
            {
              "name": "",
              "type": "address",
              "internalType": "address"
            }
          ],
          "stateMutability": "view"
        },
        {
          "type": "function",
          "name": "ownerOf",
          "inputs": [
            {
              "name": "tokenId",
              "type": "uint256",
              "internalType": "uint256"
            }
          ],
          "outputs": [
            {
              "name": "",
              "type": "address",
              "internalType": "address"
            }
          ],
          "stateMutability": "view"
        },
        {
          "type": "function",
          "name": "safeTransferFrom",
          "inputs": [
            {
              "name": "from",
              "type": "address",
              "internalType": "address"
            },
            {
              "name": "to",
              "type": "address",
              "internalType": "address"
            },
            {
              "name": "tokenId",
              "type": "uint256",
              "internalType": "uint256"
            }
          ],
          "outputs": [],
          "stateMutability": "nonpayable"
        },
        {
          "type": "function",
          "name": "safeTransferFrom",
          "inputs": [
            {
              "name": "from",
              "type": "address",
              "internalType": "address"
            },
            {
              "name": "to",
              "type": "address",
              "internalType": "address"
            },
            {
              "name": "tokenId",
              "type": "uint256",
              "internalType": "uint256"
            },
            {
              "name": "data",
              "type": "bytes",
              "internalType": "bytes"
            }
          ],
          "outputs": [],
          "stateMutability": "nonpayable"
        },
        {
          "type": "function",
          "name": "setApprovalForAll",
          "inputs": [
            {
              "name": "operator",
              "type": "address",
              "internalType": "address"
            },
            {
              "name": "approved",
              "type": "bool",
              "internalType": "bool"
            }
          ],
          "outputs": [],
          "stateMutability": "nonpayable"
        },
        {
          "type": "function",
          "name": "setChoosingRamContract",
          "inputs": [
            {
              "name": "_choosingRamContract",
              "type": "address",
              "internalType": "address"
            }
          ],
          "outputs": [],
          "stateMutability": "nonpayable"
        },
        {
          "type": "function",
          "name": "supportsInterface",
          "inputs": [
            {
              "name": "interfaceId",
              "type": "bytes4",
              "internalType": "bytes4"
            }
          ],
          "outputs": [
            {
              "name": "",
              "type": "bool",
              "internalType": "bool"
            }
          ],
          "stateMutability": "view"
        },
        {
          "type": "function",
          "name": "symbol",
          "inputs": [],
          "outputs": [
            {
              "name": "",
              "type": "string",
              "internalType": "string"
            }
          ],
          "stateMutability": "view"
        },
        {
          "type": "function",
          "name": "tokenCounter",
          "inputs": [],
          "outputs": [
            {
              "name": "",
              "type": "uint256",
              "internalType": "uint256"
            }
          ],
          "stateMutability": "view"
        },
        {
          "type": "function",
          "name": "tokenURI",
          "inputs": [
            {
              "name": "tokenId",
              "type": "uint256",
              "internalType": "uint256"
            }
          ],
          "outputs": [
            {
              "name": "",
              "type": "string",
              "internalType": "string"
            }
          ],
          "stateMutability": "view"
        },
        {
          "type": "function",
          "name": "transferFrom",
          "inputs": [
            {
              "name": "from",
              "type": "address",
              "internalType": "address"
            },
            {
              "name": "to",
              "type": "address",
              "internalType": "address"
            },
            {
              "name": "tokenId",
              "type": "uint256",
              "internalType": "uint256"
            }
          ],
          "outputs": [],
          "stateMutability": "nonpayable"
        },
        {
          "type": "function",
          "name": "updateCharacteristics",
          "inputs": [
            {
              "name": "tokenId",
              "type": "uint256",
              "internalType": "uint256"
            },
            {
              "name": "_isJitaKrodhah",
              "type": "bool",
              "internalType": "bool"
            },
            {
              "name": "_isDhyutimaan",
              "type": "bool",
              "internalType": "bool"
            },
            {
              "name": "_isVidvaan",
              "type": "bool",
              "internalType": "bool"
            },
            {
              "name": "_isAatmavan",
              "type": "bool",
              "internalType": "bool"
            },
            {
              "name": "_isSatyavaakyah",
              "type": "bool",
              "internalType": "bool"
            }
          ],
          "outputs": [],
          "stateMutability": "nonpayable"
        },
        {
          "type": "event",
          "name": "Approval",
          "inputs": [
            {
              "name": "owner",
              "type": "address",
              "indexed": true,
              "internalType": "address"
            },
            {
              "name": "approved",
              "type": "address",
              "indexed": true,
              "internalType": "address"
            },
            {
              "name": "tokenId",
              "type": "uint256",
              "indexed": true,
              "internalType": "uint256"
            }
          ],
          "anonymous": false
        },
        {
          "type": "event",
          "name": "ApprovalForAll",
          "inputs": [
            {
              "name": "owner",
              "type": "address",
              "indexed": true,
              "internalType": "address"
            },
            {
              "name": "operator",
              "type": "address",
              "indexed": true,
              "internalType": "address"
            },
            {
              "name": "approved",
              "type": "bool",
              "indexed": false,
              "internalType": "bool"
            }
          ],
          "anonymous": false
        },
        {
          "type": "event",
          "name": "BatchMetadataUpdate",
          "inputs": [
            {
              "name": "_fromTokenId",
              "type": "uint256",
              "indexed": false,
              "internalType": "uint256"
            },
            {
              "name": "_toTokenId",
              "type": "uint256",
              "indexed": false,
              "internalType": "uint256"
            }
          ],
          "anonymous": false
        },
        {
          "type": "event",
          "name": "MetadataUpdate",
          "inputs": [
            {
              "name": "_tokenId",
              "type": "uint256",
              "indexed": false,
              "internalType": "uint256"
            }
          ],
          "anonymous": false
        },
        {
          "type": "event",
          "name": "Transfer",
          "inputs": [
            {
              "name": "from",
              "type": "address",
              "indexed": true,
              "internalType": "address"
            },
            {
              "name": "to",
              "type": "address",
              "indexed": true,
              "internalType": "address"
            },
            {
              "name": "tokenId",
              "type": "uint256",
              "indexed": true,
              "internalType": "uint256"
            }
          ],
          "anonymous": false
        },
        {
          "type": "error",
          "name": "ERC721IncorrectOwner",
          "inputs": [
            {
              "name": "sender",
              "type": "address",
              "internalType": "address"
            },
            {
              "name": "tokenId",
              "type": "uint256",
              "internalType": "uint256"
            },
            {
              "name": "owner",
              "type": "address",
              "internalType": "address"
            }
          ]
        },
        {
          "type": "error",
          "name": "ERC721InsufficientApproval",
          "inputs": [
            {
              "name": "operator",
              "type": "address",
              "internalType": "address"
            },
            {
              "name": "tokenId",
              "type": "uint256",
              "internalType": "uint256"
            }
          ]
        },
        {
          "type": "error",
          "name": "ERC721InvalidApprover",
          "inputs": [
            {
              "name": "approver",
              "type": "address",
              "internalType": "address"
            }
          ]
        },
        {
          "type": "error",
          "name": "ERC721InvalidOperator",
          "inputs": [
            {
              "name": "operator",
              "type": "address",
              "internalType": "address"
            }
          ]
        },
        {
          "type": "error",
          "name": "ERC721InvalidOwner",
          "inputs": [
            {
              "name": "owner",
              "type": "address",
              "internalType": "address"
            }
          ]
        },
        {
          "type": "error",
          "name": "ERC721InvalidReceiver",
          "inputs": [
            {
              "name": "receiver",
              "type": "address",
              "internalType": "address"
            }
          ]
        },
        {
          "type": "error",
          "name": "ERC721InvalidSender",
          "inputs": [
            {
              "name": "sender",
              "type": "address",
              "internalType": "address"
            }
          ]
        },
        {
          "type": "error",
          "name": "ERC721NonexistentToken",
          "inputs": [
            {
              "name": "tokenId",
              "type": "uint256",
              "internalType": "uint256"
            }
          ]
        },
        {
          "type": "error",
          "name": "RamNFT__NotChoosingRamContract",
          "inputs": []
        },
        {
          "type": "error",
          "name": "RamNFT__NotOrganiser",
          "inputs": []
        }
      ],
      "userdoc": {},
      "devdoc": {},
      "evm": {
        "bytecode": {
          "object": "60806040523480156200001157600080fd5b506040518060400160405280600681526020016514985b53919560d21b8152506040518060400160405280600381526020016252414d60e81b81525081600090816200005e919062000132565b5060016200006d828262000132565b5050600060075550600880546001600160a01b03191633179055620001fe565b634e487b7160e01b600052604160045260246000fd5b600181811c90821680620000b857607f821691505b602082108103620000d957634e487b7160e01b600052602260045260246000fd5b50919050565b601f8211156200012d57600081815260208120601f850160051c81016020861015620001085750805b601f850160051c820191505b81811015620001295782815560010162000114565b5050505b505050565b81516001600160401b038111156200014e576200014e6200008d565b62000166816200015f8454620000a3565b84620000df565b602080601f8311600181146200019e5760008415620001855750858301515b600019600386901b1c1916600185901b17855562000129565b600085815260208120601f198616915b82811015620001cf57888601518255948401946001909101908401620001ae565b5085821015620001ee5787850151600019600388901b60f8161c191681555b5050505050600190811b01905550565b611627806200020e6000396000f3fe608060405234801561001057600080fd5b50600436106101425760003560e01c806376886955116100b8578063b03822111161007c578063b038221114610337578063b88d4fde14610453578063c87b56dd14610466578063caa0f92a14610479578063d082e38114610481578063e985e9c51461048a57600080fd5b806376886955146102e35780637e537486146102f657806386980d0c1461030957806395d89b411461031c578063a22cb4651461032457600080fd5b806323b872dd1161010a57806323b872dd14610263578063317d7ff51461027657806342842e0e146102895780635bb190401461029c5780636352211e146102af57806370a08231146102c257600080fd5b806301ffc9a71461014757806306fdde031461016f578063081812fc14610184578063095ea7b3146101af57806322fe87cf146101c4575b600080fd5b61015a610155366004611205565b61049d565b60405190151581526020015b60405180910390f35b6101776104c8565b6040516101669190611272565b610197610192366004611285565b61055a565b6040516001600160a01b039091168152602001610166565b6101c26101bd3660046112ba565b610583565b005b6102226101d2366004611285565b600a602052600090815260409020546001600160a01b0381169060ff600160a01b8204811691600160a81b8104821691600160b01b8204811691600160b81b8104821691600160c01b9091041686565b604080516001600160a01b039097168752941515602087015292151593850193909352151560608401529015156080830152151560a082015260c001610166565b6101c26102713660046112e4565b610592565b6101c2610284366004611330565b610622565b6101c26102973660046112e4565b61072f565b6101c26102aa36600461139d565b61074f565b6101976102bd366004611285565b61079c565b6102d56102d036600461139d565b6107a7565b604051908152602001610166565b600954610197906001600160a01b031681565b600854610197906001600160a01b031681565b6101c261031736600461139d565b6107ef565b6101776108e2565b6101c26103323660046113b8565b6108f1565b6103f9610345366004611285565b6040805160c081018252600080825260208201819052918101829052606081018290526080810182905260a0810191909152506000908152600a6020908152604091829020825160c08101845290546001600160a01b038116825260ff600160a01b82048116151593830193909352600160a81b81048316151593820193909352600160b01b8304821615156060820152600160b81b8304821615156080820152600160c01b90920416151560a082015290565b604051610166919081516001600160a01b0316815260208083015115159082015260408083015115159082015260608083015115159082015260808083015115159082015260a09182015115159181019190915260c00190565b6101c2610461366004611401565b6108fc565b610177610474366004611285565b610913565b6007546102d5565b6102d560075481565b61015a6104983660046114dd565b610a24565b60006001600160e01b03198216632483248360e11b14806104c257506104c282610a52565b92915050565b6060600080546104d790611507565b80601f016020809104026020016040519081016040528092919081815260200182805461050390611507565b80156105505780601f1061052557610100808354040283529160200191610550565b820191906000526020600020905b81548152906001019060200180831161053357829003601f168201915b5050505050905090565b600061056582610aa2565b506000828152600460205260409020546001600160a01b03166104c2565b61058e828233610adb565b5050565b6001600160a01b0382166105c157604051633250574960e11b8152600060048201526024015b60405180910390fd5b60006105ce838333610ae8565b9050836001600160a01b0316816001600160a01b03161461061c576040516364283d7b60e01b81526001600160a01b03808616600483015260248201849052821660448201526064016105b8565b50505050565b6009546001600160a01b0316331461064d57604051631210846b60e31b815260040160405180910390fd5b6040805160c0810182526000888152600a602081815284832080546001600160a01b0380821687529b15158387019081529a1515968601968752981515606086019081529715156080860190815296151560a086019081529b909352529051955191519351925197511515600160c01b0260ff60c01b19981515600160b81b029890981661ffff60b81b19931515600160b01b0260ff60b01b19951515600160a81b029590951661ffff60a81b19931515600160a01b026001600160a81b03199097169790981696909617949094171694909417179290921617919091179055565b61074a838383604051806020016040528060008152506108fc565b505050565b6008546001600160a01b0316331461077a57604051630474d7f560e31b815260040160405180910390fd5b600980546001600160a01b0319166001600160a01b0392909216919091179055565b60006104c282610aa2565b60006001600160a01b0382166107d3576040516322718ad960e21b8152600060048201526024016105b8565b506001600160a01b031660009081526003602052604090205490565b600780546000918261080083611541565b9190505590506108108282610be1565b6040805160c0810182526001600160a01b03938416815260006020808301828152838501838152606085018481526080860185815260a08701868152988652600a9094529590932093518454915193519551925196511515600160c01b0260ff60c01b19971515600160b81b029790971661ffff60b81b19931515600160b01b0260ff60b01b19971515600160a81b029790971661ffff60a81b19951515600160a01b026001600160a81b03199094169290991691909117919091179290921695909517929092179390931617179055565b6060600180546104d790611507565b61058e338383610bfb565b610907848484610592565b61061c84848484610c9a565b606061091e82610aa2565b506000828152600660205260408120805461093890611507565b80601f016020809104026020016040519081016040528092919081815260200182805461096490611507565b80156109b15780601f10610986576101008083540402835291602001916109b1565b820191906000526020600020905b81548152906001019060200180831161099457829003601f168201915b5050505050905060006109cf60408051602081019091526000815290565b905080516000036109e1575092915050565b815115610a135780826040516020016109fb929190611568565b60405160208183030381529060405292505050919050565b610a1c84610dc3565b949350505050565b6001600160a01b03918216600090815260056020908152604080832093909416825291909152205460ff1690565b60006001600160e01b031982166380ac58cd60e01b1480610a8357506001600160e01b03198216635b5e139f60e01b145b806104c257506301ffc9a760e01b6001600160e01b03198316146104c2565b6000818152600260205260408120546001600160a01b0316806104c257604051637e27328960e01b8152600481018490526024016105b8565b61074a8383836001610e38565b6000828152600260205260408120546001600160a01b0390811690831615610b1557610b15818486610f3e565b6001600160a01b03811615610b5357610b32600085600080610e38565b6001600160a01b038116600090815260036020526040902080546000190190555b6001600160a01b03851615610b82576001600160a01b0385166000908152600360205260409020805460010190555b60008481526002602052604080822080546001600160a01b0319166001600160a01b0389811691821790925591518793918516917fddf252ad1be2c89b69c2b068fc378daa952ba7f163c4a11628f55a4df523b3ef91a4949350505050565b61058e828260405180602001604052806000815250610fa2565b6001600160a01b038216610c2d57604051630b61174360e31b81526001600160a01b03831660048201526024016105b8565b6001600160a01b03838116600081815260056020908152604080832094871680845294825291829020805460ff191686151590811790915591519182527f17307eab39ab6107e8899845ad3d59bd9653f200f220920489ca2b5937696c31910160405180910390a3505050565b6001600160a01b0383163b1561061c57604051630a85bd0160e11b81526001600160a01b0384169063150b7a0290610cdc903390889087908790600401611597565b6020604051808303816000875af1925050508015610d17575060408051601f3d908101601f19168201909252610d14918101906115d4565b60015b610d80573d808015610d45576040519150601f19603f3d011682016040523d82523d6000602084013e610d4a565b606091505b508051600003610d7857604051633250574960e11b81526001600160a01b03851660048201526024016105b8565b805181602001fd5b6001600160e01b03198116630a85bd0160e11b14610dbc57604051633250574960e11b81526001600160a01b03851660048201526024016105b8565b5050505050565b6060610dce82610aa2565b506000610de660408051602081019091526000815290565b90506000815111610e065760405180602001604052806000815250610e31565b80610e1084610fb9565b604051602001610e21929190611568565b6040516020818303038152906040525b9392505050565b8080610e4c57506001600160a01b03821615155b15610f0e576000610e5c84610aa2565b90506001600160a01b03831615801590610e885750826001600160a01b0316816001600160a01b031614155b8015610e9b5750610e998184610a24565b155b15610ec45760405163a9fbf51f60e01b81526001600160a01b03841660048201526024016105b8565b8115610f0c5783856001600160a01b0316826001600160a01b03167f8c5be1e5ebec7d5bd14f71427d1e84f3dd0314c0f7b2291e5b200ac8c7c3b92560405160405180910390a45b505b5050600090815260046020526040902080546001600160a01b0319166001600160a01b0392909216919091179055565b610f4983838361104c565b61074a576001600160a01b038316610f7757604051637e27328960e01b8152600481018290526024016105b8565b60405163177e802f60e01b81526001600160a01b0383166004820152602481018290526044016105b8565b610fac83836110af565b61074a6000848484610c9a565b60606000610fc683611114565b600101905060008167ffffffffffffffff811115610fe657610fe66113eb565b6040519080825280601f01601f191660200182016040528015611010576020820181803683370190505b5090508181016020015b600019016f181899199a1a9b1b9c1cb0b131b232b360811b600a86061a8153600a850494508461101a57509392505050565b60006001600160a01b03831615801590610a1c5750826001600160a01b0316846001600160a01b0316148061108657506110868484610a24565b80610a1c5750506000908152600460205260409020546001600160a01b03908116911614919050565b6001600160a01b0382166110d957604051633250574960e11b8152600060048201526024016105b8565b60006110e783836000610ae8565b90506001600160a01b0381161561074a576040516339e3563760e11b8152600060048201526024016105b8565b60008072184f03e93ff9f4daa797ed6e38ed64bf6a1f0160401b83106111535772184f03e93ff9f4daa797ed6e38ed64bf6a1f0160401b830492506040015b6d04ee2d6d415b85acef8100000000831061117f576d04ee2d6d415b85acef8100000000830492506020015b662386f26fc10000831061119d57662386f26fc10000830492506010015b6305f5e10083106111b5576305f5e100830492506008015b61271083106111c957612710830492506004015b606483106111db576064830492506002015b600a83106104c25760010192915050565b6001600160e01b03198116811461120257600080fd5b50565b60006020828403121561121757600080fd5b8135610e31816111ec565b60005b8381101561123d578181015183820152602001611225565b50506000910152565b6000815180845261125e816020860160208601611222565b601f01601f19169290920160200192915050565b602081526000610e316020830184611246565b60006020828403121561129757600080fd5b5035919050565b80356001600160a01b03811681146112b557600080fd5b919050565b600080604083850312156112cd57600080fd5b6112d68361129e565b946020939093013593505050565b6000806000606084860312156112f957600080fd5b6113028461129e565b92506113106020850161129e565b9150604084013590509250925092565b803580151581146112b557600080fd5b60008060008060008060c0878903121561134957600080fd5b8635955061135960208801611320565b945061136760408801611320565b935061137560608801611320565b925061138360808801611320565b915061139160a08801611320565b90509295509295509295565b6000602082840312156113af57600080fd5b610e318261129e565b600080604083850312156113cb57600080fd5b6113d48361129e565b91506113e260208401611320565b90509250929050565b634e487b7160e01b600052604160045260246000fd5b6000806000806080858703121561141757600080fd5b6114208561129e565b935061142e6020860161129e565b925060408501359150606085013567ffffffffffffffff8082111561145257600080fd5b818701915087601f83011261146657600080fd5b813581811115611478576114786113eb565b604051601f8201601f19908116603f011681019083821181831017156114a0576114a06113eb565b816040528281528a60208487010111156114b957600080fd5b82602086016020830137600060208483010152809550505050505092959194509250565b600080604083850312156114f057600080fd5b6114f98361129e565b91506113e26020840161129e565b600181811c9082168061151b57607f821691505b60208210810361153b57634e487b7160e01b600052602260045260246000fd5b50919050565b60006001820161156157634e487b7160e01b600052601160045260246000fd5b5060010190565b6000835161157a818460208801611222565b83519083019061158e818360208801611222565b01949350505050565b6001600160a01b03858116825284166020820152604081018390526080606082018190526000906115ca90830184611246565b9695505050505050565b6000602082840312156115e657600080fd5b8151610e31816111ec56fea264697066735822122043965777eda77f087ef578a057fa04dce2a4fc8e0b0a493f2c6291347dc561e664736f6c63430008140033",
          "opcodes": "PUSH1 0x80 PUSH1 0x40 MSTORE CALLVALUE DUP1 ISZERO PUSH3 0x11 JUMPI PUSH1 0x0 DUP1 REVERT JUMPDEST POP PUSH1 0x40 MLOAD DUP1 PUSH1 0x40 ADD PUSH1 0x40 MSTORE DUP1 PUSH1 0x6 DUP2 MSTORE PUSH1 0x20 ADD PUSH6 0x14985B539195 PUSH1 0xD2 SHL DUP2 MSTORE POP PUSH1 0x40 MLOAD DUP1 PUSH1 0x40 ADD PUSH1 0x40 MSTORE DUP1 PUSH1 0x3 DUP2 MSTORE PUSH1 0x20 ADD PUSH3 0x52414D PUSH1 0xE8 SHL DUP2 MSTORE POP DUP2 PUSH1 0x0 SWAP1 DUP2 PUSH3 0x5E SWAP2 SWAP1 PUSH3 0x132 JUMP JUMPDEST POP PUSH1 0x1 PUSH3 0x6D DUP3 DUP3 PUSH3 0x132 JUMP JUMPDEST POP POP PUSH1 0x0 PUSH1 0x7 SSTORE POP PUSH1 0x8 DUP1 SLOAD PUSH1 0x1 PUSH1 0x1 PUSH1 0xA0 SHL SUB NOT AND CALLER OR SWAP1 SSTORE PUSH3 0x1FE JUMP JUMPDEST PUSH4 0x4E487B71 PUSH1 0xE0 SHL PUSH1 0x0 MSTORE PUSH1 0x41 PUSH1 0x4 MSTORE PUSH1 0x24 PUSH1 0x0 REVERT JUMPDEST PUSH1 0x1 DUP2 DUP2 SHR SWAP1 DUP3 AND DUP1 PUSH3 0xB8 JUMPI PUSH1 0x7F DUP3 AND SWAP2 POP JUMPDEST PUSH1 0x20 DUP3 LT DUP2 SUB PUSH3 0xD9 JUMPI PUSH4 0x4E487B71 PUSH1 0xE0 SHL PUSH1 0x0 MSTORE PUSH1 0x22 PUSH1 0x4 MSTORE PUSH1 0x24 PUSH1 0x0 REVERT JUMPDEST POP SWAP2 SWAP1 POP JUMP JUMPDEST PUSH1 0x1F DUP3 GT ISZERO PUSH3 0x12D JUMPI PUSH1 0x0 DUP2 DUP2 MSTORE PUSH1 0x20 DUP2 KECCAK256 PUSH1 0x1F DUP6 ADD PUSH1 0x5 SHR DUP2 ADD PUSH1 0x20 DUP7 LT ISZERO PUSH3 0x108 JUMPI POP DUP1 JUMPDEST PUSH1 0x1F DUP6 ADD PUSH1 0x5 SHR DUP3 ADD SWAP2 POP JUMPDEST DUP2 DUP2 LT ISZERO PUSH3 0x129 JUMPI DUP3 DUP2 SSTORE PUSH1 0x1 ADD PUSH3 0x114 JUMP JUMPDEST POP POP POP JUMPDEST POP POP POP JUMP JUMPDEST DUP2 MLOAD PUSH1 0x1 PUSH1 0x1 PUSH1 0x40 SHL SUB DUP2 GT ISZERO PUSH3 0x14E JUMPI PUSH3 0x14E PUSH3 0x8D JUMP JUMPDEST PUSH3 0x166 DUP2 PUSH3 0x15F DUP5 SLOAD PUSH3 0xA3 JUMP JUMPDEST DUP5 PUSH3 0xDF JUMP JUMPDEST PUSH1 0x20 DUP1 PUSH1 0x1F DUP4 GT PUSH1 0x1 DUP2 EQ PUSH3 0x19E JUMPI PUSH1 0x0 DUP5 ISZERO PUSH3 0x185 JUMPI POP DUP6 DUP4 ADD MLOAD JUMPDEST PUSH1 0x0 NOT PUSH1 0x3 DUP7 SWAP1 SHL SHR NOT AND PUSH1 0x1 DUP6 SWAP1 SHL OR DUP6 SSTORE PUSH3 0x129 JUMP JUMPDEST PUSH1 0x0 DUP6 DUP2 MSTORE PUSH1 0x20 DUP2 KECCAK256 PUSH1 0x1F NOT DUP7 AND SWAP2 JUMPDEST DUP3 DUP2 LT ISZERO PUSH3 0x1CF JUMPI DUP9 DUP7 ADD MLOAD DUP3 SSTORE SWAP5 DUP5 ADD SWAP5 PUSH1 0x1 SWAP1 SWAP2 ADD SWAP1 DUP5 ADD PUSH3 0x1AE JUMP JUMPDEST POP DUP6 DUP3 LT ISZERO PUSH3 0x1EE JUMPI DUP8 DUP6 ADD MLOAD PUSH1 0x0 NOT PUSH1 0x3 DUP9 SWAP1 SHL PUSH1 0xF8 AND SHR NOT AND DUP2 SSTORE JUMPDEST POP POP POP POP POP PUSH1 0x1 SWAP1 DUP2 SHL ADD SWAP1 SSTORE POP JUMP JUMPDEST PUSH2 0x1627 DUP1 PUSH3 0x20E PUSH1 0x0 CODECOPY PUSH1 0x0 RETURN INVALID PUSH1 0x80 PUSH1 0x40 MSTORE CALLVALUE DUP1 ISZERO PUSH2 0x10 JUMPI PUSH1 0x0 DUP1 REVERT JUMPDEST POP PUSH1 0x4 CALLDATASIZE LT PUSH2 0x142 JUMPI PUSH1 0x0 CALLDATALOAD PUSH1 0xE0 SHR DUP1 PUSH4 0x76886955 GT PUSH2 0xB8 JUMPI DUP1 PUSH4 0xB0382211 GT PUSH2 0x7C JUMPI DUP1 PUSH4 0xB0382211 EQ PUSH2 0x337 JUMPI DUP1 PUSH4 0xB88D4FDE EQ PUSH2 0x453 JUMPI DUP1 PUSH4 0xC87B56DD EQ PUSH2 0x466 JUMPI DUP1 PUSH4 0xCAA0F92A EQ PUSH2 0x479 JUMPI DUP1 PUSH4 0xD082E381 EQ PUSH2 0x481 JUMPI DUP1 PUSH4 0xE985E9C5 EQ PUSH2 0x48A JUMPI PUSH1 0x0 DUP1 REVERT JUMPDEST DUP1 PUSH4 0x76886955 EQ PUSH2 0x2E3 JUMPI DUP1 PUSH4 0x7E537486 EQ PUSH2 0x2F6 JUMPI DUP1 PUSH4 0x86980D0C EQ PUSH2 0x309 JUMPI DUP1 PUSH4 0x95D89B41 EQ PUSH2 0x31C JUMPI DUP1 PUSH4 0xA22CB465 EQ PUSH2 0x324 JUMPI PUSH1 0x0 DUP1 REVERT JUMPDEST DUP1 PUSH4 0x23B872DD GT PUSH2 0x10A JUMPI DUP1 PUSH4 0x23B872DD EQ PUSH2 0x263 JUMPI DUP1 PUSH4 0x317D7FF5 EQ PUSH2 0x276 JUMPI DUP1 PUSH4 0x42842E0E EQ PUSH2 0x289 JUMPI DUP1 PUSH4 0x5BB19040 EQ PUSH2 0x29C JUMPI DUP1 PUSH4 0x6352211E EQ PUSH2 0x2AF JUMPI DUP1 PUSH4 0x70A08231 EQ PUSH2 0x2C2 JUMPI PUSH1 0x0 DUP1 REVERT JUMPDEST DUP1 PUSH4 0x1FFC9A7 EQ PUSH2 0x147 JUMPI DUP1 PUSH4 0x6FDDE03 EQ PUSH2 0x16F JUMPI DUP1 PUSH4 0x81812FC EQ PUSH2 0x184 JUMPI DUP1 PUSH4 0x95EA7B3 EQ PUSH2 0x1AF JUMPI DUP1 PUSH4 0x22FE87CF EQ PUSH2 0x1C4 JUMPI JUMPDEST PUSH1 0x0 DUP1 REVERT JUMPDEST PUSH2 0x15A PUSH2 0x155 CALLDATASIZE PUSH1 0x4 PUSH2 0x1205 JUMP JUMPDEST PUSH2 0x49D JUMP JUMPDEST PUSH1 0x40 MLOAD SWAP1 ISZERO ISZERO DUP2 MSTORE PUSH1 0x20 ADD JUMPDEST PUSH1 0x40 MLOAD DUP1 SWAP2 SUB SWAP1 RETURN JUMPDEST PUSH2 0x177 PUSH2 0x4C8 JUMP JUMPDEST PUSH1 0x40 MLOAD PUSH2 0x166 SWAP2 SWAP1 PUSH2 0x1272 JUMP JUMPDEST PUSH2 0x197 PUSH2 0x192 CALLDATASIZE PUSH1 0x4 PUSH2 0x1285 JUMP JUMPDEST PUSH2 0x55A JUMP JUMPDEST PUSH1 0x40 MLOAD PUSH1 0x1 PUSH1 0x1 PUSH1 0xA0 SHL SUB SWAP1 SWAP2 AND DUP2 MSTORE PUSH1 0x20 ADD PUSH2 0x166 JUMP JUMPDEST PUSH2 0x1C2 PUSH2 0x1BD CALLDATASIZE PUSH1 0x4 PUSH2 0x12BA JUMP JUMPDEST PUSH2 0x583 JUMP JUMPDEST STOP JUMPDEST PUSH2 0x222 PUSH2 0x1D2 CALLDATASIZE PUSH1 0x4 PUSH2 0x1285 JUMP JUMPDEST PUSH1 0xA PUSH1 0x20 MSTORE PUSH1 0x0 SWAP1 DUP2 MSTORE PUSH1 0x40 SWAP1 KECCAK256 SLOAD PUSH1 0x1 PUSH1 0x1 PUSH1 0xA0 SHL SUB DUP2 AND SWAP1 PUSH1 0xFF PUSH1 0x1 PUSH1 0xA0 SHL DUP3 DIV DUP2 AND SWAP2 PUSH1 0x1 PUSH1 0xA8 SHL DUP2 DIV DUP3 AND SWAP2 PUSH1 0x1 PUSH1 0xB0 SHL DUP3 DIV DUP2 AND SWAP2 PUSH1 0x1 PUSH1 0xB8 SHL DUP2 DIV DUP3 AND SWAP2 PUSH1 0x1 PUSH1 0xC0 SHL SWAP1 SWAP2 DIV AND DUP7 JUMP JUMPDEST PUSH1 0x40 DUP1 MLOAD PUSH1 0x1 PUSH1 0x1 PUSH1 0xA0 SHL SUB SWAP1 SWAP8 AND DUP8 MSTORE SWAP5 ISZERO ISZERO PUSH1 0x20 DUP8 ADD MSTORE SWAP3 ISZERO ISZERO SWAP4 DUP6 ADD SWAP4 SWAP1 SWAP4 MSTORE ISZERO ISZERO PUSH1 0x60 DUP5 ADD MSTORE SWAP1 ISZERO ISZERO PUSH1 0x80 DUP4 ADD MSTORE ISZERO ISZERO PUSH1 0xA0 DUP3 ADD MSTORE PUSH1 0xC0 ADD PUSH2 0x166 JUMP JUMPDEST PUSH2 0x1C2 PUSH2 0x271 CALLDATASIZE PUSH1 0x4 PUSH2 0x12E4 JUMP JUMPDEST PUSH2 0x592 JUMP JUMPDEST PUSH2 0x1C2 PUSH2 0x284 CALLDATASIZE PUSH1 0x4 PUSH2 0x1330 JUMP JUMPDEST PUSH2 0x622 JUMP JUMPDEST PUSH2 0x1C2 PUSH2 0x297 CALLDATASIZE PUSH1 0x4 PUSH2 0x12E4 JUMP JUMPDEST PUSH2 0x72F JUMP JUMPDEST PUSH2 0x1C2 PUSH2 0x2AA CALLDATASIZE PUSH1 0x4 PUSH2 0x139D JUMP JUMPDEST PUSH2 0x74F JUMP JUMPDEST PUSH2 0x197 PUSH2 0x2BD CALLDATASIZE PUSH1 0x4 PUSH2 0x1285 JUMP JUMPDEST PUSH2 0x79C JUMP JUMPDEST PUSH2 0x2D5 PUSH2 0x2D0 CALLDATASIZE PUSH1 0x4 PUSH2 0x139D JUMP JUMPDEST PUSH2 0x7A7 JUMP JUMPDEST PUSH1 0x40 MLOAD SWAP1 DUP2 MSTORE PUSH1 0x20 ADD PUSH2 0x166 JUMP JUMPDEST PUSH1 0x9 SLOAD PUSH2 0x197 SWAP1 PUSH1 0x1 PUSH1 0x1 PUSH1 0xA0 SHL SUB AND DUP2 JUMP JUMPDEST PUSH1 0x8 SLOAD PUSH2 0x197 SWAP1 PUSH1 0x1 PUSH1 0x1 PUSH1 0xA0 SHL SUB AND DUP2 JUMP JUMPDEST PUSH2 0x1C2 PUSH2 0x317 CALLDATASIZE PUSH1 0x4 PUSH2 0x139D JUMP JUMPDEST PUSH2 0x7EF JUMP JUMPDEST PUSH2 0x177 PUSH2 0x8E2 JUMP JUMPDEST PUSH2 0x1C2 PUSH2 0x332 CALLDATASIZE PUSH1 0x4 PUSH2 0x13B8 JUMP JUMPDEST PUSH2 0x8F1 JUMP JUMPDEST PUSH2 0x3F9 PUSH2 0x345 CALLDATASIZE PUSH1 0x4 PUSH2 0x1285 JUMP JUMPDEST PUSH1 0x40 DUP1 MLOAD PUSH1 0xC0 DUP2 ADD DUP3 MSTORE PUSH1 0x0 DUP1 DUP3 MSTORE PUSH1 0x20 DUP3 ADD DUP2 SWAP1 MSTORE SWAP2 DUP2 ADD DUP3 SWAP1 MSTORE PUSH1 0x60 DUP2 ADD DUP3 SWAP1 MSTORE PUSH1 0x80 DUP2 ADD DUP3 SWAP1 MSTORE PUSH1 0xA0 DUP2 ADD SWAP2 SWAP1 SWAP2 MSTORE POP PUSH1 0x0 SWAP1 DUP2 MSTORE PUSH1 0xA PUSH1 0x20 SWAP1 DUP2 MSTORE PUSH1 0x40 SWAP2 DUP3 SWAP1 KECCAK256 DUP3 MLOAD PUSH1 0xC0 DUP2 ADD DUP5 MSTORE SWAP1 SLOAD PUSH1 0x1 PUSH1 0x1 PUSH1 0xA0 SHL SUB DUP2 AND DUP3 MSTORE PUSH1 0xFF PUSH1 0x1 PUSH1 0xA0 SHL DUP3 DIV DUP2 AND ISZERO ISZERO SWAP4 DUP4 ADD SWAP4 SWAP1 SWAP4 MSTORE PUSH1 0x1 PUSH1 0xA8 SHL DUP2 DIV DUP4 AND ISZERO ISZERO SWAP4 DUP3 ADD SWAP4 SWAP1 SWAP4 MSTORE PUSH1 0x1 PUSH1 0xB0 SHL DUP4 DIV DUP3 AND ISZERO ISZERO PUSH1 0x60 DUP3 ADD MSTORE PUSH1 0x1 PUSH1 0xB8 SHL DUP4 DIV DUP3 AND ISZERO ISZERO PUSH1 0x80 DUP3 ADD MSTORE PUSH1 0x1 PUSH1 0xC0 SHL SWAP1 SWAP3 DIV AND ISZERO ISZERO PUSH1 0xA0 DUP3 ADD MSTORE SWAP1 JUMP JUMPDEST PUSH1 0x40 MLOAD PUSH2 0x166 SWAP2 SWAP1 DUP2 MLOAD PUSH1 0x1 PUSH1 0x1 PUSH1 0xA0 SHL SUB AND DUP2 MSTORE PUSH1 0x20 DUP1 DUP4 ADD MLOAD ISZERO ISZERO SWAP1 DUP3 ADD MSTORE PUSH1 0x40 DUP1 DUP4 ADD MLOAD ISZERO ISZERO SWAP1 DUP3 ADD MSTORE PUSH1 0x60 DUP1 DUP4 ADD MLOAD ISZERO ISZERO SWAP1 DUP3 ADD MSTORE PUSH1 0x80 DUP1 DUP4 ADD MLOAD ISZERO ISZERO SWAP1 DUP3 ADD MSTORE PUSH1 0xA0 SWAP2 DUP3 ADD MLOAD ISZERO ISZERO SWAP2 DUP2 ADD SWAP2 SWAP1 SWAP2 MSTORE PUSH1 0xC0 ADD SWAP1 JUMP JUMPDEST PUSH2 0x1C2 PUSH2 0x461 CALLDATASIZE PUSH1 0x4 PUSH2 0x1401 JUMP JUMPDEST PUSH2 0x8FC JUMP JUMPDEST PUSH2 0x177 PUSH2 0x474 CALLDATASIZE PUSH1 0x4 PUSH2 0x1285 JUMP JUMPDEST PUSH2 0x913 JUMP JUMPDEST PUSH1 0x7 SLOAD PUSH2 0x2D5 JUMP JUMPDEST PUSH2 0x2D5 PUSH1 0x7 SLOAD DUP2 JUMP JUMPDEST PUSH2 0x15A PUSH2 0x498 CALLDATASIZE PUSH1 0x4 PUSH2 0x14DD JUMP JUMPDEST PUSH2 0xA24 JUMP JUMPDEST PUSH1 0x0 PUSH1 0x1 PUSH1 0x1 PUSH1 0xE0 SHL SUB NOT DUP3 AND PUSH4 0x24832483 PUSH1 0xE1 SHL EQ DUP1 PUSH2 0x4C2 JUMPI POP PUSH2 0x4C2 DUP3 PUSH2 0xA52 JUMP JUMPDEST SWAP3 SWAP2 POP POP JUMP JUMPDEST PUSH1 0x60 PUSH1 0x0 DUP1 SLOAD PUSH2 0x4D7 SWAP1 PUSH2 0x1507 JUMP JUMPDEST DUP1 PUSH1 0x1F ADD PUSH1 0x20 DUP1 SWAP2 DIV MUL PUSH1 0x20 ADD PUSH1 0x40 MLOAD SWAP1 DUP2 ADD PUSH1 0x40 MSTORE DUP1 SWAP3 SWAP2 SWAP1 DUP2 DUP2 MSTORE PUSH1 0x20 ADD DUP3 DUP1 SLOAD PUSH2 0x503 SWAP1 PUSH2 0x1507 JUMP JUMPDEST DUP1 ISZERO PUSH2 0x550 JUMPI DUP1 PUSH1 0x1F LT PUSH2 0x525 JUMPI PUSH2 0x100 DUP1 DUP4 SLOAD DIV MUL DUP4 MSTORE SWAP2 PUSH1 0x20 ADD SWAP2 PUSH2 0x550 JUMP JUMPDEST DUP3 ADD SWAP2 SWAP1 PUSH1 0x0 MSTORE PUSH1 0x20 PUSH1 0x0 KECCAK256 SWAP1 JUMPDEST DUP2 SLOAD DUP2 MSTORE SWAP1 PUSH1 0x1 ADD SWAP1 PUSH1 0x20 ADD DUP1 DUP4 GT PUSH2 0x533 JUMPI DUP3 SWAP1 SUB PUSH1 0x1F AND DUP3 ADD SWAP2 JUMPDEST POP POP POP POP POP SWAP1 POP SWAP1 JUMP JUMPDEST PUSH1 0x0 PUSH2 0x565 DUP3 PUSH2 0xAA2 JUMP JUMPDEST POP PUSH1 0x0 DUP3 DUP2 MSTORE PUSH1 0x4 PUSH1 0x20 MSTORE PUSH1 0x40 SWAP1 KECCAK256 SLOAD PUSH1 0x1 PUSH1 0x1 PUSH1 0xA0 SHL SUB AND PUSH2 0x4C2 JUMP JUMPDEST PUSH2 0x58E DUP3 DUP3 CALLER PUSH2 0xADB JUMP JUMPDEST POP POP JUMP JUMPDEST PUSH1 0x1 PUSH1 0x1 PUSH1 0xA0 SHL SUB DUP3 AND PUSH2 0x5C1 JUMPI PUSH1 0x40 MLOAD PUSH4 0x32505749 PUSH1 0xE1 SHL DUP2 MSTORE PUSH1 0x0 PUSH1 0x4 DUP3 ADD MSTORE PUSH1 0x24 ADD JUMPDEST PUSH1 0x40 MLOAD DUP1 SWAP2 SUB SWAP1 REVERT JUMPDEST PUSH1 0x0 PUSH2 0x5CE DUP4 DUP4 CALLER PUSH2 0xAE8 JUMP JUMPDEST SWAP1 POP DUP4 PUSH1 0x1 PUSH1 0x1 PUSH1 0xA0 SHL SUB AND DUP2 PUSH1 0x1 PUSH1 0x1 PUSH1 0xA0 SHL SUB AND EQ PUSH2 0x61C JUMPI PUSH1 0x40 MLOAD PUSH4 0x64283D7B PUSH1 0xE0 SHL DUP2 MSTORE PUSH1 0x1 PUSH1 0x1 PUSH1 0xA0 SHL SUB DUP1 DUP7 AND PUSH1 0x4 DUP4 ADD MSTORE PUSH1 0x24 DUP3 ADD DUP5 SWAP1 MSTORE DUP3 AND PUSH1 0x44 DUP3 ADD MSTORE PUSH1 0x64 ADD PUSH2 0x5B8 JUMP JUMPDEST POP POP POP POP JUMP JUMPDEST PUSH1 0x9 SLOAD PUSH1 0x1 PUSH1 0x1 PUSH1 0xA0 SHL SUB AND CALLER EQ PUSH2 0x64D JUMPI PUSH1 0x40 MLOAD PUSH4 0x1210846B PUSH1 0xE3 SHL DUP2 MSTORE PUSH1 0x4 ADD PUSH1 0x40 MLOAD DUP1 SWAP2 SUB SWAP1 REVERT JUMPDEST PUSH1 0x40 DUP1 MLOAD PUSH1 0xC0 DUP2 ADD DUP3 MSTORE PUSH1 0x0 DUP9 DUP2 MSTORE PUSH1 0xA PUSH1 0x20 DUP2 DUP2 MSTORE DUP5 DUP4 KECCAK256 DUP1 SLOAD PUSH1 0x1 PUSH1 0x1 PUSH1 0xA0 SHL SUB DUP1 DUP3 AND DUP8 MSTORE SWAP12 ISZERO ISZERO DUP4 DUP8 ADD SWAP1 DUP2 MSTORE SWAP11 ISZERO ISZERO SWAP7 DUP7 ADD SWAP7 DUP8 MSTORE SWAP9 ISZERO ISZERO PUSH1 0x60 DUP7 ADD SWAP1 DUP2 MSTORE SWAP8 ISZERO ISZERO PUSH1 0x80 DUP7 ADD SWAP1 DUP2 MSTORE SWAP7 ISZERO ISZERO PUSH1 0xA0 DUP7 ADD SWAP1 DUP2 MSTORE SWAP12 SWAP1 SWAP4 MSTORE MSTORE SWAP1 MLOAD SWAP6 MLOAD SWAP2 MLOAD SWAP4 MLOAD SWAP3 MLOAD SWAP8 MLOAD ISZERO ISZERO PUSH1 0x1 PUSH1 0xC0 SHL MUL PUSH1 0xFF PUSH1 0xC0 SHL NOT SWAP9 ISZERO ISZERO PUSH1 0x1 PUSH1 0xB8 SHL MUL SWAP9 SWAP1 SWAP9 AND PUSH2 0xFFFF PUSH1 0xB8 SHL NOT SWAP4 ISZERO ISZERO PUSH1 0x1 PUSH1 0xB0 SHL MUL PUSH1 0xFF PUSH1 0xB0 SHL NOT SWAP6 ISZERO ISZERO PUSH1 0x1 PUSH1 0xA8 SHL MUL SWAP6 SWAP1 SWAP6 AND PUSH2 0xFFFF PUSH1 0xA8 SHL NOT SWAP4 ISZERO ISZERO PUSH1 0x1 PUSH1 0xA0 SHL MUL PUSH1 0x1 PUSH1 0x1 PUSH1 0xA8 SHL SUB NOT SWAP1 SWAP8 AND SWAP8 SWAP1 SWAP9 AND SWAP7 SWAP1 SWAP7 OR SWAP5 SWAP1 SWAP5 OR AND SWAP5 SWAP1 SWAP5 OR OR SWAP3 SWAP1 SWAP3 AND OR SWAP2 SWAP1 SWAP2 OR SWAP1 SSTORE JUMP JUMPDEST PUSH2 0x74A DUP4 DUP4 DUP4 PUSH1 0x40 MLOAD DUP1 PUSH1 0x20 ADD PUSH1 0x40 MSTORE DUP1 PUSH1 0x0 DUP2 MSTORE POP PUSH2 0x8FC JUMP JUMPDEST POP POP POP JUMP JUMPDEST PUSH1 0x8 SLOAD PUSH1 0x1 PUSH1 0x1 PUSH1 0xA0 SHL SUB AND CALLER EQ PUSH2 0x77A JUMPI PUSH1 0x40 MLOAD PUSH4 0x474D7F5 PUSH1 0xE3 SHL DUP2 MSTORE PUSH1 0x4 ADD PUSH1 0x40 MLOAD DUP1 SWAP2 SUB SWAP1 REVERT JUMPDEST PUSH1 0x9 DUP1 SLOAD PUSH1 0x1 PUSH1 0x1 PUSH1 0xA0 SHL SUB NOT AND PUSH1 0x1 PUSH1 0x1 PUSH1 0xA0 SHL SUB SWAP3 SWAP1 SWAP3 AND SWAP2 SWAP1 SWAP2 OR SWAP1 SSTORE JUMP JUMPDEST PUSH1 0x0 PUSH2 0x4C2 DUP3 PUSH2 0xAA2 JUMP JUMPDEST PUSH1 0x0 PUSH1 0x1 PUSH1 0x1 PUSH1 0xA0 SHL SUB DUP3 AND PUSH2 0x7D3 JUMPI PUSH1 0x40 MLOAD PUSH4 0x22718AD9 PUSH1 0xE2 SHL DUP2 MSTORE PUSH1 0x0 PUSH1 0x4 DUP3 ADD MSTORE PUSH1 0x24 ADD PUSH2 0x5B8 JUMP JUMPDEST POP PUSH1 0x1 PUSH1 0x1 PUSH1 0xA0 SHL SUB AND PUSH1 0x0 SWAP1 DUP2 MSTORE PUSH1 0x3 PUSH1 0x20 MSTORE PUSH1 0x40 SWAP1 KECCAK256 SLOAD SWAP1 JUMP JUMPDEST PUSH1 0x7 DUP1 SLOAD PUSH1 0x0 SWAP2 DUP3 PUSH2 0x800 DUP4 PUSH2 0x1541 JUMP JUMPDEST SWAP2 SWAP1 POP SSTORE SWAP1 POP PUSH2 0x810 DUP3 DUP3 PUSH2 0xBE1 JUMP JUMPDEST PUSH1 0x40 DUP1 MLOAD PUSH1 0xC0 DUP2 ADD DUP3 MSTORE PUSH1 0x1 PUSH1 0x1 PUSH1 0xA0 SHL SUB SWAP4 DUP5 AND DUP2 MSTORE PUSH1 0x0 PUSH1 0x20 DUP1 DUP4 ADD DUP3 DUP2 MSTORE DUP4 DUP6 ADD DUP4 DUP2 MSTORE PUSH1 0x60 DUP6 ADD DUP5 DUP2 MSTORE PUSH1 0x80 DUP7 ADD DUP6 DUP2 MSTORE PUSH1 0xA0 DUP8 ADD DUP7 DUP2 MSTORE SWAP9 DUP7 MSTORE PUSH1 0xA SWAP1 SWAP5 MSTORE SWAP6 SWAP1 SWAP4 KECCAK256 SWAP4 MLOAD DUP5 SLOAD SWAP2 MLOAD SWAP4 MLOAD SWAP6 MLOAD SWAP3 MLOAD SWAP7 MLOAD ISZERO ISZERO PUSH1 0x1 PUSH1 0xC0 SHL MUL PUSH1 0xFF PUSH1 0xC0 SHL NOT SWAP8 ISZERO ISZERO PUSH1 0x1 PUSH1 0xB8 SHL MUL SWAP8 SWAP1 SWAP8 AND PUSH2 0xFFFF PUSH1 0xB8 SHL NOT SWAP4 ISZERO ISZERO PUSH1 0x1 PUSH1 0xB0 SHL MUL PUSH1 0xFF PUSH1 0xB0 SHL NOT SWAP8 ISZERO ISZERO PUSH1 0x1 PUSH1 0xA8 SHL MUL SWAP8 SWAP1 SWAP8 AND PUSH2 0xFFFF PUSH1 0xA8 SHL NOT SWAP6 ISZERO ISZERO PUSH1 0x1 PUSH1 0xA0 SHL MUL PUSH1 0x1 PUSH1 0x1 PUSH1 0xA8 SHL SUB NOT SWAP1 SWAP5 AND SWAP3 SWAP1 SWAP10 AND SWAP2 SWAP1 SWAP2 OR SWAP2 SWAP1 SWAP2 OR SWAP3 SWAP1 SWAP3 AND SWAP6 SWAP1 SWAP6 OR SWAP3 SWAP1 SWAP3 OR SWAP4 SWAP1 SWAP4 AND OR OR SWAP1 SSTORE JUMP JUMPDEST PUSH1 0x60 PUSH1 0x1 DUP1 SLOAD PUSH2 0x4D7 SWAP1 PUSH2 0x1507 JUMP JUMPDEST PUSH2 0x58E CALLER DUP4 DUP4 PUSH2 0xBFB JUMP JUMPDEST PUSH2 0x907 DUP5 DUP5 DUP5 PUSH2 0x592 JUMP JUMPDEST PUSH2 0x61C DUP5 DUP5 DUP5 DUP5 PUSH2 0xC9A JUMP JUMPDEST PUSH1 0x60 PUSH2 0x91E DUP3 PUSH2 0xAA2 JUMP JUMPDEST POP PUSH1 0x0 DUP3 DUP2 MSTORE PUSH1 0x6 PUSH1 0x20 MSTORE PUSH1 0x40 DUP2 KECCAK256 DUP1 SLOAD PUSH2 0x938 SWAP1 PUSH2 0x1507 JUMP JUMPDEST DUP1 PUSH1 0x1F ADD PUSH1 0x20 DUP1 SWAP2 DIV MUL PUSH1 0x20 ADD PUSH1 0x40 MLOAD SWAP1 DUP2 ADD PUSH1 0x40 MSTORE DUP1 SWAP3 SWAP2 SWAP1 DUP2 DUP2 MSTORE PUSH1 0x20 ADD DUP3 DUP1 SLOAD PUSH2 0x964 SWAP1 PUSH2 0x1507 JUMP JUMPDEST DUP1 ISZERO PUSH2 0x9B1 JUMPI DUP1 PUSH1 0x1F LT PUSH2 0x986 JUMPI PUSH2 0x100 DUP1 DUP4 SLOAD DIV MUL DUP4 MSTORE SWAP2 PUSH1 0x20 ADD SWAP2 PUSH2 0x9B1 JUMP JUMPDEST DUP3 ADD SWAP2 SWAP1 PUSH1 0x0 MSTORE PUSH1 0x20 PUSH1 0x0 KECCAK256 SWAP1 JUMPDEST DUP2 SLOAD DUP2 MSTORE SWAP1 PUSH1 0x1 ADD SWAP1 PUSH1 0x20 ADD DUP1 DUP4 GT PUSH2 0x994 JUMPI DUP3 SWAP1 SUB PUSH1 0x1F AND DUP3 ADD SWAP2 JUMPDEST POP POP POP POP POP SWAP1 POP PUSH1 0x0 PUSH2 0x9CF PUSH1 0x40 DUP1 MLOAD PUSH1 0x20 DUP2 ADD SWAP1 SWAP2 MSTORE PUSH1 0x0 DUP2 MSTORE SWAP1 JUMP JUMPDEST SWAP1 POP DUP1 MLOAD PUSH1 0x0 SUB PUSH2 0x9E1 JUMPI POP SWAP3 SWAP2 POP POP JUMP JUMPDEST DUP2 MLOAD ISZERO PUSH2 0xA13 JUMPI DUP1 DUP3 PUSH1 0x40 MLOAD PUSH1 0x20 ADD PUSH2 0x9FB SWAP3 SWAP2 SWAP1 PUSH2 0x1568 JUMP JUMPDEST PUSH1 0x40 MLOAD PUSH1 0x20 DUP2 DUP4 SUB SUB DUP2 MSTORE SWAP1 PUSH1 0x40 MSTORE SWAP3 POP POP POP SWAP2 SWAP1 POP JUMP JUMPDEST PUSH2 0xA1C DUP5 PUSH2 0xDC3 JUMP JUMPDEST SWAP5 SWAP4 POP POP POP POP JUMP JUMPDEST PUSH1 0x1 PUSH1 0x1 PUSH1 0xA0 SHL SUB SWAP2 DUP3 AND PUSH1 0x0 SWAP1 DUP2 MSTORE PUSH1 0x5 PUSH1 0x20 SWAP1 DUP2 MSTORE PUSH1 0x40 DUP1 DUP4 KECCAK256 SWAP4 SWAP1 SWAP5 AND DUP3 MSTORE SWAP2 SWAP1 SWAP2 MSTORE KECCAK256 SLOAD PUSH1 0xFF AND SWAP1 JUMP JUMPDEST PUSH1 0x0 PUSH1 0x1 PUSH1 0x1 PUSH1 0xE0 SHL SUB NOT DUP3 AND PUSH4 0x80AC58CD PUSH1 0xE0 SHL EQ DUP1 PUSH2 0xA83 JUMPI POP PUSH1 0x1 PUSH1 0x1 PUSH1 0xE0 SHL SUB NOT DUP3 AND PUSH4 0x5B5E139F PUSH1 0xE0 SHL EQ JUMPDEST DUP1 PUSH2 0x4C2 JUMPI POP PUSH4 0x1FFC9A7 PUSH1 0xE0 SHL PUSH1 0x1 PUSH1 0x1 PUSH1 0xE0 SHL SUB NOT DUP4 AND EQ PUSH2 0x4C2 JUMP JUMPDEST PUSH1 0x0 DUP2 DUP2 MSTORE PUSH1 0x2 PUSH1 0x20 MSTORE PUSH1 0x40 DUP2 KECCAK256 SLOAD PUSH1 0x1 PUSH1 0x1 PUSH1 0xA0 SHL SUB AND DUP1 PUSH2 0x4C2 JUMPI PUSH1 0x40 MLOAD PUSH4 0x7E273289 PUSH1 0xE0 SHL DUP2 MSTORE PUSH1 0x4 DUP2 ADD DUP5 SWAP1 MSTORE PUSH1 0x24 ADD PUSH2 0x5B8 JUMP JUMPDEST PUSH2 0x74A DUP4 DUP4 DUP4 PUSH1 0x1 PUSH2 0xE38 JUMP JUMPDEST PUSH1 0x0 DUP3 DUP2 MSTORE PUSH1 0x2 PUSH1 0x20 MSTORE PUSH1 0x40 DUP2 KECCAK256 SLOAD PUSH1 0x1 PUSH1 0x1 PUSH1 0xA0 SHL SUB SWAP1 DUP2 AND SWAP1 DUP4 AND ISZERO PUSH2 0xB15 JUMPI PUSH2 0xB15 DUP2 DUP5 DUP7 PUSH2 0xF3E JUMP JUMPDEST PUSH1 0x1 PUSH1 0x1 PUSH1 0xA0 SHL SUB DUP2 AND ISZERO PUSH2 0xB53 JUMPI PUSH2 0xB32 PUSH1 0x0 DUP6 PUSH1 0x0 DUP1 PUSH2 0xE38 JUMP JUMPDEST PUSH1 0x1 PUSH1 0x1 PUSH1 0xA0 SHL SUB DUP2 AND PUSH1 0x0 SWAP1 DUP2 MSTORE PUSH1 0x3 PUSH1 0x20 MSTORE PUSH1 0x40 SWAP1 KECCAK256 DUP1 SLOAD PUSH1 0x0 NOT ADD SWAP1 SSTORE JUMPDEST PUSH1 0x1 PUSH1 0x1 PUSH1 0xA0 SHL SUB DUP6 AND ISZERO PUSH2 0xB82 JUMPI PUSH1 0x1 PUSH1 0x1 PUSH1 0xA0 SHL SUB DUP6 AND PUSH1 0x0 SWAP1 DUP2 MSTORE PUSH1 0x3 PUSH1 0x20 MSTORE PUSH1 0x40 SWAP1 KECCAK256 DUP1 SLOAD PUSH1 0x1 ADD SWAP1 SSTORE JUMPDEST PUSH1 0x0 DUP5 DUP2 MSTORE PUSH1 0x2 PUSH1 0x20 MSTORE PUSH1 0x40 DUP1 DUP3 KECCAK256 DUP1 SLOAD PUSH1 0x1 PUSH1 0x1 PUSH1 0xA0 SHL SUB NOT AND PUSH1 0x1 PUSH1 0x1 PUSH1 0xA0 SHL SUB DUP10 DUP2 AND SWAP2 DUP3 OR SWAP1 SWAP3 SSTORE SWAP2 MLOAD DUP8 SWAP4 SWAP2 DUP6 AND SWAP2 PUSH32 0xDDF252AD1BE2C89B69C2B068FC378DAA952BA7F163C4A11628F55A4DF523B3EF SWAP2 LOG4 SWAP5 SWAP4 POP POP POP POP JUMP JUMPDEST PUSH2 0x58E DUP3 DUP3 PUSH1 0x40 MLOAD DUP1 PUSH1 0x20 ADD PUSH1 0x40 MSTORE DUP1 PUSH1 0x0 DUP2 MSTORE POP PUSH2 0xFA2 JUMP JUMPDEST PUSH1 0x1 PUSH1 0x1 PUSH1 0xA0 SHL SUB DUP3 AND PUSH2 0xC2D JUMPI PUSH1 0x40 MLOAD PUSH4 0xB611743 PUSH1 0xE3 SHL DUP2 MSTORE PUSH1 0x1 PUSH1 0x1 PUSH1 0xA0 SHL SUB DUP4 AND PUSH1 0x4 DUP3 ADD MSTORE PUSH1 0x24 ADD PUSH2 0x5B8 JUMP JUMPDEST PUSH1 0x1 PUSH1 0x1 PUSH1 0xA0 SHL SUB DUP4 DUP2 AND PUSH1 0x0 DUP2 DUP2 MSTORE PUSH1 0x5 PUSH1 0x20 SWAP1 DUP2 MSTORE PUSH1 0x40 DUP1 DUP4 KECCAK256 SWAP5 DUP8 AND DUP1 DUP5 MSTORE SWAP5 DUP3 MSTORE SWAP2 DUP3 SWAP1 KECCAK256 DUP1 SLOAD PUSH1 0xFF NOT AND DUP7 ISZERO ISZERO SWAP1 DUP2 OR SWAP1 SWAP2 SSTORE SWAP2 MLOAD SWAP2 DUP3 MSTORE PUSH32 0x17307EAB39AB6107E8899845AD3D59BD9653F200F220920489CA2B5937696C31 SWAP2 ADD PUSH1 0x40 MLOAD DUP1 SWAP2 SUB SWAP1 LOG3 POP POP POP JUMP JUMPDEST PUSH1 0x1 PUSH1 0x1 PUSH1 0xA0 SHL SUB DUP4 AND EXTCODESIZE ISZERO PUSH2 0x61C JUMPI PUSH1 0x40 MLOAD PUSH4 0xA85BD01 PUSH1 0xE1 SHL DUP2 MSTORE PUSH1 0x1 PUSH1 0x1 PUSH1 0xA0 SHL SUB DUP5 AND SWAP1 PUSH4 0x150B7A02 SWAP1 PUSH2 0xCDC SWAP1 CALLER SWAP1 DUP9 SWAP1 DUP8 SWAP1 DUP8 SWAP1 PUSH1 0x4 ADD PUSH2 0x1597 JUMP JUMPDEST PUSH1 0x20 PUSH1 0x40 MLOAD DUP1 DUP4 SUB DUP2 PUSH1 0x0 DUP8 GAS CALL SWAP3 POP POP POP DUP1 ISZERO PUSH2 0xD17 JUMPI POP PUSH1 0x40 DUP1 MLOAD PUSH1 0x1F RETURNDATASIZE SWAP1 DUP2 ADD PUSH1 0x1F NOT AND DUP3 ADD SWAP1 SWAP3 MSTORE PUSH2 0xD14 SWAP2 DUP2 ADD SWAP1 PUSH2 0x15D4 JUMP JUMPDEST PUSH1 0x1 JUMPDEST PUSH2 0xD80 JUMPI RETURNDATASIZE DUP1 DUP1 ISZERO PUSH2 0xD45 JUMPI PUSH1 0x40 MLOAD SWAP2 POP PUSH1 0x1F NOT PUSH1 0x3F RETURNDATASIZE ADD AND DUP3 ADD PUSH1 0x40 MSTORE RETURNDATASIZE DUP3 MSTORE RETURNDATASIZE PUSH1 0x0 PUSH1 0x20 DUP5 ADD RETURNDATACOPY PUSH2 0xD4A JUMP JUMPDEST PUSH1 0x60 SWAP2 POP JUMPDEST POP DUP1 MLOAD PUSH1 0x0 SUB PUSH2 0xD78 JUMPI PUSH1 0x40 MLOAD PUSH4 0x32505749 PUSH1 0xE1 SHL DUP2 MSTORE PUSH1 0x1 PUSH1 0x1 PUSH1 0xA0 SHL SUB DUP6 AND PUSH1 0x4 DUP3 ADD MSTORE PUSH1 0x24 ADD PUSH2 0x5B8 JUMP JUMPDEST DUP1 MLOAD DUP2 PUSH1 0x20 ADD REVERT JUMPDEST PUSH1 0x1 PUSH1 0x1 PUSH1 0xE0 SHL SUB NOT DUP2 AND PUSH4 0xA85BD01 PUSH1 0xE1 SHL EQ PUSH2 0xDBC JUMPI PUSH1 0x40 MLOAD PUSH4 0x32505749 PUSH1 0xE1 SHL DUP2 MSTORE PUSH1 0x1 PUSH1 0x1 PUSH1 0xA0 SHL SUB DUP6 AND PUSH1 0x4 DUP3 ADD MSTORE PUSH1 0x24 ADD PUSH2 0x5B8 JUMP JUMPDEST POP POP POP POP POP JUMP JUMPDEST PUSH1 0x60 PUSH2 0xDCE DUP3 PUSH2 0xAA2 JUMP JUMPDEST POP PUSH1 0x0 PUSH2 0xDE6 PUSH1 0x40 DUP1 MLOAD PUSH1 0x20 DUP2 ADD SWAP1 SWAP2 MSTORE PUSH1 0x0 DUP2 MSTORE SWAP1 JUMP JUMPDEST SWAP1 POP PUSH1 0x0 DUP2 MLOAD GT PUSH2 0xE06 JUMPI PUSH1 0x40 MLOAD DUP1 PUSH1 0x20 ADD PUSH1 0x40 MSTORE DUP1 PUSH1 0x0 DUP2 MSTORE POP PUSH2 0xE31 JUMP JUMPDEST DUP1 PUSH2 0xE10 DUP5 PUSH2 0xFB9 JUMP JUMPDEST PUSH1 0x40 MLOAD PUSH1 0x20 ADD PUSH2 0xE21 SWAP3 SWAP2 SWAP1 PUSH2 0x1568 JUMP JUMPDEST PUSH1 0x40 MLOAD PUSH1 0x20 DUP2 DUP4 SUB SUB DUP2 MSTORE SWAP1 PUSH1 0x40 MSTORE JUMPDEST SWAP4 SWAP3 POP POP POP JUMP JUMPDEST DUP1 DUP1 PUSH2 0xE4C JUMPI POP PUSH1 0x1 PUSH1 0x1 PUSH1 0xA0 SHL SUB DUP3 AND ISZERO ISZERO JUMPDEST ISZERO PUSH2 0xF0E JUMPI PUSH1 0x0 PUSH2 0xE5C DUP5 PUSH2 0xAA2 JUMP JUMPDEST SWAP1 POP PUSH1 0x1 PUSH1 0x1 PUSH1 0xA0 SHL SUB DUP4 AND ISZERO DUP1 ISZERO SWAP1 PUSH2 0xE88 JUMPI POP DUP3 PUSH1 0x1 PUSH1 0x1 PUSH1 0xA0 SHL SUB AND DUP2 PUSH1 0x1 PUSH1 0x1 PUSH1 0xA0 SHL SUB AND EQ ISZERO JUMPDEST DUP1 ISZERO PUSH2 0xE9B JUMPI POP PUSH2 0xE99 DUP2 DUP5 PUSH2 0xA24 JUMP JUMPDEST ISZERO JUMPDEST ISZERO PUSH2 0xEC4 JUMPI PUSH1 0x40 MLOAD PUSH4 0xA9FBF51F PUSH1 0xE0 SHL DUP2 MSTORE PUSH1 0x1 PUSH1 0x1 PUSH1 0xA0 SHL SUB DUP5 AND PUSH1 0x4 DUP3 ADD MSTORE PUSH1 0x24 ADD PUSH2 0x5B8 JUMP JUMPDEST DUP2 ISZERO PUSH2 0xF0C JUMPI DUP4 DUP6 PUSH1 0x1 PUSH1 0x1 PUSH1 0xA0 SHL SUB AND DUP3 PUSH1 0x1 PUSH1 0x1 PUSH1 0xA0 SHL SUB AND PUSH32 0x8C5BE1E5EBEC7D5BD14F71427D1E84F3DD0314C0F7B2291E5B200AC8C7C3B925 PUSH1 0x40 MLOAD PUSH1 0x40 MLOAD DUP1 SWAP2 SUB SWAP1 LOG4 JUMPDEST POP JUMPDEST POP POP PUSH1 0x0 SWAP1 DUP2 MSTORE PUSH1 0x4 PUSH1 0x20 MSTORE PUSH1 0x40 SWAP1 KECCAK256 DUP1 SLOAD PUSH1 0x1 PUSH1 0x1 PUSH1 0xA0 SHL SUB NOT AND PUSH1 0x1 PUSH1 0x1 PUSH1 0xA0 SHL SUB SWAP3 SWAP1 SWAP3 AND SWAP2 SWAP1 SWAP2 OR SWAP1 SSTORE JUMP JUMPDEST PUSH2 0xF49 DUP4 DUP4 DUP4 PUSH2 0x104C JUMP JUMPDEST PUSH2 0x74A JUMPI PUSH1 0x1 PUSH1 0x1 PUSH1 0xA0 SHL SUB DUP4 AND PUSH2 0xF77 JUMPI PUSH1 0x40 MLOAD PUSH4 0x7E273289 PUSH1 0xE0 SHL DUP2 MSTORE PUSH1 0x4 DUP2 ADD DUP3 SWAP1 MSTORE PUSH1 0x24 ADD PUSH2 0x5B8 JUMP JUMPDEST PUSH1 0x40 MLOAD PUSH4 0x177E802F PUSH1 0xE0 SHL DUP2 MSTORE PUSH1 0x1 PUSH1 0x1 PUSH1 0xA0 SHL SUB DUP4 AND PUSH1 0x4 DUP3 ADD MSTORE PUSH1 0x24 DUP2 ADD DUP3 SWAP1 MSTORE PUSH1 0x44 ADD PUSH2 0x5B8 JUMP JUMPDEST PUSH2 0xFAC DUP4 DUP4 PUSH2 0x10AF JUMP JUMPDEST PUSH2 0x74A PUSH1 0x0 DUP5 DUP5 DUP5 PUSH2 0xC9A JUMP JUMPDEST PUSH1 0x60 PUSH1 0x0 PUSH2 0xFC6 DUP4 PUSH2 0x1114 JUMP JUMPDEST PUSH1 0x1 ADD SWAP1 POP PUSH1 0x0 DUP2 PUSH8 0xFFFFFFFFFFFFFFFF DUP2 GT ISZERO PUSH2 0xFE6 JUMPI PUSH2 0xFE6 PUSH2 0x13EB JUMP JUMPDEST PUSH1 0x40 MLOAD SWAP1 DUP1 DUP3 MSTORE DUP1 PUSH1 0x1F ADD PUSH1 0x1F NOT AND PUSH1 0x20 ADD DUP3 ADD PUSH1 0x40 MSTORE DUP1 ISZERO PUSH2 0x1010 JUMPI PUSH1 0x20 DUP3 ADD DUP2 DUP1 CALLDATASIZE DUP4 CALLDATACOPY ADD SWAP1 POP JUMPDEST POP SWAP1 POP DUP2 DUP2 ADD PUSH1 0x20 ADD JUMPDEST PUSH1 0x0 NOT ADD PUSH16 0x181899199A1A9B1B9C1CB0B131B232B3 PUSH1 0x81 SHL PUSH1 0xA DUP7 MOD BYTE DUP2 MSTORE8 PUSH1 0xA DUP6 DIV SWAP5 POP DUP5 PUSH2 0x101A JUMPI POP SWAP4 SWAP3 POP POP POP JUMP JUMPDEST PUSH1 0x0 PUSH1 0x1 PUSH1 0x1 PUSH1 0xA0 SHL SUB DUP4 AND ISZERO DUP1 ISZERO SWAP1 PUSH2 0xA1C JUMPI POP DUP3 PUSH1 0x1 PUSH1 0x1 PUSH1 0xA0 SHL SUB AND DUP5 PUSH1 0x1 PUSH1 0x1 PUSH1 0xA0 SHL SUB AND EQ DUP1 PUSH2 0x1086 JUMPI POP PUSH2 0x1086 DUP5 DUP5 PUSH2 0xA24 JUMP JUMPDEST DUP1 PUSH2 0xA1C JUMPI POP POP PUSH1 0x0 SWAP1 DUP2 MSTORE PUSH1 0x4 PUSH1 0x20 MSTORE PUSH1 0x40 SWAP1 KECCAK256 SLOAD PUSH1 0x1 PUSH1 0x1 PUSH1 0xA0 SHL SUB SWAP1 DUP2 AND SWAP2 AND EQ SWAP2 SWAP1 POP JUMP JUMPDEST PUSH1 0x1 PUSH1 0x1 PUSH1 0xA0 SHL SUB DUP3 AND PUSH2 0x10D9 JUMPI PUSH1 0x40 MLOAD PUSH4 0x32505749 PUSH1 0xE1 SHL DUP2 MSTORE PUSH1 0x0 PUSH1 0x4 DUP3 ADD MSTORE PUSH1 0x24 ADD PUSH2 0x5B8 JUMP JUMPDEST PUSH1 0x0 PUSH2 0x10E7 DUP4 DUP4 PUSH1 0x0 PUSH2 0xAE8 JUMP JUMPDEST SWAP1 POP PUSH1 0x1 PUSH1 0x1 PUSH1 0xA0 SHL SUB DUP2 AND ISZERO PUSH2 0x74A JUMPI PUSH1 0x40 MLOAD PUSH4 0x39E35637 PUSH1 0xE1 SHL DUP2 MSTORE PUSH1 0x0 PUSH1 0x4 DUP3 ADD MSTORE PUSH1 0x24 ADD PUSH2 0x5B8 JUMP JUMPDEST PUSH1 0x0 DUP1 PUSH19 0x184F03E93FF9F4DAA797ED6E38ED64BF6A1F01 PUSH1 0x40 SHL DUP4 LT PUSH2 0x1153 JUMPI PUSH19 0x184F03E93FF9F4DAA797ED6E38ED64BF6A1F01 PUSH1 0x40 SHL DUP4 DIV SWAP3 POP PUSH1 0x40 ADD JUMPDEST PUSH14 0x4EE2D6D415B85ACEF8100000000 DUP4 LT PUSH2 0x117F JUMPI PUSH14 0x4EE2D6D415B85ACEF8100000000 DUP4 DIV SWAP3 POP PUSH1 0x20 ADD JUMPDEST PUSH7 0x2386F26FC10000 DUP4 LT PUSH2 0x119D JUMPI PUSH7 0x2386F26FC10000 DUP4 DIV SWAP3 POP PUSH1 0x10 ADD JUMPDEST PUSH4 0x5F5E100 DUP4 LT PUSH2 0x11B5 JUMPI PUSH4 0x5F5E100 DUP4 DIV SWAP3 POP PUSH1 0x8 ADD JUMPDEST PUSH2 0x2710 DUP4 LT PUSH2 0x11C9 JUMPI PUSH2 0x2710 DUP4 DIV SWAP3 POP PUSH1 0x4 ADD JUMPDEST PUSH1 0x64 DUP4 LT PUSH2 0x11DB JUMPI PUSH1 0x64 DUP4 DIV SWAP3 POP PUSH1 0x2 ADD JUMPDEST PUSH1 0xA DUP4 LT PUSH2 0x4C2 JUMPI PUSH1 0x1 ADD SWAP3 SWAP2 POP POP JUMP JUMPDEST PUSH1 0x1 PUSH1 0x1 PUSH1 0xE0 SHL SUB NOT DUP2 AND DUP2 EQ PUSH2 0x1202 JUMPI PUSH1 0x0 DUP1 REVERT JUMPDEST POP JUMP JUMPDEST PUSH1 0x0 PUSH1 0x20 DUP3 DUP5 SUB SLT ISZERO PUSH2 0x1217 JUMPI PUSH1 0x0 DUP1 REVERT JUMPDEST DUP2 CALLDATALOAD PUSH2 0xE31 DUP2 PUSH2 0x11EC JUMP JUMPDEST PUSH1 0x0 JUMPDEST DUP4 DUP2 LT ISZERO PUSH2 0x123D JUMPI DUP2 DUP2 ADD MLOAD DUP4 DUP3 ADD MSTORE PUSH1 0x20 ADD PUSH2 0x1225 JUMP JUMPDEST POP POP PUSH1 0x0 SWAP2 ADD MSTORE JUMP JUMPDEST PUSH1 0x0 DUP2 MLOAD DUP1 DUP5 MSTORE PUSH2 0x125E DUP2 PUSH1 0x20 DUP7 ADD PUSH1 0x20 DUP7 ADD PUSH2 0x1222 JUMP JUMPDEST PUSH1 0x1F ADD PUSH1 0x1F NOT AND SWAP3 SWAP1 SWAP3 ADD PUSH1 0x20 ADD SWAP3 SWAP2 POP POP JUMP JUMPDEST PUSH1 0x20 DUP2 MSTORE PUSH1 0x0 PUSH2 0xE31 PUSH1 0x20 DUP4 ADD DUP5 PUSH2 0x1246 JUMP JUMPDEST PUSH1 0x0 PUSH1 0x20 DUP3 DUP5 SUB SLT ISZERO PUSH2 0x1297 JUMPI PUSH1 0x0 DUP1 REVERT JUMPDEST POP CALLDATALOAD SWAP2 SWAP1 POP JUMP JUMPDEST DUP1 CALLDATALOAD PUSH1 0x1 PUSH1 0x1 PUSH1 0xA0 SHL SUB DUP2 AND DUP2 EQ PUSH2 0x12B5 JUMPI PUSH1 0x0 DUP1 REVERT JUMPDEST SWAP2 SWAP1 POP JUMP JUMPDEST PUSH1 0x0 DUP1 PUSH1 0x40 DUP4 DUP6 SUB SLT ISZERO PUSH2 0x12CD JUMPI PUSH1 0x0 DUP1 REVERT JUMPDEST PUSH2 0x12D6 DUP4 PUSH2 0x129E JUMP JUMPDEST SWAP5 PUSH1 0x20 SWAP4 SWAP1 SWAP4 ADD CALLDATALOAD SWAP4 POP POP POP JUMP JUMPDEST PUSH1 0x0 DUP1 PUSH1 0x0 PUSH1 0x60 DUP5 DUP7 SUB SLT ISZERO PUSH2 0x12F9 JUMPI PUSH1 0x0 DUP1 REVERT JUMPDEST PUSH2 0x1302 DUP5 PUSH2 0x129E JUMP JUMPDEST SWAP3 POP PUSH2 0x1310 PUSH1 0x20 DUP6 ADD PUSH2 0x129E JUMP JUMPDEST SWAP2 POP PUSH1 0x40 DUP5 ADD CALLDATALOAD SWAP1 POP SWAP3 POP SWAP3 POP SWAP3 JUMP JUMPDEST DUP1 CALLDATALOAD DUP1 ISZERO ISZERO DUP2 EQ PUSH2 0x12B5 JUMPI PUSH1 0x0 DUP1 REVERT JUMPDEST PUSH1 0x0 DUP1 PUSH1 0x0 DUP1 PUSH1 0x0 DUP1 PUSH1 0xC0 DUP8 DUP10 SUB SLT ISZERO PUSH2 0x1349 JUMPI PUSH1 0x0 DUP1 REVERT JUMPDEST DUP7 CALLDATALOAD SWAP6 POP PUSH2 0x1359 PUSH1 0x20 DUP9 ADD PUSH2 0x1320 JUMP JUMPDEST SWAP5 POP PUSH2 0x1367 PUSH1 0x40 DUP9 ADD PUSH2 0x1320 JUMP JUMPDEST SWAP4 POP PUSH2 0x1375 PUSH1 0x60 DUP9 ADD PUSH2 0x1320 JUMP JUMPDEST SWAP3 POP PUSH2 0x1383 PUSH1 0x80 DUP9 ADD PUSH2 0x1320 JUMP JUMPDEST SWAP2 POP PUSH2 0x1391 PUSH1 0xA0 DUP9 ADD PUSH2 0x1320 JUMP JUMPDEST SWAP1 POP SWAP3 SWAP6 POP SWAP3 SWAP6 POP SWAP3 SWAP6 JUMP JUMPDEST PUSH1 0x0 PUSH1 0x20 DUP3 DUP5 SUB SLT ISZERO PUSH2 0x13AF JUMPI PUSH1 0x0 DUP1 REVERT JUMPDEST PUSH2 0xE31 DUP3 PUSH2 0x129E JUMP JUMPDEST PUSH1 0x0 DUP1 PUSH1 0x40 DUP4 DUP6 SUB SLT ISZERO PUSH2 0x13CB JUMPI PUSH1 0x0 DUP1 REVERT JUMPDEST PUSH2 0x13D4 DUP4 PUSH2 0x129E JUMP JUMPDEST SWAP2 POP PUSH2 0x13E2 PUSH1 0x20 DUP5 ADD PUSH2 0x1320 JUMP JUMPDEST SWAP1 POP SWAP3 POP SWAP3 SWAP1 POP JUMP JUMPDEST PUSH4 0x4E487B71 PUSH1 0xE0 SHL PUSH1 0x0 MSTORE PUSH1 0x41 PUSH1 0x4 MSTORE PUSH1 0x24 PUSH1 0x0 REVERT JUMPDEST PUSH1 0x0 DUP1 PUSH1 0x0 DUP1 PUSH1 0x80 DUP6 DUP8 SUB SLT ISZERO PUSH2 0x1417 JUMPI PUSH1 0x0 DUP1 REVERT JUMPDEST PUSH2 0x1420 DUP6 PUSH2 0x129E JUMP JUMPDEST SWAP4 POP PUSH2 0x142E PUSH1 0x20 DUP7 ADD PUSH2 0x129E JUMP JUMPDEST SWAP3 POP PUSH1 0x40 DUP6 ADD CALLDATALOAD SWAP2 POP PUSH1 0x60 DUP6 ADD CALLDATALOAD PUSH8 0xFFFFFFFFFFFFFFFF DUP1 DUP3 GT ISZERO PUSH2 0x1452 JUMPI PUSH1 0x0 DUP1 REVERT JUMPDEST DUP2 DUP8 ADD SWAP2 POP DUP8 PUSH1 0x1F DUP4 ADD SLT PUSH2 0x1466 JUMPI PUSH1 0x0 DUP1 REVERT JUMPDEST DUP2 CALLDATALOAD DUP2 DUP2 GT ISZERO PUSH2 0x1478 JUMPI PUSH2 0x1478 PUSH2 0x13EB JUMP JUMPDEST PUSH1 0x40 MLOAD PUSH1 0x1F DUP3 ADD PUSH1 0x1F NOT SWAP1 DUP2 AND PUSH1 0x3F ADD AND DUP2 ADD SWAP1 DUP4 DUP3 GT DUP2 DUP4 LT OR ISZERO PUSH2 0x14A0 JUMPI PUSH2 0x14A0 PUSH2 0x13EB JUMP JUMPDEST DUP2 PUSH1 0x40 MSTORE DUP3 DUP2 MSTORE DUP11 PUSH1 0x20 DUP5 DUP8 ADD ADD GT ISZERO PUSH2 0x14B9 JUMPI PUSH1 0x0 DUP1 REVERT JUMPDEST DUP3 PUSH1 0x20 DUP7 ADD PUSH1 0x20 DUP4 ADD CALLDATACOPY PUSH1 0x0 PUSH1 0x20 DUP5 DUP4 ADD ADD MSTORE DUP1 SWAP6 POP POP POP POP POP POP SWAP3 SWAP6 SWAP2 SWAP5 POP SWAP3 POP JUMP JUMPDEST PUSH1 0x0 DUP1 PUSH1 0x40 DUP4 DUP6 SUB SLT ISZERO PUSH2 0x14F0 JUMPI PUSH1 0x0 DUP1 REVERT JUMPDEST PUSH2 0x14F9 DUP4 PUSH2 0x129E JUMP JUMPDEST SWAP2 POP PUSH2 0x13E2 PUSH1 0x20 DUP5 ADD PUSH2 0x129E JUMP JUMPDEST PUSH1 0x1 DUP2 DUP2 SHR SWAP1 DUP3 AND DUP1 PUSH2 0x151B JUMPI PUSH1 0x7F DUP3 AND SWAP2 POP JUMPDEST PUSH1 0x20 DUP3 LT DUP2 SUB PUSH2 0x153B JUMPI PUSH4 0x4E487B71 PUSH1 0xE0 SHL PUSH1 0x0 MSTORE PUSH1 0x22 PUSH1 0x4 MSTORE PUSH1 0x24 PUSH1 0x0 REVERT JUMPDEST POP SWAP2 SWAP1 POP JUMP JUMPDEST PUSH1 0x0 PUSH1 0x1 DUP3 ADD PUSH2 0x1561 JUMPI PUSH4 0x4E487B71 PUSH1 0xE0 SHL PUSH1 0x0 MSTORE PUSH1 0x11 PUSH1 0x4 MSTORE PUSH1 0x24 PUSH1 0x0 REVERT JUMPDEST POP PUSH1 0x1 ADD SWAP1 JUMP JUMPDEST PUSH1 0x0 DUP4 MLOAD PUSH2 0x157A DUP2 DUP5 PUSH1 0x20 DUP9 ADD PUSH2 0x1222 JUMP JUMPDEST DUP4 MLOAD SWAP1 DUP4 ADD SWAP1 PUSH2 0x158E DUP2 DUP4 PUSH1 0x20 DUP9 ADD PUSH2 0x1222 JUMP JUMPDEST ADD SWAP5 SWAP4 POP POP POP POP JUMP JUMPDEST PUSH1 0x1 PUSH1 0x1 PUSH1 0xA0 SHL SUB DUP6 DUP2 AND DUP3 MSTORE DUP5 AND PUSH1 0x20 DUP3 ADD MSTORE PUSH1 0x40 DUP2 ADD DUP4 SWAP1 MSTORE PUSH1 0x80 PUSH1 0x60 DUP3 ADD DUP2 SWAP1 MSTORE PUSH1 0x0 SWAP1 PUSH2 0x15CA SWAP1 DUP4 ADD DUP5 PUSH2 0x1246 JUMP JUMPDEST SWAP7 SWAP6 POP POP POP POP POP POP JUMP JUMPDEST PUSH1 0x0 PUSH1 0x20 DUP3 DUP5 SUB SLT ISZERO PUSH2 0x15E6 JUMPI PUSH1 0x0 DUP1 REVERT JUMPDEST DUP2 MLOAD PUSH2 0xE31 DUP2 PUSH2 0x11EC JUMP INVALID LOG2 PUSH5 0x6970667358 0x22 SLT KECCAK256 NUMBER SWAP7 JUMPI PUSH24 0xEDA77F087EF578A057FA04DCE2A4FC8E0B0A493F2C629134 PUSH30 0xC561E664736F6C6343000814003300000000000000000000000000000000 ",
          "linkReferences": {}
        },
        "methodIdentifiers": {
          "Characteristics(uint256)": "22fe87cf",
          "approve(address,uint256)": "095ea7b3",
          "balanceOf(address)": "70a08231",
          "choosingRamContract()": "76886955",
          "getApproved(uint256)": "081812fc",
          "getCharacteristics(uint256)": "b0382211",
          "getNextTokenId()": "caa0f92a",
          "isApprovedForAll(address,address)": "e985e9c5",
          "mintRamNFT(address)": "86980d0c",
          "name()": "06fdde03",
          "organiser()": "7e537486",
          "ownerOf(uint256)": "6352211e",
          "safeTransferFrom(address,address,uint256)": "42842e0e",
          "safeTransferFrom(address,address,uint256,bytes)": "b88d4fde",
          "setApprovalForAll(address,bool)": "a22cb465",
          "setChoosingRamContract(address)": "5bb19040",
          "supportsInterface(bytes4)": "01ffc9a7",
          "symbol()": "95d89b41",
          "tokenCounter()": "d082e381",
          "tokenURI(uint256)": "c87b56dd",
          "transferFrom(address,address,uint256)": "23b872dd",
          "updateCharacteristics(uint256,bool,bool,bool,bool,bool)": "317d7ff5"
        }
      }
    }
  }
}