{
  "src/Dussehra.sol": {
    "Dussehra": {
      "abi": [
        {
          "type": "constructor",
          "inputs": [
            {
              "name": "_entranceFee",
              "type": "uint256",
              "internalType": "uint256"
            },
            {
              "name": "_choosingRamContract",
              "type": "address",
              "internalType": "address"
            },
            {
              "name": "_ramNFT",
              "type": "address",
              "internalType": "address"
            }
          ],
          "stateMutability": "nonpayable"
        },
        {
          "type": "function",
          "name": "IsRavanKilled",
          "inputs": [],
          "outputs": [
            {
              "name": "",
              "type": "bool",
              "internalType": "bool"
            }
          ],
          "stateMutability": "view"
        },
        {
          "type": "function",
          "name": "SelectedRam",
          "inputs": [],
          "outputs": [
            {
              "name": "",
              "type": "address",
              "internalType": "address"
            }
          ],
          "stateMutability": "view"
        },
        {
          "type": "function",
          "name": "WantToBeLikeRam",
          "inputs": [
            {
              "name": "",
              "type": "uint256",
              "internalType": "uint256"
            }
          ],
          "outputs": [
            {
              "name": "",
              "type": "address",
              "internalType": "address"
            }
          ],
          "stateMutability": "view"
        },
        {
          "type": "function",
          "name": "choosingRamContract",
          "inputs": [],
          "outputs": [
            {
              "name": "",
              "type": "address",
              "internalType": "contract ChoosingRam"
            }
          ],
          "stateMutability": "view"
        },
        {
          "type": "function",
          "name": "enterPeopleWhoLikeRam",
          "inputs": [],
          "outputs": [],
          "stateMutability": "payable"
        },
        {
          "type": "function",
          "name": "entranceFee",
          "inputs": [],
          "outputs": [
            {
              "name": "",
              "type": "uint256",
              "internalType": "uint256"
            }
          ],
          "stateMutability": "view"
        },
        {
          "type": "function",
          "name": "killRavana",
          "inputs": [],
          "outputs": [],
          "stateMutability": "nonpayable"
        },
        {
          "type": "function",
          "name": "organiser",
          "inputs": [],
          "outputs": [
            {
              "name": "",
              "type": "address",
              "internalType": "address"
            }
          ],
          "stateMutability": "view"
        },
        {
          "type": "function",
          "name": "peopleLikeRam",
          "inputs": [
            {
              "name": "competitor",
              "type": "address",
              "internalType": "address"
            }
          ],
          "outputs": [
            {
              "name": "isPresent",
              "type": "bool",
              "internalType": "bool"
            }
          ],
          "stateMutability": "view"
        },
        {
          "type": "function",
          "name": "ramNFT",
          "inputs": [],
          "outputs": [
            {
              "name": "",
              "type": "address",
              "internalType": "contract RamNFT"
            }
          ],
          "stateMutability": "view"
        },
        {
          "type": "function",
          "name": "totalAmountGivenToRam",
          "inputs": [],
          "outputs": [
            {
              "name": "",
              "type": "uint256",
              "internalType": "uint256"
            }
          ],
          "stateMutability": "view"
        },
        {
          "type": "function",
          "name": "withdraw",
          "inputs": [],
          "outputs": [],
          "stateMutability": "nonpayable"
        },
        {
          "type": "event",
          "name": "PeopleWhoLikeRamIsEntered",
          "inputs": [
            {
              "name": "competitor",
              "type": "address",
              "indexed": false,
              "internalType": "address"
            }
          ],
          "anonymous": false
        },
        {
          "type": "error",
          "name": "Dussehra__AlreadyClaimedAmount",
          "inputs": []
        },
        {
          "type": "error",
          "name": "Dussehra__AlreadyPresent",
          "inputs": []
        },
        {
          "type": "error",
          "name": "Dussehra__MahuratIsFinished",
          "inputs": []
        },
        {
          "type": "error",
          "name": "Dussehra__MahuratIsNotStart",
          "inputs": []
        },
        {
          "type": "error",
          "name": "Dussehra__NotEqualToEntranceFee",
          "inputs": []
        }
      ],
      "userdoc": {},
      "devdoc": {},
      "evm": {
        "bytecode": {
          "object": "608060405234801561001057600080fd5b50604051610a39380380610a3983398101604081905261002f9161008d565b600192909255600280546001600160a01b03199081163317909155600480546001600160a01b03948516908316179055600780549290931691161790556100c9565b80516001600160a01b038116811461008857600080fd5b919050565b6000806000606084860312156100a257600080fd5b835192506100b260208501610071565b91506100c060408501610071565b90509250925092565b610961806100d86000396000f3fe6080604052600436106100a75760003560e01c80637153b54a116100645780637153b54a1461019b57806376886955146101bb5780637e537486146101db578063c640dc2e146101fb578063dea3d2301461021b578063f44516391461022357600080fd5b806302ed9ae4146100ac5780633ccfd60b146100f15780635bbc960e146101085780635e64aef81461012c578063649677e1146101645780636b41b9f31461017a575b600080fd5b3480156100b857600080fd5b506100dc6100c7366004610862565b60056020526000908152604090205460ff1681565b60405190151581526020015b60405180910390f35b3480156100fd57600080fd5b50610106610238565b005b34801561011457600080fd5b5061011e60065481565b6040519081526020016100e8565b34801561013857600080fd5b5060045461014c906001600160a01b031681565b6040516001600160a01b0390911681526020016100e8565b34801561017057600080fd5b5061011e60015481565b34801561018657600080fd5b506004546100dc90600160a01b900460ff1681565b3480156101a757600080fd5b5061014c6101b6366004610886565b6104de565b3480156101c757600080fd5b5060075461014c906001600160a01b031681565b3480156101e757600080fd5b5060025461014c906001600160a01b031681565b34801561020757600080fd5b5060035461014c906001600160a01b031681565b610106610508565b34801561022f57600080fd5b5061010661064d565b600760009054906101000a90046001600160a01b03166001600160a01b031663ff5b71656040518163ffffffff1660e01b8152600401602060405180830381865afa15801561028b573d6000803e3d6000fd5b505050506040513d601f19601f820116820180604052508101906102af919061089f565b6102fb5760405162461bcd60e51b815260206004820152601860248201527752616d206973206e6f742073656c6563746564207965742160401b60448201526064015b60405180910390fd5b60075460408051633d0272a360e11b8152905133926001600160a01b031691637a04e5469160048083019260209291908290030181865afa158015610344573d6000803e3d6000fd5b505050506040513d601f19601f8201168201806040525081019061036891906108c1565b6001600160a01b0316146103be5760405162461bcd60e51b815260206004820181905260248201527f4f6e6c792052616d2063616e2063616c6c20746869732066756e6374696f6e2160448201526064016102f2565b600454600160a01b900460ff166104175760405162461bcd60e51b815260206004820152601860248201527f526176616e206973206e6f74206b696c6c65642079657421000000000000000060448201526064016102f2565b60065460000361043a5760405163f5fe192760e01b815260040160405180910390fd5b600654604051600090339083908381818185875af1925050503d806000811461047f576040519150601f19603f3d011682016040523d82523d6000602084013e610484565b606091505b50509050806104d55760405162461bcd60e51b815260206004820152601b60248201527f4661696c656420746f2073656e64206d6f6e657920746f2052616d000000000060448201526064016102f2565b50506000600655565b600081815481106104ee57600080fd5b6000918252602090912001546001600160a01b0316905081565b600154341461052a57604051632b272c7360e21b815260040160405180910390fd5b3360009081526005602052604090205460ff16151560010361055f576040516339e6729360e01b815260040160405180910390fd5b33600081815260056020526040808220805460ff19166001908117909155825490810183559180527f290decd9548b62a8d60345a988386fc84ba6bc95484008f6362f93160ef3e56390910180546001600160a01b031916831790556004805491516321a6034360e21b8152908101929092526001600160a01b0316906386980d0c90602401600060405180830381600087803b1580156105ff57600080fd5b505af1158015610613573d6000803e3d6000fd5b50506040513381527f8d881844768992bf595912c9050d3f93aeb487e6a69a62a7d7549e2839b557a89250602001905060405180910390a1565b600760009054906101000a90046001600160a01b03166001600160a01b031663ff5b71656040518163ffffffff1660e01b8152600401602060405180830381865afa1580156106a0573d6000803e3d6000fd5b505050506040513d601f19601f820116820180604052508101906106c4919061089f565b61070b5760405162461bcd60e51b815260206004820152601860248201527752616d206973206e6f742073656c6563746564207965742160401b60448201526064016102f2565b636709bb7d421015610730576040516302bb173d60e31b815260040160405180910390fd5b63670b0dc54211156107555760405163cc0c26a560e01b815260040160405180910390fd5b6004805460ff60a01b1916600160a01b17905560015460008054909161077a916108de565b905060646107898260326108de565b6107939190610909565b60068190556002546040516000926001600160a01b0390921691908381818185875af1925050503d80600081146107e6576040519150601f19603f3d011682016040523d82523d6000602084013e6107eb565b606091505b50509050806108465760405162461bcd60e51b815260206004820152602160248201527f4661696c656420746f2073656e64206d6f6e657920746f206f7267616e6973656044820152603960f91b60648201526084016102f2565b5050565b6001600160a01b038116811461085f57600080fd5b50565b60006020828403121561087457600080fd5b813561087f8161084a565b9392505050565b60006020828403121561089857600080fd5b5035919050565b6000602082840312156108b157600080fd5b8151801515811461087f57600080fd5b6000602082840312156108d357600080fd5b815161087f8161084a565b808202811582820484141761090357634e487b7160e01b600052601160045260246000fd5b92915050565b60008261092657634e487b7160e01b600052601260045260246000fd5b50049056fea26469706673582212202105c659b91856fb9cf4c5b80d7762b03b5c5c6700d3295afb27d31f07406ba864736f6c63430008140033",
          "opcodes": "PUSH1 0x80 PUSH1 0x40 MSTORE CALLVALUE DUP1 ISZERO PUSH2 0x10 JUMPI PUSH1 0x0 DUP1 REVERT JUMPDEST POP PUSH1 0x40 MLOAD PUSH2 0xA39 CODESIZE SUB DUP1 PUSH2 0xA39 DUP4 CODECOPY DUP2 ADD PUSH1 0x40 DUP2 SWAP1 MSTORE PUSH2 0x2F SWAP2 PUSH2 0x8D JUMP JUMPDEST PUSH1 0x1 SWAP3 SWAP1 SWAP3 SSTORE PUSH1 0x2 DUP1 SLOAD PUSH1 0x1 PUSH1 0x1 PUSH1 0xA0 SHL SUB NOT SWAP1 DUP2 AND CALLER OR SWAP1 SWAP2 SSTORE PUSH1 0x4 DUP1 SLOAD PUSH1 0x1 PUSH1 0x1 PUSH1 0xA0 SHL SUB SWAP5 DUP6 AND SWAP1 DUP4 AND OR SWAP1 SSTORE PUSH1 0x7 DUP1 SLOAD SWAP3 SWAP1 SWAP4 AND SWAP2 AND OR SWAP1 SSTORE PUSH2 0xC9 JUMP JUMPDEST DUP1 MLOAD PUSH1 0x1 PUSH1 0x1 PUSH1 0xA0 SHL SUB DUP2 AND DUP2 EQ PUSH2 0x88 JUMPI PUSH1 0x0 DUP1 REVERT JUMPDEST SWAP2 SWAP1 POP JUMP JUMPDEST PUSH1 0x0 DUP1 PUSH1 0x0 PUSH1 0x60 DUP5 DUP7 SUB SLT ISZERO PUSH2 0xA2 JUMPI PUSH1 0x0 DUP1 REVERT JUMPDEST DUP4 MLOAD SWAP3 POP PUSH2 0xB2 PUSH1 0x20 DUP6 ADD PUSH2 0x71 JUMP JUMPDEST SWAP2 POP PUSH2 0xC0 PUSH1 0x40 DUP6 ADD PUSH2 0x71 JUMP JUMPDEST SWAP1 POP SWAP3 POP SWAP3 POP SWAP3 JUMP JUMPDEST PUSH2 0x961 DUP1 PUSH2 0xD8 PUSH1 0x0 CODECOPY PUSH1 0x0 RETURN INVALID PUSH1 0x80 PUSH1 0x40 MSTORE PUSH1 0x4 CALLDATASIZE LT PUSH2 0xA7 JUMPI PUSH1 0x0 CALLDATALOAD PUSH1 0xE0 SHR DUP1 PUSH4 0x7153B54A GT PUSH2 0x64 JUMPI DUP1 PUSH4 0x7153B54A EQ PUSH2 0x19B JUMPI DUP1 PUSH4 0x76886955 EQ PUSH2 0x1BB JUMPI DUP1 PUSH4 0x7E537486 EQ PUSH2 0x1DB JUMPI DUP1 PUSH4 0xC640DC2E EQ PUSH2 0x1FB JUMPI DUP1 PUSH4 0xDEA3D230 EQ PUSH2 0x21B JUMPI DUP1 PUSH4 0xF4451639 EQ PUSH2 0x223 JUMPI PUSH1 0x0 DUP1 REVERT JUMPDEST DUP1 PUSH4 0x2ED9AE4 EQ PUSH2 0xAC JUMPI DUP1 PUSH4 0x3CCFD60B EQ PUSH2 0xF1 JUMPI DUP1 PUSH4 0x5BBC960E EQ PUSH2 0x108 JUMPI DUP1 PUSH4 0x5E64AEF8 EQ PUSH2 0x12C JUMPI DUP1 PUSH4 0x649677E1 EQ PUSH2 0x164 JUMPI DUP1 PUSH4 0x6B41B9F3 EQ PUSH2 0x17A JUMPI JUMPDEST PUSH1 0x0 DUP1 REVERT JUMPDEST CALLVALUE DUP1 ISZERO PUSH2 0xB8 JUMPI PUSH1 0x0 DUP1 REVERT JUMPDEST POP PUSH2 0xDC PUSH2 0xC7 CALLDATASIZE PUSH1 0x4 PUSH2 0x862 JUMP JUMPDEST PUSH1 0x5 PUSH1 0x20 MSTORE PUSH1 0x0 SWAP1 DUP2 MSTORE PUSH1 0x40 SWAP1 KECCAK256 SLOAD PUSH1 0xFF AND DUP2 JUMP JUMPDEST PUSH1 0x40 MLOAD SWAP1 ISZERO ISZERO DUP2 MSTORE PUSH1 0x20 ADD JUMPDEST PUSH1 0x40 MLOAD DUP1 SWAP2 SUB SWAP1 RETURN JUMPDEST CALLVALUE DUP1 ISZERO PUSH2 0xFD JUMPI PUSH1 0x0 DUP1 REVERT JUMPDEST POP PUSH2 0x106 PUSH2 0x238 JUMP JUMPDEST STOP JUMPDEST CALLVALUE DUP1 ISZERO PUSH2 0x114 JUMPI PUSH1 0x0 DUP1 REVERT JUMPDEST POP PUSH2 0x11E PUSH1 0x6 SLOAD DUP2 JUMP JUMPDEST PUSH1 0x40 MLOAD SWAP1 DUP2 MSTORE PUSH1 0x20 ADD PUSH2 0xE8 JUMP JUMPDEST CALLVALUE DUP1 ISZERO PUSH2 0x138 JUMPI PUSH1 0x0 DUP1 REVERT JUMPDEST POP PUSH1 0x4 SLOAD PUSH2 0x14C SWAP1 PUSH1 0x1 PUSH1 0x1 PUSH1 0xA0 SHL SUB AND DUP2 JUMP JUMPDEST PUSH1 0x40 MLOAD PUSH1 0x1 PUSH1 0x1 PUSH1 0xA0 SHL SUB SWAP1 SWAP2 AND DUP2 MSTORE PUSH1 0x20 ADD PUSH2 0xE8 JUMP JUMPDEST CALLVALUE DUP1 ISZERO PUSH2 0x170 JUMPI PUSH1 0x0 DUP1 REVERT JUMPDEST POP PUSH2 0x11E PUSH1 0x1 SLOAD DUP2 JUMP JUMPDEST CALLVALUE DUP1 ISZERO PUSH2 0x186 JUMPI PUSH1 0x0 DUP1 REVERT JUMPDEST POP PUSH1 0x4 SLOAD PUSH2 0xDC SWAP1 PUSH1 0x1 PUSH1 0xA0 SHL SWAP1 DIV PUSH1 0xFF AND DUP2 JUMP JUMPDEST CALLVALUE DUP1 ISZERO PUSH2 0x1A7 JUMPI PUSH1 0x0 DUP1 REVERT JUMPDEST POP PUSH2 0x14C PUSH2 0x1B6 CALLDATASIZE PUSH1 0x4 PUSH2 0x886 JUMP JUMPDEST PUSH2 0x4DE JUMP JUMPDEST CALLVALUE DUP1 ISZERO PUSH2 0x1C7 JUMPI PUSH1 0x0 DUP1 REVERT JUMPDEST POP PUSH1 0x7 SLOAD PUSH2 0x14C SWAP1 PUSH1 0x1 PUSH1 0x1 PUSH1 0xA0 SHL SUB AND DUP2 JUMP JUMPDEST CALLVALUE DUP1 ISZERO PUSH2 0x1E7 JUMPI PUSH1 0x0 DUP1 REVERT JUMPDEST POP PUSH1 0x2 SLOAD PUSH2 0x14C SWAP1 PUSH1 0x1 PUSH1 0x1 PUSH1 0xA0 SHL SUB AND DUP2 JUMP JUMPDEST CALLVALUE DUP1 ISZERO PUSH2 0x207 JUMPI PUSH1 0x0 DUP1 REVERT JUMPDEST POP PUSH1 0x3 SLOAD PUSH2 0x14C SWAP1 PUSH1 0x1 PUSH1 0x1 PUSH1 0xA0 SHL SUB AND DUP2 JUMP JUMPDEST PUSH2 0x106 PUSH2 0x508 JUMP JUMPDEST CALLVALUE DUP1 ISZERO PUSH2 0x22F JUMPI PUSH1 0x0 DUP1 REVERT JUMPDEST POP PUSH2 0x106 PUSH2 0x64D JUMP JUMPDEST PUSH1 0x7 PUSH1 0x0 SWAP1 SLOAD SWAP1 PUSH2 0x100 EXP SWAP1 DIV PUSH1 0x1 PUSH1 0x1 PUSH1 0xA0 SHL SUB AND PUSH1 0x1 PUSH1 0x1 PUSH1 0xA0 SHL SUB AND PUSH4 0xFF5B7165 PUSH1 0x40 MLOAD DUP2 PUSH4 0xFFFFFFFF AND PUSH1 0xE0 SHL DUP2 MSTORE PUSH1 0x4 ADD PUSH1 0x20 PUSH1 0x40 MLOAD DUP1 DUP4 SUB DUP2 DUP7 GAS STATICCALL ISZERO DUP1 ISZERO PUSH2 0x28B JUMPI RETURNDATASIZE PUSH1 0x0 DUP1 RETURNDATACOPY RETURNDATASIZE PUSH1 0x0 REVERT JUMPDEST POP POP POP POP PUSH1 0x40 MLOAD RETURNDATASIZE PUSH1 0x1F NOT PUSH1 0x1F DUP3 ADD AND DUP3 ADD DUP1 PUSH1 0x40 MSTORE POP DUP2 ADD SWAP1 PUSH2 0x2AF SWAP2 SWAP1 PUSH2 0x89F JUMP JUMPDEST PUSH2 0x2FB JUMPI PUSH1 0x40 MLOAD PUSH3 0x461BCD PUSH1 0xE5 SHL DUP2 MSTORE PUSH1 0x20 PUSH1 0x4 DUP3 ADD MSTORE PUSH1 0x18 PUSH1 0x24 DUP3 ADD MSTORE PUSH24 0x52616D206973206E6F742073656C65637465642079657421 PUSH1 0x40 SHL PUSH1 0x44 DUP3 ADD MSTORE PUSH1 0x64 ADD JUMPDEST PUSH1 0x40 MLOAD DUP1 SWAP2 SUB SWAP1 REVERT JUMPDEST PUSH1 0x7 SLOAD PUSH1 0x40 DUP1 MLOAD PUSH4 0x3D0272A3 PUSH1 0xE1 SHL DUP2 MSTORE SWAP1 MLOAD CALLER SWAP3 PUSH1 0x1 PUSH1 0x1 PUSH1 0xA0 SHL SUB AND SWAP2 PUSH4 0x7A04E546 SWAP2 PUSH1 0x4 DUP1 DUP4 ADD SWAP3 PUSH1 0x20 SWAP3 SWAP2 SWAP1 DUP3 SWAP1 SUB ADD DUP2 DUP7 GAS STATICCALL ISZERO DUP1 ISZERO PUSH2 0x344 JUMPI RETURNDATASIZE PUSH1 0x0 DUP1 RETURNDATACOPY RETURNDATASIZE PUSH1 0x0 REVERT JUMPDEST POP POP POP POP PUSH1 0x40 MLOAD RETURNDATASIZE PUSH1 0x1F NOT PUSH1 0x1F DUP3 ADD AND DUP3 ADD DUP1 PUSH1 0x40 MSTORE POP DUP2 ADD SWAP1 PUSH2 0x368 SWAP2 SWAP1 PUSH2 0x8C1 JUMP JUMPDEST PUSH1 0x1 PUSH1 0x1 PUSH1 0xA0 SHL SUB AND EQ PUSH2 0x3BE JUMPI PUSH1 0x40 MLOAD PUSH3 0x461BCD PUSH1 0xE5 SHL DUP2 MSTORE PUSH1 0x20 PUSH1 0x4 DUP3 ADD DUP2 SWAP1 MSTORE PUSH1 0x24 DUP3 ADD MSTORE PUSH32 0x4F6E6C792052616D2063616E2063616C6C20746869732066756E6374696F6E21 PUSH1 0x44 DUP3 ADD MSTORE PUSH1 0x64 ADD PUSH2 0x2F2 JUMP JUMPDEST PUSH1 0x4 SLOAD PUSH1 0x1 PUSH1 0xA0 SHL SWAP1 DIV PUSH1 0xFF AND PUSH2 0x417 JUMPI PUSH1 0x40 MLOAD PUSH3 0x461BCD PUSH1 0xE5 SHL DUP2 MSTORE PUSH1 0x20 PUSH1 0x4 DUP3 ADD MSTORE PUSH1 0x18 PUSH1 0x24 DUP3 ADD MSTORE PUSH32 0x526176616E206973206E6F74206B696C6C656420796574210000000000000000 PUSH1 0x44 DUP3 ADD MSTORE PUSH1 0x64 ADD PUSH2 0x2F2 JUMP JUMPDEST PUSH1 0x6 SLOAD PUSH1 0x0 SUB PUSH2 0x43A JUMPI PUSH1 0x40 MLOAD PUSH4 0xF5FE1927 PUSH1 0xE0 SHL DUP2 MSTORE PUSH1 0x4 ADD PUSH1 0x40 MLOAD DUP1 SWAP2 SUB SWAP1 REVERT JUMPDEST PUSH1 0x6 SLOAD PUSH1 0x40 MLOAD PUSH1 0x0 SWAP1 CALLER SWAP1 DUP4 SWAP1 DUP4 DUP2 DUP2 DUP2 DUP6 DUP8 GAS CALL SWAP3 POP POP POP RETURNDATASIZE DUP1 PUSH1 0x0 DUP2 EQ PUSH2 0x47F JUMPI PUSH1 0x40 MLOAD SWAP2 POP PUSH1 0x1F NOT PUSH1 0x3F RETURNDATASIZE ADD AND DUP3 ADD PUSH1 0x40 MSTORE RETURNDATASIZE DUP3 MSTORE RETURNDATASIZE PUSH1 0x0 PUSH1 0x20 DUP5 ADD RETURNDATACOPY PUSH2 0x484 JUMP JUMPDEST PUSH1 0x60 SWAP2 POP JUMPDEST POP POP SWAP1 POP DUP1 PUSH2 0x4D5 JUMPI PUSH1 0x40 MLOAD PUSH3 0x461BCD PUSH1 0xE5 SHL DUP2 MSTORE PUSH1 0x20 PUSH1 0x4 DUP3 ADD MSTORE PUSH1 0x1B PUSH1 0x24 DUP3 ADD MSTORE PUSH32 0x4661696C656420746F2073656E64206D6F6E657920746F2052616D0000000000 PUSH1 0x44 DUP3 ADD MSTORE PUSH1 0x64 ADD PUSH2 0x2F2 JUMP JUMPDEST POP POP PUSH1 0x0 PUSH1 0x6 SSTORE JUMP JUMPDEST PUSH1 0x0 DUP2 DUP2 SLOAD DUP2 LT PUSH2 0x4EE JUMPI PUSH1 0x0 DUP1 REVERT JUMPDEST PUSH1 0x0 SWAP2 DUP3 MSTORE PUSH1 0x20 SWAP1 SWAP2 KECCAK256 ADD SLOAD PUSH1 0x1 PUSH1 0x1 PUSH1 0xA0 SHL SUB AND SWAP1 POP DUP2 JUMP JUMPDEST PUSH1 0x1 SLOAD CALLVALUE EQ PUSH2 0x52A JUMPI PUSH1 0x40 MLOAD PUSH4 0x2B272C73 PUSH1 0xE2 SHL DUP2 MSTORE PUSH1 0x4 ADD PUSH1 0x40 MLOAD DUP1 SWAP2 SUB SWAP1 REVERT JUMPDEST CALLER PUSH1 0x0 SWAP1 DUP2 MSTORE PUSH1 0x5 PUSH1 0x20 MSTORE PUSH1 0x40 SWAP1 KECCAK256 SLOAD PUSH1 0xFF AND ISZERO ISZERO PUSH1 0x1 SUB PUSH2 0x55F JUMPI PUSH1 0x40 MLOAD PUSH4 0x39E67293 PUSH1 0xE0 SHL DUP2 MSTORE PUSH1 0x4 ADD PUSH1 0x40 MLOAD DUP1 SWAP2 SUB SWAP1 REVERT JUMPDEST CALLER PUSH1 0x0 DUP2 DUP2 MSTORE PUSH1 0x5 PUSH1 0x20 MSTORE PUSH1 0x40 DUP1 DUP3 KECCAK256 DUP1 SLOAD PUSH1 0xFF NOT AND PUSH1 0x1 SWAP1 DUP2 OR SWAP1 SWAP2 SSTORE DUP3 SLOAD SWAP1 DUP2 ADD DUP4 SSTORE SWAP2 DUP1 MSTORE PUSH32 0x290DECD9548B62A8D60345A988386FC84BA6BC95484008F6362F93160EF3E563 SWAP1 SWAP2 ADD DUP1 SLOAD PUSH1 0x1 PUSH1 0x1 PUSH1 0xA0 SHL SUB NOT AND DUP4 OR SWAP1 SSTORE PUSH1 0x4 DUP1 SLOAD SWAP2 MLOAD PUSH4 0x21A60343 PUSH1 0xE2 SHL DUP2 MSTORE SWAP1 DUP2 ADD SWAP3 SWAP1 SWAP3 MSTORE PUSH1 0x1 PUSH1 0x1 PUSH1 0xA0 SHL SUB AND SWAP1 PUSH4 0x86980D0C SWAP1 PUSH1 0x24 ADD PUSH1 0x0 PUSH1 0x40 MLOAD DUP1 DUP4 SUB DUP2 PUSH1 0x0 DUP8 DUP1 EXTCODESIZE ISZERO DUP1 ISZERO PUSH2 0x5FF JUMPI PUSH1 0x0 DUP1 REVERT JUMPDEST POP GAS CALL ISZERO DUP1 ISZERO PUSH2 0x613 JUMPI RETURNDATASIZE PUSH1 0x0 DUP1 RETURNDATACOPY RETURNDATASIZE PUSH1 0x0 REVERT JUMPDEST POP POP PUSH1 0x40 MLOAD CALLER DUP2 MSTORE PUSH32 0x8D881844768992BF595912C9050D3F93AEB487E6A69A62A7D7549E2839B557A8 SWAP3 POP PUSH1 0x20 ADD SWAP1 POP PUSH1 0x40 MLOAD DUP1 SWAP2 SUB SWAP1 LOG1 JUMP JUMPDEST PUSH1 0x7 PUSH1 0x0 SWAP1 SLOAD SWAP1 PUSH2 0x100 EXP SWAP1 DIV PUSH1 0x1 PUSH1 0x1 PUSH1 0xA0 SHL SUB AND PUSH1 0x1 PUSH1 0x1 PUSH1 0xA0 SHL SUB AND PUSH4 0xFF5B7165 PUSH1 0x40 MLOAD DUP2 PUSH4 0xFFFFFFFF AND PUSH1 0xE0 SHL DUP2 MSTORE PUSH1 0x4 ADD PUSH1 0x20 PUSH1 0x40 MLOAD DUP1 DUP4 SUB DUP2 DUP7 GAS STATICCALL ISZERO DUP1 ISZERO PUSH2 0x6A0 JUMPI RETURNDATASIZE PUSH1 0x0 DUP1 RETURNDATACOPY RETURNDATASIZE PUSH1 0x0 REVERT JUMPDEST POP POP POP POP PUSH1 0x40 MLOAD RETURNDATASIZE PUSH1 0x1F NOT PUSH1 0x1F DUP3 ADD AND DUP3 ADD DUP1 PUSH1 0x40 MSTORE POP DUP2 ADD SWAP1 PUSH2 0x6C4 SWAP2 SWAP1 PUSH2 0x89F JUMP JUMPDEST PUSH2 0x70B JUMPI PUSH1 0x40 MLOAD PUSH3 0x461BCD PUSH1 0xE5 SHL DUP2 MSTORE PUSH1 0x20 PUSH1 0x4 DUP3 ADD MSTORE PUSH1 0x18 PUSH1 0x24 DUP3 ADD MSTORE PUSH24 0x52616D206973206E6F742073656C65637465642079657421 PUSH1 0x40 SHL PUSH1 0x44 DUP3 ADD MSTORE PUSH1 0x64 ADD PUSH2 0x2F2 JUMP JUMPDEST PUSH4 0x6709BB7D TIMESTAMP LT ISZERO PUSH2 0x730 JUMPI PUSH1 0x40 MLOAD PUSH4 0x2BB173D PUSH1 0xE3 SHL DUP2 MSTORE PUSH1 0x4 ADD PUSH1 0x40 MLOAD DUP1 SWAP2 SUB SWAP1 REVERT JUMPDEST PUSH4 0x670B0DC5 TIMESTAMP GT ISZERO PUSH2 0x755 JUMPI PUSH1 0x40 MLOAD PUSH4 0xCC0C26A5 PUSH1 0xE0 SHL DUP2 MSTORE PUSH1 0x4 ADD PUSH1 0x40 MLOAD DUP1 SWAP2 SUB SWAP1 REVERT JUMPDEST PUSH1 0x4 DUP1 SLOAD PUSH1 0xFF PUSH1 0xA0 SHL NOT AND PUSH1 0x1 PUSH1 0xA0 SHL OR SWAP1 SSTORE PUSH1 0x1 SLOAD PUSH1 0x0 DUP1 SLOAD SWAP1 SWAP2 PUSH2 0x77A SWAP2 PUSH2 0x8DE JUMP JUMPDEST SWAP1 POP PUSH1 0x64 PUSH2 0x789 DUP3 PUSH1 0x32 PUSH2 0x8DE JUMP JUMPDEST PUSH2 0x793 SWAP2 SWAP1 PUSH2 0x909 JUMP JUMPDEST PUSH1 0x6 DUP2 SWAP1 SSTORE PUSH1 0x2 SLOAD PUSH1 0x40 MLOAD PUSH1 0x0 SWAP3 PUSH1 0x1 PUSH1 0x1 PUSH1 0xA0 SHL SUB SWAP1 SWAP3 AND SWAP2 SWAP1 DUP4 DUP2 DUP2 DUP2 DUP6 DUP8 GAS CALL SWAP3 POP POP POP RETURNDATASIZE DUP1 PUSH1 0x0 DUP2 EQ PUSH2 0x7E6 JUMPI PUSH1 0x40 MLOAD SWAP2 POP PUSH1 0x1F NOT PUSH1 0x3F RETURNDATASIZE ADD AND DUP3 ADD PUSH1 0x40 MSTORE RETURNDATASIZE DUP3 MSTORE RETURNDATASIZE PUSH1 0x0 PUSH1 0x20 DUP5 ADD RETURNDATACOPY PUSH2 0x7EB JUMP JUMPDEST PUSH1 0x60 SWAP2 POP JUMPDEST POP POP SWAP1 POP DUP1 PUSH2 0x846 JUMPI PUSH1 0x40 MLOAD PUSH3 0x461BCD PUSH1 0xE5 SHL DUP2 MSTORE PUSH1 0x20 PUSH1 0x4 DUP3 ADD MSTORE PUSH1 0x21 PUSH1 0x24 DUP3 ADD MSTORE PUSH32 0x4661696C656420746F2073656E64206D6F6E657920746F206F7267616E697365 PUSH1 0x44 DUP3 ADD MSTORE PUSH1 0x39 PUSH1 0xF9 SHL PUSH1 0x64 DUP3 ADD MSTORE PUSH1 0x84 ADD PUSH2 0x2F2 JUMP JUMPDEST POP POP JUMP JUMPDEST PUSH1 0x1 PUSH1 0x1 PUSH1 0xA0 SHL SUB DUP2 AND DUP2 EQ PUSH2 0x85F JUMPI PUSH1 0x0 DUP1 REVERT JUMPDEST POP JUMP JUMPDEST PUSH1 0x0 PUSH1 0x20 DUP3 DUP5 SUB SLT ISZERO PUSH2 0x874 JUMPI PUSH1 0x0 DUP1 REVERT JUMPDEST DUP2 CALLDATALOAD PUSH2 0x87F DUP2 PUSH2 0x84A JUMP JUMPDEST SWAP4 SWAP3 POP POP POP JUMP JUMPDEST PUSH1 0x0 PUSH1 0x20 DUP3 DUP5 SUB SLT ISZERO PUSH2 0x898 JUMPI PUSH1 0x0 DUP1 REVERT JUMPDEST POP CALLDATALOAD SWAP2 SWAP1 POP JUMP JUMPDEST PUSH1 0x0 PUSH1 0x20 DUP3 DUP5 SUB SLT ISZERO PUSH2 0x8B1 JUMPI PUSH1 0x0 DUP1 REVERT JUMPDEST DUP2 MLOAD DUP1 ISZERO ISZERO DUP2 EQ PUSH2 0x87F JUMPI PUSH1 0x0 DUP1 REVERT JUMPDEST PUSH1 0x0 PUSH1 0x20 DUP3 DUP5 SUB SLT ISZERO PUSH2 0x8D3 JUMPI PUSH1 0x0 DUP1 REVERT JUMPDEST DUP2 MLOAD PUSH2 0x87F DUP2 PUSH2 0x84A JUMP JUMPDEST DUP1 DUP3 MUL DUP2 ISZERO DUP3 DUP3 DIV DUP5 EQ OR PUSH2 0x903 JUMPI PUSH4 0x4E487B71 PUSH1 0xE0 SHL PUSH1 0x0 MSTORE PUSH1 0x11 PUSH1 0x4 MSTORE PUSH1 0x24 PUSH1 0x0 REVERT JUMPDEST SWAP3 SWAP2 POP POP JUMP JUMPDEST PUSH1 0x0 DUP3 PUSH2 0x926 JUMPI PUSH4 0x4E487B71 PUSH1 0xE0 SHL PUSH1 0x0 MSTORE PUSH1 0x12 PUSH1 0x4 MSTORE PUSH1 0x24 PUSH1 0x0 REVERT JUMPDEST POP DIV SWAP1 JUMP INVALID LOG2 PUSH5 0x6970667358 0x22 SLT KECCAK256 0x21 SDIV 0xC6 MSIZE 0xB9 XOR JUMP 0xFB SWAP13 DELEGATECALL 0xC5 0xB8 0xD PUSH24 0x62B03B5C5C6700D3295AFB27D31F07406BA864736F6C6343 STOP ADDMOD EQ STOP CALLER ",
          "linkReferences": {}
        },
        "methodIdentifiers": {
          "IsRavanKilled()": "6b41b9f3",
          "SelectedRam()": "c640dc2e",
          "WantToBeLikeRam(uint256)": "7153b54a",
          "choosingRamContract()": "76886955",
          "enterPeopleWhoLikeRam()": "dea3d230",
          "entranceFee()": "649677e1",
          "killRavana()": "f4451639",
          "organiser()": "7e537486",
          "peopleLikeRam(address)": "02ed9ae4",
          "ramNFT()": "5e64aef8",
          "totalAmountGivenToRam()": "5bbc960e",
          "withdraw()": "3ccfd60b"
        }
      }
    }
  }
}