{
  "src/ChoosingRam.sol": {
    "ChoosingRam": {
      "abi": [
        {
          "type": "constructor",
          "inputs": [
            {
              "name": "_ramNFT",
              "type": "address",
              "internalType": "address"
            }
          ],
          "stateMutability": "nonpayable"
        },
        {
          "type": "function",
          "name": "increaseValuesOfParticipants",
          "inputs": [
            {
              "name": "tokenIdOfChallenger",
              "type": "uint256",
              "internalType": "uint256"
            },
            {
              "name": "tokenIdOfAnyPerticipent",
              "type": "uint256",
              "internalType": "uint256"
            }
          ],
          "outputs": [],
          "stateMutability": "nonpayable"
        },
        {
          "type": "function",
          "name": "isRamSelected",
          "inputs": [],
          "outputs": [
            {
              "name": "",
              "type": "bool",
              "internalType": "bool"
            }
          ],
          "stateMutability": "view"
        },
        {
          "type": "function",
          "name": "ramNFT",
          "inputs": [],
          "outputs": [
            {
              "name": "",
              "type": "address",
              "internalType": "contract RamNFT"
            }
          ],
          "stateMutability": "view"
        },
        {
          "type": "function",
          "name": "selectRamIfNotSelected",
          "inputs": [],
          "outputs": [],
          "stateMutability": "nonpayable"
        },
        {
          "type": "function",
          "name": "selectedRam",
          "inputs": [],
          "outputs": [
            {
              "name": "",
              "type": "address",
              "internalType": "address"
            }
          ],
          "stateMutability": "view"
        },
        {
          "type": "error",
          "name": "ChoosingRam__CallerIsNotChallenger",
          "inputs": []
        },
        {
          "type": "error",
          "name": "ChoosingRam__EventIsFinished",
          "inputs": []
        },
        {
          "type": "error",
          "name": "ChoosingRam__InvalidTokenIdOfChallenger",
          "inputs": []
        },
        {
          "type": "error",
          "name": "ChoosingRam__InvalidTokenIdOfPerticipent",
          "inputs": []
        },
        {
          "type": "error",
          "name": "ChoosingRam__TimeToBeLikeRamFinish",
          "inputs": []
        },
        {
          "type": "error",
          "name": "ChoosingRam__TimeToBeLikeRamIsNotFinish",
          "inputs": []
        }
      ],
      "userdoc": {},
      "devdoc": {},
      "evm": {
        "bytecode": {
          "object": "608060405234801561001057600080fd5b5060405161116a38038061116a83398101604081905261002f91610059565b600080546001600160a01b03909216610100026001600160a81b0319909216919091179055610089565b60006020828403121561006b57600080fd5b81516001600160a01b038116811461008257600080fd5b9392505050565b6110d2806100986000396000f3fe608060405234801561001057600080fd5b50600436106100575760003560e01c806316d471491461005c5780635e64aef8146100715780637a04e546146100a6578063e07438f7146100b9578063ff5b7165146100c1575b600080fd5b61006f61006a366004610f16565b6100de565b005b6000546100899061010090046001600160a01b031681565b6040516001600160a01b0390911681526020015b60405180910390f35b600154610089906001600160a01b031681565b61006f610c5c565b6000546100ce9060ff1681565b604051901515815260200161009d565b60005460ff16156101295760405162461bcd60e51b815260206004820152601060248201526f52616d2069732073656c65637465642160801b60448201526064015b60405180910390fd5b600060019054906101000a90046001600160a01b03166001600160a01b031663d082e3816040518163ffffffff1660e01b8152600401602060405180830381865afa15801561017c573d6000803e3d6000fd5b505050506040513d601f19601f820116820180604052508101906101a09190610f38565b8211156101c0576040516376720b0b60e01b815260040160405180910390fd5b600060019054906101000a90046001600160a01b03166001600160a01b031663d082e3816040518163ffffffff1660e01b8152600401602060405180830381865afa158015610213573d6000803e3d6000fd5b505050506040513d601f19601f820116820180604052508101906102379190610f38565b8111156102575760405163e4829dab60e01b815260040160405180910390fd5b60005460405163b038221160e01b815260048101849052339161010090046001600160a01b03169063b03822119060240160c060405180830381865afa1580156102a5573d6000803e3d6000fd5b505050506040513d601f19601f820116820180604052508101906102c99190610f7d565b516001600160a01b0316146102f157604051637c848d5f60e11b815260040160405180910390fd5b636709bc0042111561031657604051634e8aebe160e11b815260040160405180910390fd5b6000600242443360405160200161035293929190928352602083019190915260601b6bffffffffffffffffffffffff1916604082015260540190565b6040516020818303038152906040528051906020012060001c610375919061102a565b90508060000361082e5760005460405163b038221160e01b8152600481018590526101009091046001600160a01b03169063b03822119060240160c060405180830381865afa1580156103cc573d6000803e3d6000fd5b505050506040513d601f19601f820116820180604052508101906103f09190610f7d565b602001511515600003610473576000805460405163317d7ff560e01b81526101009091046001600160a01b03169163317d7ff59161043c9187916001919081908190819060040161104c565b600060405180830381600087803b15801561045657600080fd5b505af115801561046a573d6000803e3d6000fd5b50505050505050565b60005460405163b038221160e01b8152600481018590526101009091046001600160a01b03169063b03822119060240160c060405180830381865afa1580156104c0573d6000803e3d6000fd5b505050506040513d601f19601f820116820180604052508101906104e49190610f7d565b60400151151560000361052f576000805460405163317d7ff560e01b81526101009091046001600160a01b03169163317d7ff59161043c91879160019182918190819060040161104c565b60005460405163b038221160e01b8152600481018590526101009091046001600160a01b03169063b03822119060240160c060405180830381865afa15801561057c573d6000803e3d6000fd5b505050506040513d601f19601f820116820180604052508101906105a09190610f7d565b6060015115156000036105ec576000805460405163317d7ff560e01b81526101009091046001600160a01b03169163317d7ff59161043c9187916001918291829190819060040161104c565b60005460405163b038221160e01b8152600481018590526101009091046001600160a01b03169063b03822119060240160c060405180830381865afa158015610639573d6000803e3d6000fd5b505050506040513d601f19601f8201168201806040525081019061065d9190610f7d565b6080015115156000036106a8576000805460405163317d7ff560e01b81526101009091046001600160a01b03169163317d7ff59161043c91879160019182918291829160040161104c565b60005460405163b038221160e01b8152600481018590526101009091046001600160a01b03169063b03822119060240160c060405180830381865afa1580156106f5573d6000803e3d6000fd5b505050506040513d601f19601f820116820180604052508101906107199190610f7d565b60a0015115156000036108295760005460405163317d7ff560e01b81526101009091046001600160a01b03169063317d7ff590610765908690600190819081908190819060040161104c565b600060405180830381600087803b15801561077f57600080fd5b505af1158015610793573d6000803e3d6000fd5b505060005460405163b038221160e01b8152600481018790526101009091046001600160a01b0316925063b0382211915060240160c060405180830381865afa1580156107e4573d6000803e3d6000fd5b505050506040513d601f19601f820116820180604052508101906108089190610f7d565b51600180546001600160a01b0319166001600160a01b039092169190911790555b505050565b60005460405163b038221160e01b8152600481018490526101009091046001600160a01b03169063b03822119060240160c060405180830381865afa15801561087b573d6000803e3d6000fd5b505050506040513d601f19601f8201168201806040525081019061089f9190610f7d565b6020015115156000036108eb576000805460405163317d7ff560e01b81526101009091046001600160a01b03169163317d7ff59161043c9186916001919081908190819060040161104c565b60005460405163b038221160e01b8152600481018490526101009091046001600160a01b03169063b03822119060240160c060405180830381865afa158015610938573d6000803e3d6000fd5b505050506040513d601f19601f8201168201806040525081019061095c9190610f7d565b6040015115156000036109a7576000805460405163317d7ff560e01b81526101009091046001600160a01b03169163317d7ff59161043c91869160019182918190819060040161104c565b60005460405163b038221160e01b8152600481018490526101009091046001600160a01b03169063b03822119060240160c060405180830381865afa1580156109f4573d6000803e3d6000fd5b505050506040513d601f19601f82011682018060405250810190610a189190610f7d565b606001511515600003610a64576000805460405163317d7ff560e01b81526101009091046001600160a01b03169163317d7ff59161043c9186916001918291829190819060040161104c565b60005460405163b038221160e01b8152600481018490526101009091046001600160a01b03169063b03822119060240160c060405180830381865afa158015610ab1573d6000803e3d6000fd5b505050506040513d601f19601f82011682018060405250810190610ad59190610f7d565b608001511515600003610b20576000805460405163317d7ff560e01b81526101009091046001600160a01b03169163317d7ff59161043c91869160019182918291829160040161104c565b60005460405163b038221160e01b8152600481018490526101009091046001600160a01b03169063b03822119060240160c060405180830381865afa158015610b6d573d6000803e3d6000fd5b505050506040513d601f19601f82011682018060405250810190610b919190610f7d565b60a0015115156000036108295760005460405163317d7ff560e01b81526101009091046001600160a01b03169063317d7ff590610bdd908590600190819081908190819060040161104c565b600060405180830381600087803b158015610bf757600080fd5b505af1158015610c0b573d6000803e3d6000fd5b505060005460405163b038221160e01b8152600481018690526101009091046001600160a01b0316925063b0382211915060240160c060405180830381865afa1580156107e4573d6000803e3d6000fd5b60005460ff1615610ca25760405162461bcd60e51b815260206004820152601060248201526f52616d2069732073656c65637465642160801b6044820152606401610120565b60005460408051633f29ba4360e11b81529051339261010090046001600160a01b031691637e5374869160048083019260209291908290030181865afa158015610cf0573d6000803e3d6000fd5b505050506040513d601f19601f82011682018060405250810190610d14919061107a565b6001600160a01b031614610d795760405162461bcd60e51b815260206004820152602660248201527f4f6e6c79206f7267616e697365722063616e2063616c6c20746869732066756e6044820152656374696f6e2160d01b6064820152608401610120565b636709bc00421015610d9e57604051635ceaf03760e01b815260040160405180910390fd5b63670b0d80421115610dc3576040516345235db760e01b815260040160405180910390fd5b60008060019054906101000a90046001600160a01b03166001600160a01b031663d082e3816040518163ffffffff1660e01b8152600401602060405180830381865afa158015610e17573d6000803e3d6000fd5b505050506040513d601f19601f82011682018060405250810190610e3b9190610f38565b6040805142602082015244918101919091526060016040516020818303038152906040528051906020012060001c610e73919061102a565b60005460405163b038221160e01b81526004810183905291925061010090046001600160a01b03169063b03822119060240160c060405180830381865afa158015610ec2573d6000803e3d6000fd5b505050506040513d601f19601f82011682018060405250810190610ee69190610f7d565b51600180546001600160a01b0319166001600160a01b039092169190911781556000805460ff1916909117905550565b60008060408385031215610f2957600080fd5b50508035926020909101359150565b600060208284031215610f4a57600080fd5b5051919050565b80516001600160a01b0381168114610f6857600080fd5b919050565b80518015158114610f6857600080fd5b600060c08284031215610f8f57600080fd5b60405160c0810181811067ffffffffffffffff82111715610fc057634e487b7160e01b600052604160045260246000fd5b604052610fcc83610f51565b8152610fda60208401610f6d565b6020820152610feb60408401610f6d565b6040820152610ffc60608401610f6d565b606082015261100d60808401610f6d565b608082015261101e60a08401610f6d565b60a08201529392505050565b60008261104757634e487b7160e01b600052601260045260246000fd5b500690565b958652931515602086015291151560408501521515606084015215156080830152151560a082015260c00190565b60006020828403121561108c57600080fd5b61109582610f51565b939250505056fea2646970667358221220e1e0eff29ab5e78f22a9a9a3ea2c1a80e98825eb94a0cd7ba30592775e2cb2d464736f6c63430008140033",
          "opcodes": "PUSH1 0x80 PUSH1 0x40 MSTORE CALLVALUE DUP1 ISZERO PUSH2 0x10 JUMPI PUSH1 0x0 DUP1 REVERT JUMPDEST POP PUSH1 0x40 MLOAD PUSH2 0x116A CODESIZE SUB DUP1 PUSH2 0x116A DUP4 CODECOPY DUP2 ADD PUSH1 0x40 DUP2 SWAP1 MSTORE PUSH2 0x2F SWAP2 PUSH2 0x59 JUMP JUMPDEST PUSH1 0x0 DUP1 SLOAD PUSH1 0x1 PUSH1 0x1 PUSH1 0xA0 SHL SUB SWAP1 SWAP3 AND PUSH2 0x100 MUL PUSH1 0x1 PUSH1 0x1 PUSH1 0xA8 SHL SUB NOT SWAP1 SWAP3 AND SWAP2 SWAP1 SWAP2 OR SWAP1 SSTORE PUSH2 0x89 JUMP JUMPDEST PUSH1 0x0 PUSH1 0x20 DUP3 DUP5 SUB SLT ISZERO PUSH2 0x6B JUMPI PUSH1 0x0 DUP1 REVERT JUMPDEST DUP2 MLOAD PUSH1 0x1 PUSH1 0x1 PUSH1 0xA0 SHL SUB DUP2 AND DUP2 EQ PUSH2 0x82 JUMPI PUSH1 0x0 DUP1 REVERT JUMPDEST SWAP4 SWAP3 POP POP POP JUMP JUMPDEST PUSH2 0x10D2 DUP1 PUSH2 0x98 PUSH1 0x0 CODECOPY PUSH1 0x0 RETURN INVALID PUSH1 0x80 PUSH1 0x40 MSTORE CALLVALUE DUP1 ISZERO PUSH2 0x10 JUMPI PUSH1 0x0 DUP1 REVERT JUMPDEST POP PUSH1 0x4 CALLDATASIZE LT PUSH2 0x57 JUMPI PUSH1 0x0 CALLDATALOAD PUSH1 0xE0 SHR DUP1 PUSH4 0x16D47149 EQ PUSH2 0x5C JUMPI DUP1 PUSH4 0x5E64AEF8 EQ PUSH2 0x71 JUMPI DUP1 PUSH4 0x7A04E546 EQ PUSH2 0xA6 JUMPI DUP1 PUSH4 0xE07438F7 EQ PUSH2 0xB9 JUMPI DUP1 PUSH4 0xFF5B7165 EQ PUSH2 0xC1 JUMPI JUMPDEST PUSH1 0x0 DUP1 REVERT JUMPDEST PUSH2 0x6F PUSH2 0x6A CALLDATASIZE PUSH1 0x4 PUSH2 0xF16 JUMP JUMPDEST PUSH2 0xDE JUMP JUMPDEST STOP JUMPDEST PUSH1 0x0 SLOAD PUSH2 0x89 SWAP1 PUSH2 0x100 SWAP1 DIV PUSH1 0x1 PUSH1 0x1 PUSH1 0xA0 SHL SUB AND DUP2 JUMP JUMPDEST PUSH1 0x40 MLOAD PUSH1 0x1 PUSH1 0x1 PUSH1 0xA0 SHL SUB SWAP1 SWAP2 AND DUP2 MSTORE PUSH1 0x20 ADD JUMPDEST PUSH1 0x40 MLOAD DUP1 SWAP2 SUB SWAP1 RETURN JUMPDEST PUSH1 0x1 SLOAD PUSH2 0x89 SWAP1 PUSH1 0x1 PUSH1 0x1 PUSH1 0xA0 SHL SUB AND DUP2 JUMP JUMPDEST PUSH2 0x6F PUSH2 0xC5C JUMP JUMPDEST PUSH1 0x0 SLOAD PUSH2 0xCE SWAP1 PUSH1 0xFF AND DUP2 JUMP JUMPDEST PUSH1 0x40 MLOAD SWAP1 ISZERO ISZERO DUP2 MSTORE PUSH1 0x20 ADD PUSH2 0x9D JUMP JUMPDEST PUSH1 0x0 SLOAD PUSH1 0xFF AND ISZERO PUSH2 0x129 JUMPI PUSH1 0x40 MLOAD PUSH3 0x461BCD PUSH1 0xE5 SHL DUP2 MSTORE PUSH1 0x20 PUSH1 0x4 DUP3 ADD MSTORE PUSH1 0x10 PUSH1 0x24 DUP3 ADD MSTORE PUSH16 0x52616D2069732073656C656374656421 PUSH1 0x80 SHL PUSH1 0x44 DUP3 ADD MSTORE PUSH1 0x64 ADD JUMPDEST PUSH1 0x40 MLOAD DUP1 SWAP2 SUB SWAP1 REVERT JUMPDEST PUSH1 0x0 PUSH1 0x1 SWAP1 SLOAD SWAP1 PUSH2 0x100 EXP SWAP1 DIV PUSH1 0x1 PUSH1 0x1 PUSH1 0xA0 SHL SUB AND PUSH1 0x1 PUSH1 0x1 PUSH1 0xA0 SHL SUB AND PUSH4 0xD082E381 PUSH1 0x40 MLOAD DUP2 PUSH4 0xFFFFFFFF AND PUSH1 0xE0 SHL DUP2 MSTORE PUSH1 0x4 ADD PUSH1 0x20 PUSH1 0x40 MLOAD DUP1 DUP4 SUB DUP2 DUP7 GAS STATICCALL ISZERO DUP1 ISZERO PUSH2 0x17C JUMPI RETURNDATASIZE PUSH1 0x0 DUP1 RETURNDATACOPY RETURNDATASIZE PUSH1 0x0 REVERT JUMPDEST POP POP POP POP PUSH1 0x40 MLOAD RETURNDATASIZE PUSH1 0x1F NOT PUSH1 0x1F DUP3 ADD AND DUP3 ADD DUP1 PUSH1 0x40 MSTORE POP DUP2 ADD SWAP1 PUSH2 0x1A0 SWAP2 SWAP1 PUSH2 0xF38 JUMP JUMPDEST DUP3 GT ISZERO PUSH2 0x1C0 JUMPI PUSH1 0x40 MLOAD PUSH4 0x76720B0B PUSH1 0xE0 SHL DUP2 MSTORE PUSH1 0x4 ADD PUSH1 0x40 MLOAD DUP1 SWAP2 SUB SWAP1 REVERT JUMPDEST PUSH1 0x0 PUSH1 0x1 SWAP1 SLOAD SWAP1 PUSH2 0x100 EXP SWAP1 DIV PUSH1 0x1 PUSH1 0x1 PUSH1 0xA0 SHL SUB AND PUSH1 0x1 PUSH1 0x1 PUSH1 0xA0 SHL SUB AND PUSH4 0xD082E381 PUSH1 0x40 MLOAD DUP2 PUSH4 0xFFFFFFFF AND PUSH1 0xE0 SHL DUP2 MSTORE PUSH1 0x4 ADD PUSH1 0x20 PUSH1 0x40 MLOAD DUP1 DUP4 SUB DUP2 DUP7 GAS STATICCALL ISZERO DUP1 ISZERO PUSH2 0x213 JUMPI RETURNDATASIZE PUSH1 0x0 DUP1 RETURNDATACOPY RETURNDATASIZE PUSH1 0x0 REVERT JUMPDEST POP POP POP POP PUSH1 0x40 MLOAD RETURNDATASIZE PUSH1 0x1F NOT PUSH1 0x1F DUP3 ADD AND DUP3 ADD DUP1 PUSH1 0x40 MSTORE POP DUP2 ADD SWAP1 PUSH2 0x237 SWAP2 SWAP1 PUSH2 0xF38 JUMP JUMPDEST DUP2 GT ISZERO PUSH2 0x257 JUMPI PUSH1 0x40 MLOAD PUSH4 0xE4829DAB PUSH1 0xE0 SHL DUP2 MSTORE PUSH1 0x4 ADD PUSH1 0x40 MLOAD DUP1 SWAP2 SUB SWAP1 REVERT JUMPDEST PUSH1 0x0 SLOAD PUSH1 0x40 MLOAD PUSH4 0xB0382211 PUSH1 0xE0 SHL DUP2 MSTORE PUSH1 0x4 DUP2 ADD DUP5 SWAP1 MSTORE CALLER SWAP2 PUSH2 0x100 SWAP1 DIV PUSH1 0x1 PUSH1 0x1 PUSH1 0xA0 SHL SUB AND SWAP1 PUSH4 0xB0382211 SWAP1 PUSH1 0x24 ADD PUSH1 0xC0 PUSH1 0x40 MLOAD DUP1 DUP4 SUB DUP2 DUP7 GAS STATICCALL ISZERO DUP1 ISZERO PUSH2 0x2A5 JUMPI RETURNDATASIZE PUSH1 0x0 DUP1 RETURNDATACOPY RETURNDATASIZE PUSH1 0x0 REVERT JUMPDEST POP POP POP POP PUSH1 0x40 MLOAD RETURNDATASIZE PUSH1 0x1F NOT PUSH1 0x1F DUP3 ADD AND DUP3 ADD DUP1 PUSH1 0x40 MSTORE POP DUP2 ADD SWAP1 PUSH2 0x2C9 SWAP2 SWAP1 PUSH2 0xF7D JUMP JUMPDEST MLOAD PUSH1 0x1 PUSH1 0x1 PUSH1 0xA0 SHL SUB AND EQ PUSH2 0x2F1 JUMPI PUSH1 0x40 MLOAD PUSH4 0x7C848D5F PUSH1 0xE1 SHL DUP2 MSTORE PUSH1 0x4 ADD PUSH1 0x40 MLOAD DUP1 SWAP2 SUB SWAP1 REVERT JUMPDEST PUSH4 0x6709BC00 TIMESTAMP GT ISZERO PUSH2 0x316 JUMPI PUSH1 0x40 MLOAD PUSH4 0x4E8AEBE1 PUSH1 0xE1 SHL DUP2 MSTORE PUSH1 0x4 ADD PUSH1 0x40 MLOAD DUP1 SWAP2 SUB SWAP1 REVERT JUMPDEST PUSH1 0x0 PUSH1 0x2 TIMESTAMP PREVRANDAO CALLER PUSH1 0x40 MLOAD PUSH1 0x20 ADD PUSH2 0x352 SWAP4 SWAP3 SWAP2 SWAP1 SWAP3 DUP4 MSTORE PUSH1 0x20 DUP4 ADD SWAP2 SWAP1 SWAP2 MSTORE PUSH1 0x60 SHL PUSH12 0xFFFFFFFFFFFFFFFFFFFFFFFF NOT AND PUSH1 0x40 DUP3 ADD MSTORE PUSH1 0x54 ADD SWAP1 JUMP JUMPDEST PUSH1 0x40 MLOAD PUSH1 0x20 DUP2 DUP4 SUB SUB DUP2 MSTORE SWAP1 PUSH1 0x40 MSTORE DUP1 MLOAD SWAP1 PUSH1 0x20 ADD KECCAK256 PUSH1 0x0 SHR PUSH2 0x375 SWAP2 SWAP1 PUSH2 0x102A JUMP JUMPDEST SWAP1 POP DUP1 PUSH1 0x0 SUB PUSH2 0x82E JUMPI PUSH1 0x0 SLOAD PUSH1 0x40 MLOAD PUSH4 0xB0382211 PUSH1 0xE0 SHL DUP2 MSTORE PUSH1 0x4 DUP2 ADD DUP6 SWAP1 MSTORE PUSH2 0x100 SWAP1 SWAP2 DIV PUSH1 0x1 PUSH1 0x1 PUSH1 0xA0 SHL SUB AND SWAP1 PUSH4 0xB0382211 SWAP1 PUSH1 0x24 ADD PUSH1 0xC0 PUSH1 0x40 MLOAD DUP1 DUP4 SUB DUP2 DUP7 GAS STATICCALL ISZERO DUP1 ISZERO PUSH2 0x3CC JUMPI RETURNDATASIZE PUSH1 0x0 DUP1 RETURNDATACOPY RETURNDATASIZE PUSH1 0x0 REVERT JUMPDEST POP POP POP POP PUSH1 0x40 MLOAD RETURNDATASIZE PUSH1 0x1F NOT PUSH1 0x1F DUP3 ADD AND DUP3 ADD DUP1 PUSH1 0x40 MSTORE POP DUP2 ADD SWAP1 PUSH2 0x3F0 SWAP2 SWAP1 PUSH2 0xF7D JUMP JUMPDEST PUSH1 0x20 ADD MLOAD ISZERO ISZERO PUSH1 0x0 SUB PUSH2 0x473 JUMPI PUSH1 0x0 DUP1 SLOAD PUSH1 0x40 MLOAD PUSH4 0x317D7FF5 PUSH1 0xE0 SHL DUP2 MSTORE PUSH2 0x100 SWAP1 SWAP2 DIV PUSH1 0x1 PUSH1 0x1 PUSH1 0xA0 SHL SUB AND SWAP2 PUSH4 0x317D7FF5 SWAP2 PUSH2 0x43C SWAP2 DUP8 SWAP2 PUSH1 0x1 SWAP2 SWAP1 DUP2 SWAP1 DUP2 SWAP1 DUP2 SWAP1 PUSH1 0x4 ADD PUSH2 0x104C JUMP JUMPDEST PUSH1 0x0 PUSH1 0x40 MLOAD DUP1 DUP4 SUB DUP2 PUSH1 0x0 DUP8 DUP1 EXTCODESIZE ISZERO DUP1 ISZERO PUSH2 0x456 JUMPI PUSH1 0x0 DUP1 REVERT JUMPDEST POP GAS CALL ISZERO DUP1 ISZERO PUSH2 0x46A JUMPI RETURNDATASIZE PUSH1 0x0 DUP1 RETURNDATACOPY RETURNDATASIZE PUSH1 0x0 REVERT JUMPDEST POP POP POP POP POP POP POP JUMP JUMPDEST PUSH1 0x0 SLOAD PUSH1 0x40 MLOAD PUSH4 0xB0382211 PUSH1 0xE0 SHL DUP2 MSTORE PUSH1 0x4 DUP2 ADD DUP6 SWAP1 MSTORE PUSH2 0x100 SWAP1 SWAP2 DIV PUSH1 0x1 PUSH1 0x1 PUSH1 0xA0 SHL SUB AND SWAP1 PUSH4 0xB0382211 SWAP1 PUSH1 0x24 ADD PUSH1 0xC0 PUSH1 0x40 MLOAD DUP1 DUP4 SUB DUP2 DUP7 GAS STATICCALL ISZERO DUP1 ISZERO PUSH2 0x4C0 JUMPI RETURNDATASIZE PUSH1 0x0 DUP1 RETURNDATACOPY RETURNDATASIZE PUSH1 0x0 REVERT JUMPDEST POP POP POP POP PUSH1 0x40 MLOAD RETURNDATASIZE PUSH1 0x1F NOT PUSH1 0x1F DUP3 ADD AND DUP3 ADD DUP1 PUSH1 0x40 MSTORE POP DUP2 ADD SWAP1 PUSH2 0x4E4 SWAP2 SWAP1 PUSH2 0xF7D JUMP JUMPDEST PUSH1 0x40 ADD MLOAD ISZERO ISZERO PUSH1 0x0 SUB PUSH2 0x52F JUMPI PUSH1 0x0 DUP1 SLOAD PUSH1 0x40 MLOAD PUSH4 0x317D7FF5 PUSH1 0xE0 SHL DUP2 MSTORE PUSH2 0x100 SWAP1 SWAP2 DIV PUSH1 0x1 PUSH1 0x1 PUSH1 0xA0 SHL SUB AND SWAP2 PUSH4 0x317D7FF5 SWAP2 PUSH2 0x43C SWAP2 DUP8 SWAP2 PUSH1 0x1 SWAP2 DUP3 SWAP2 DUP2 SWAP1 DUP2 SWAP1 PUSH1 0x4 ADD PUSH2 0x104C JUMP JUMPDEST PUSH1 0x0 SLOAD PUSH1 0x40 MLOAD PUSH4 0xB0382211 PUSH1 0xE0 SHL DUP2 MSTORE PUSH1 0x4 DUP2 ADD DUP6 SWAP1 MSTORE PUSH2 0x100 SWAP1 SWAP2 DIV PUSH1 0x1 PUSH1 0x1 PUSH1 0xA0 SHL SUB AND SWAP1 PUSH4 0xB0382211 SWAP1 PUSH1 0x24 ADD PUSH1 0xC0 PUSH1 0x40 MLOAD DUP1 DUP4 SUB DUP2 DUP7 GAS STATICCALL ISZERO DUP1 ISZERO PUSH2 0x57C JUMPI RETURNDATASIZE PUSH1 0x0 DUP1 RETURNDATACOPY RETURNDATASIZE PUSH1 0x0 REVERT JUMPDEST POP POP POP POP PUSH1 0x40 MLOAD RETURNDATASIZE PUSH1 0x1F NOT PUSH1 0x1F DUP3 ADD AND DUP3 ADD DUP1 PUSH1 0x40 MSTORE POP DUP2 ADD SWAP1 PUSH2 0x5A0 SWAP2 SWAP1 PUSH2 0xF7D JUMP JUMPDEST PUSH1 0x60 ADD MLOAD ISZERO ISZERO PUSH1 0x0 SUB PUSH2 0x5EC JUMPI PUSH1 0x0 DUP1 SLOAD PUSH1 0x40 MLOAD PUSH4 0x317D7FF5 PUSH1 0xE0 SHL DUP2 MSTORE PUSH2 0x100 SWAP1 SWAP2 DIV PUSH1 0x1 PUSH1 0x1 PUSH1 0xA0 SHL SUB AND SWAP2 PUSH4 0x317D7FF5 SWAP2 PUSH2 0x43C SWAP2 DUP8 SWAP2 PUSH1 0x1 SWAP2 DUP3 SWAP2 DUP3 SWAP2 SWAP1 DUP2 SWAP1 PUSH1 0x4 ADD PUSH2 0x104C JUMP JUMPDEST PUSH1 0x0 SLOAD PUSH1 0x40 MLOAD PUSH4 0xB0382211 PUSH1 0xE0 SHL DUP2 MSTORE PUSH1 0x4 DUP2 ADD DUP6 SWAP1 MSTORE PUSH2 0x100 SWAP1 SWAP2 DIV PUSH1 0x1 PUSH1 0x1 PUSH1 0xA0 SHL SUB AND SWAP1 PUSH4 0xB0382211 SWAP1 PUSH1 0x24 ADD PUSH1 0xC0 PUSH1 0x40 MLOAD DUP1 DUP4 SUB DUP2 DUP7 GAS STATICCALL ISZERO DUP1 ISZERO PUSH2 0x639 JUMPI RETURNDATASIZE PUSH1 0x0 DUP1 RETURNDATACOPY RETURNDATASIZE PUSH1 0x0 REVERT JUMPDEST POP POP POP POP PUSH1 0x40 MLOAD RETURNDATASIZE PUSH1 0x1F NOT PUSH1 0x1F DUP3 ADD AND DUP3 ADD DUP1 PUSH1 0x40 MSTORE POP DUP2 ADD SWAP1 PUSH2 0x65D SWAP2 SWAP1 PUSH2 0xF7D JUMP JUMPDEST PUSH1 0x80 ADD MLOAD ISZERO ISZERO PUSH1 0x0 SUB PUSH2 0x6A8 JUMPI PUSH1 0x0 DUP1 SLOAD PUSH1 0x40 MLOAD PUSH4 0x317D7FF5 PUSH1 0xE0 SHL DUP2 MSTORE PUSH2 0x100 SWAP1 SWAP2 DIV PUSH1 0x1 PUSH1 0x1 PUSH1 0xA0 SHL SUB AND SWAP2 PUSH4 0x317D7FF5 SWAP2 PUSH2 0x43C SWAP2 DUP8 SWAP2 PUSH1 0x1 SWAP2 DUP3 SWAP2 DUP3 SWAP2 DUP3 SWAP2 PUSH1 0x4 ADD PUSH2 0x104C JUMP JUMPDEST PUSH1 0x0 SLOAD PUSH1 0x40 MLOAD PUSH4 0xB0382211 PUSH1 0xE0 SHL DUP2 MSTORE PUSH1 0x4 DUP2 ADD DUP6 SWAP1 MSTORE PUSH2 0x100 SWAP1 SWAP2 DIV PUSH1 0x1 PUSH1 0x1 PUSH1 0xA0 SHL SUB AND SWAP1 PUSH4 0xB0382211 SWAP1 PUSH1 0x24 ADD PUSH1 0xC0 PUSH1 0x40 MLOAD DUP1 DUP4 SUB DUP2 DUP7 GAS STATICCALL ISZERO DUP1 ISZERO PUSH2 0x6F5 JUMPI RETURNDATASIZE PUSH1 0x0 DUP1 RETURNDATACOPY RETURNDATASIZE PUSH1 0x0 REVERT JUMPDEST POP POP POP POP PUSH1 0x40 MLOAD RETURNDATASIZE PUSH1 0x1F NOT PUSH1 0x1F DUP3 ADD AND DUP3 ADD DUP1 PUSH1 0x40 MSTORE POP DUP2 ADD SWAP1 PUSH2 0x719 SWAP2 SWAP1 PUSH2 0xF7D JUMP JUMPDEST PUSH1 0xA0 ADD MLOAD ISZERO ISZERO PUSH1 0x0 SUB PUSH2 0x829 JUMPI PUSH1 0x0 SLOAD PUSH1 0x40 MLOAD PUSH4 0x317D7FF5 PUSH1 0xE0 SHL DUP2 MSTORE PUSH2 0x100 SWAP1 SWAP2 DIV PUSH1 0x1 PUSH1 0x1 PUSH1 0xA0 SHL SUB AND SWAP1 PUSH4 0x317D7FF5 SWAP1 PUSH2 0x765 SWAP1 DUP7 SWAP1 PUSH1 0x1 SWAP1 DUP2 SWAP1 DUP2 SWAP1 DUP2 SWAP1 DUP2 SWAP1 PUSH1 0x4 ADD PUSH2 0x104C JUMP JUMPDEST PUSH1 0x0 PUSH1 0x40 MLOAD DUP1 DUP4 SUB DUP2 PUSH1 0x0 DUP8 DUP1 EXTCODESIZE ISZERO DUP1 ISZERO PUSH2 0x77F JUMPI PUSH1 0x0 DUP1 REVERT JUMPDEST POP GAS CALL ISZERO DUP1 ISZERO PUSH2 0x793 JUMPI RETURNDATASIZE PUSH1 0x0 DUP1 RETURNDATACOPY RETURNDATASIZE PUSH1 0x0 REVERT JUMPDEST POP POP PUSH1 0x0 SLOAD PUSH1 0x40 MLOAD PUSH4 0xB0382211 PUSH1 0xE0 SHL DUP2 MSTORE PUSH1 0x4 DUP2 ADD DUP8 SWAP1 MSTORE PUSH2 0x100 SWAP1 SWAP2 DIV PUSH1 0x1 PUSH1 0x1 PUSH1 0xA0 SHL SUB AND SWAP3 POP PUSH4 0xB0382211 SWAP2 POP PUSH1 0x24 ADD PUSH1 0xC0 PUSH1 0x40 MLOAD DUP1 DUP4 SUB DUP2 DUP7 GAS STATICCALL ISZERO DUP1 ISZERO PUSH2 0x7E4 JUMPI RETURNDATASIZE PUSH1 0x0 DUP1 RETURNDATACOPY RETURNDATASIZE PUSH1 0x0 REVERT JUMPDEST POP POP POP POP PUSH1 0x40 MLOAD RETURNDATASIZE PUSH1 0x1F NOT PUSH1 0x1F DUP3 ADD AND DUP3 ADD DUP1 PUSH1 0x40 MSTORE POP DUP2 ADD SWAP1 PUSH2 0x808 SWAP2 SWAP1 PUSH2 0xF7D JUMP JUMPDEST MLOAD PUSH1 0x1 DUP1 SLOAD PUSH1 0x1 PUSH1 0x1 PUSH1 0xA0 SHL SUB NOT AND PUSH1 0x1 PUSH1 0x1 PUSH1 0xA0 SHL SUB SWAP1 SWAP3 AND SWAP2 SWAP1 SWAP2 OR SWAP1 SSTORE JUMPDEST POP POP POP JUMP JUMPDEST PUSH1 0x0 SLOAD PUSH1 0x40 MLOAD PUSH4 0xB0382211 PUSH1 0xE0 SHL DUP2 MSTORE PUSH1 0x4 DUP2 ADD DUP5 SWAP1 MSTORE PUSH2 0x100 SWAP1 SWAP2 DIV PUSH1 0x1 PUSH1 0x1 PUSH1 0xA0 SHL SUB AND SWAP1 PUSH4 0xB0382211 SWAP1 PUSH1 0x24 ADD PUSH1 0xC0 PUSH1 0x40 MLOAD DUP1 DUP4 SUB DUP2 DUP7 GAS STATICCALL ISZERO DUP1 ISZERO PUSH2 0x87B JUMPI RETURNDATASIZE PUSH1 0x0 DUP1 RETURNDATACOPY RETURNDATASIZE PUSH1 0x0 REVERT JUMPDEST POP POP POP POP PUSH1 0x40 MLOAD RETURNDATASIZE PUSH1 0x1F NOT PUSH1 0x1F DUP3 ADD AND DUP3 ADD DUP1 PUSH1 0x40 MSTORE POP DUP2 ADD SWAP1 PUSH2 0x89F SWAP2 SWAP1 PUSH2 0xF7D JUMP JUMPDEST PUSH1 0x20 ADD MLOAD ISZERO ISZERO PUSH1 0x0 SUB PUSH2 0x8EB JUMPI PUSH1 0x0 DUP1 SLOAD PUSH1 0x40 MLOAD PUSH4 0x317D7FF5 PUSH1 0xE0 SHL DUP2 MSTORE PUSH2 0x100 SWAP1 SWAP2 DIV PUSH1 0x1 PUSH1 0x1 PUSH1 0xA0 SHL SUB AND SWAP2 PUSH4 0x317D7FF5 SWAP2 PUSH2 0x43C SWAP2 DUP7 SWAP2 PUSH1 0x1 SWAP2 SWAP1 DUP2 SWAP1 DUP2 SWAP1 DUP2 SWAP1 PUSH1 0x4 ADD PUSH2 0x104C JUMP JUMPDEST PUSH1 0x0 SLOAD PUSH1 0x40 MLOAD PUSH4 0xB0382211 PUSH1 0xE0 SHL DUP2 MSTORE PUSH1 0x4 DUP2 ADD DUP5 SWAP1 MSTORE PUSH2 0x100 SWAP1 SWAP2 DIV PUSH1 0x1 PUSH1 0x1 PUSH1 0xA0 SHL SUB AND SWAP1 PUSH4 0xB0382211 SWAP1 PUSH1 0x24 ADD PUSH1 0xC0 PUSH1 0x40 MLOAD DUP1 DUP4 SUB DUP2 DUP7 GAS STATICCALL ISZERO DUP1 ISZERO PUSH2 0x938 JUMPI RETURNDATASIZE PUSH1 0x0 DUP1 RETURNDATACOPY RETURNDATASIZE PUSH1 0x0 REVERT JUMPDEST POP POP POP POP PUSH1 0x40 MLOAD RETURNDATASIZE PUSH1 0x1F NOT PUSH1 0x1F DUP3 ADD AND DUP3 ADD DUP1 PUSH1 0x40 MSTORE POP DUP2 ADD SWAP1 PUSH2 0x95C SWAP2 SWAP1 PUSH2 0xF7D JUMP JUMPDEST PUSH1 0x40 ADD MLOAD ISZERO ISZERO PUSH1 0x0 SUB PUSH2 0x9A7 JUMPI PUSH1 0x0 DUP1 SLOAD PUSH1 0x40 MLOAD PUSH4 0x317D7FF5 PUSH1 0xE0 SHL DUP2 MSTORE PUSH2 0x100 SWAP1 SWAP2 DIV PUSH1 0x1 PUSH1 0x1 PUSH1 0xA0 SHL SUB AND SWAP2 PUSH4 0x317D7FF5 SWAP2 PUSH2 0x43C SWAP2 DUP7 SWAP2 PUSH1 0x1 SWAP2 DUP3 SWAP2 DUP2 SWAP1 DUP2 SWAP1 PUSH1 0x4 ADD PUSH2 0x104C JUMP JUMPDEST PUSH1 0x0 SLOAD PUSH1 0x40 MLOAD PUSH4 0xB0382211 PUSH1 0xE0 SHL DUP2 MSTORE PUSH1 0x4 DUP2 ADD DUP5 SWAP1 MSTORE PUSH2 0x100 SWAP1 SWAP2 DIV PUSH1 0x1 PUSH1 0x1 PUSH1 0xA0 SHL SUB AND SWAP1 PUSH4 0xB0382211 SWAP1 PUSH1 0x24 ADD PUSH1 0xC0 PUSH1 0x40 MLOAD DUP1 DUP4 SUB DUP2 DUP7 GAS STATICCALL ISZERO DUP1 ISZERO PUSH2 0x9F4 JUMPI RETURNDATASIZE PUSH1 0x0 DUP1 RETURNDATACOPY RETURNDATASIZE PUSH1 0x0 REVERT JUMPDEST POP POP POP POP PUSH1 0x40 MLOAD RETURNDATASIZE PUSH1 0x1F NOT PUSH1 0x1F DUP3 ADD AND DUP3 ADD DUP1 PUSH1 0x40 MSTORE POP DUP2 ADD SWAP1 PUSH2 0xA18 SWAP2 SWAP1 PUSH2 0xF7D JUMP JUMPDEST PUSH1 0x60 ADD MLOAD ISZERO ISZERO PUSH1 0x0 SUB PUSH2 0xA64 JUMPI PUSH1 0x0 DUP1 SLOAD PUSH1 0x40 MLOAD PUSH4 0x317D7FF5 PUSH1 0xE0 SHL DUP2 MSTORE PUSH2 0x100 SWAP1 SWAP2 DIV PUSH1 0x1 PUSH1 0x1 PUSH1 0xA0 SHL SUB AND SWAP2 PUSH4 0x317D7FF5 SWAP2 PUSH2 0x43C SWAP2 DUP7 SWAP2 PUSH1 0x1 SWAP2 DUP3 SWAP2 DUP3 SWAP2 SWAP1 DUP2 SWAP1 PUSH1 0x4 ADD PUSH2 0x104C JUMP JUMPDEST PUSH1 0x0 SLOAD PUSH1 0x40 MLOAD PUSH4 0xB0382211 PUSH1 0xE0 SHL DUP2 MSTORE PUSH1 0x4 DUP2 ADD DUP5 SWAP1 MSTORE PUSH2 0x100 SWAP1 SWAP2 DIV PUSH1 0x1 PUSH1 0x1 PUSH1 0xA0 SHL SUB AND SWAP1 PUSH4 0xB0382211 SWAP1 PUSH1 0x24 ADD PUSH1 0xC0 PUSH1 0x40 MLOAD DUP1 DUP4 SUB DUP2 DUP7 GAS STATICCALL ISZERO DUP1 ISZERO PUSH2 0xAB1 JUMPI RETURNDATASIZE PUSH1 0x0 DUP1 RETURNDATACOPY RETURNDATASIZE PUSH1 0x0 REVERT JUMPDEST POP POP POP POP PUSH1 0x40 MLOAD RETURNDATASIZE PUSH1 0x1F NOT PUSH1 0x1F DUP3 ADD AND DUP3 ADD DUP1 PUSH1 0x40 MSTORE POP DUP2 ADD SWAP1 PUSH2 0xAD5 SWAP2 SWAP1 PUSH2 0xF7D JUMP JUMPDEST PUSH1 0x80 ADD MLOAD ISZERO ISZERO PUSH1 0x0 SUB PUSH2 0xB20 JUMPI PUSH1 0x0 DUP1 SLOAD PUSH1 0x40 MLOAD PUSH4 0x317D7FF5 PUSH1 0xE0 SHL DUP2 MSTORE PUSH2 0x100 SWAP1 SWAP2 DIV PUSH1 0x1 PUSH1 0x1 PUSH1 0xA0 SHL SUB AND SWAP2 PUSH4 0x317D7FF5 SWAP2 PUSH2 0x43C SWAP2 DUP7 SWAP2 PUSH1 0x1 SWAP2 DUP3 SWAP2 DUP3 SWAP2 DUP3 SWAP2 PUSH1 0x4 ADD PUSH2 0x104C JUMP JUMPDEST PUSH1 0x0 SLOAD PUSH1 0x40 MLOAD PUSH4 0xB0382211 PUSH1 0xE0 SHL DUP2 MSTORE PUSH1 0x4 DUP2 ADD DUP5 SWAP1 MSTORE PUSH2 0x100 SWAP1 SWAP2 DIV PUSH1 0x1 PUSH1 0x1 PUSH1 0xA0 SHL SUB AND SWAP1 PUSH4 0xB0382211 SWAP1 PUSH1 0x24 ADD PUSH1 0xC0 PUSH1 0x40 MLOAD DUP1 DUP4 SUB DUP2 DUP7 GAS STATICCALL ISZERO DUP1 ISZERO PUSH2 0xB6D JUMPI RETURNDATASIZE PUSH1 0x0 DUP1 RETURNDATACOPY RETURNDATASIZE PUSH1 0x0 REVERT JUMPDEST POP POP POP POP PUSH1 0x40 MLOAD RETURNDATASIZE PUSH1 0x1F NOT PUSH1 0x1F DUP3 ADD AND DUP3 ADD DUP1 PUSH1 0x40 MSTORE POP DUP2 ADD SWAP1 PUSH2 0xB91 SWAP2 SWAP1 PUSH2 0xF7D JUMP JUMPDEST PUSH1 0xA0 ADD MLOAD ISZERO ISZERO PUSH1 0x0 SUB PUSH2 0x829 JUMPI PUSH1 0x0 SLOAD PUSH1 0x40 MLOAD PUSH4 0x317D7FF5 PUSH1 0xE0 SHL DUP2 MSTORE PUSH2 0x100 SWAP1 SWAP2 DIV PUSH1 0x1 PUSH1 0x1 PUSH1 0xA0 SHL SUB AND SWAP1 PUSH4 0x317D7FF5 SWAP1 PUSH2 0xBDD SWAP1 DUP6 SWAP1 PUSH1 0x1 SWAP1 DUP2 SWAP1 DUP2 SWAP1 DUP2 SWAP1 DUP2 SWAP1 PUSH1 0x4 ADD PUSH2 0x104C JUMP JUMPDEST PUSH1 0x0 PUSH1 0x40 MLOAD DUP1 DUP4 SUB DUP2 PUSH1 0x0 DUP8 DUP1 EXTCODESIZE ISZERO DUP1 ISZERO PUSH2 0xBF7 JUMPI PUSH1 0x0 DUP1 REVERT JUMPDEST POP GAS CALL ISZERO DUP1 ISZERO PUSH2 0xC0B JUMPI RETURNDATASIZE PUSH1 0x0 DUP1 RETURNDATACOPY RETURNDATASIZE PUSH1 0x0 REVERT JUMPDEST POP POP PUSH1 0x0 SLOAD PUSH1 0x40 MLOAD PUSH4 0xB0382211 PUSH1 0xE0 SHL DUP2 MSTORE PUSH1 0x4 DUP2 ADD DUP7 SWAP1 MSTORE PUSH2 0x100 SWAP1 SWAP2 DIV PUSH1 0x1 PUSH1 0x1 PUSH1 0xA0 SHL SUB AND SWAP3 POP PUSH4 0xB0382211 SWAP2 POP PUSH1 0x24 ADD PUSH1 0xC0 PUSH1 0x40 MLOAD DUP1 DUP4 SUB DUP2 DUP7 GAS STATICCALL ISZERO DUP1 ISZERO PUSH2 0x7E4 JUMPI RETURNDATASIZE PUSH1 0x0 DUP1 RETURNDATACOPY RETURNDATASIZE PUSH1 0x0 REVERT JUMPDEST PUSH1 0x0 SLOAD PUSH1 0xFF AND ISZERO PUSH2 0xCA2 JUMPI PUSH1 0x40 MLOAD PUSH3 0x461BCD PUSH1 0xE5 SHL DUP2 MSTORE PUSH1 0x20 PUSH1 0x4 DUP3 ADD MSTORE PUSH1 0x10 PUSH1 0x24 DUP3 ADD MSTORE PUSH16 0x52616D2069732073656C656374656421 PUSH1 0x80 SHL PUSH1 0x44 DUP3 ADD MSTORE PUSH1 0x64 ADD PUSH2 0x120 JUMP JUMPDEST PUSH1 0x0 SLOAD PUSH1 0x40 DUP1 MLOAD PUSH4 0x3F29BA43 PUSH1 0xE1 SHL DUP2 MSTORE SWAP1 MLOAD CALLER SWAP3 PUSH2 0x100 SWAP1 DIV PUSH1 0x1 PUSH1 0x1 PUSH1 0xA0 SHL SUB AND SWAP2 PUSH4 0x7E537486 SWAP2 PUSH1 0x4 DUP1 DUP4 ADD SWAP3 PUSH1 0x20 SWAP3 SWAP2 SWAP1 DUP3 SWAP1 SUB ADD DUP2 DUP7 GAS STATICCALL ISZERO DUP1 ISZERO PUSH2 0xCF0 JUMPI RETURNDATASIZE PUSH1 0x0 DUP1 RETURNDATACOPY RETURNDATASIZE PUSH1 0x0 REVERT JUMPDEST POP POP POP POP PUSH1 0x40 MLOAD RETURNDATASIZE PUSH1 0x1F NOT PUSH1 0x1F DUP3 ADD AND DUP3 ADD DUP1 PUSH1 0x40 MSTORE POP DUP2 ADD SWAP1 PUSH2 0xD14 SWAP2 SWAP1 PUSH2 0x107A JUMP JUMPDEST PUSH1 0x1 PUSH1 0x1 PUSH1 0xA0 SHL SUB AND EQ PUSH2 0xD79 JUMPI PUSH1 0x40 MLOAD PUSH3 0x461BCD PUSH1 0xE5 SHL DUP2 MSTORE PUSH1 0x20 PUSH1 0x4 DUP3 ADD MSTORE PUSH1 0x26 PUSH1 0x24 DUP3 ADD MSTORE PUSH32 0x4F6E6C79206F7267616E697365722063616E2063616C6C20746869732066756E PUSH1 0x44 DUP3 ADD MSTORE PUSH6 0x6374696F6E21 PUSH1 0xD0 SHL PUSH1 0x64 DUP3 ADD MSTORE PUSH1 0x84 ADD PUSH2 0x120 JUMP JUMPDEST PUSH4 0x6709BC00 TIMESTAMP LT ISZERO PUSH2 0xD9E JUMPI PUSH1 0x40 MLOAD PUSH4 0x5CEAF037 PUSH1 0xE0 SHL DUP2 MSTORE PUSH1 0x4 ADD PUSH1 0x40 MLOAD DUP1 SWAP2 SUB SWAP1 REVERT JUMPDEST PUSH4 0x670B0D80 TIMESTAMP GT ISZERO PUSH2 0xDC3 JUMPI PUSH1 0x40 MLOAD PUSH4 0x45235DB7 PUSH1 0xE0 SHL DUP2 MSTORE PUSH1 0x4 ADD PUSH1 0x40 MLOAD DUP1 SWAP2 SUB SWAP1 REVERT JUMPDEST PUSH1 0x0 DUP1 PUSH1 0x1 SWAP1 SLOAD SWAP1 PUSH2 0x100 EXP SWAP1 DIV PUSH1 0x1 PUSH1 0x1 PUSH1 0xA0 SHL SUB AND PUSH1 0x1 PUSH1 0x1 PUSH1 0xA0 SHL SUB AND PUSH4 0xD082E381 PUSH1 0x40 MLOAD DUP2 PUSH4 0xFFFFFFFF AND PUSH1 0xE0 SHL DUP2 MSTORE PUSH1 0x4 ADD PUSH1 0x20 PUSH1 0x40 MLOAD DUP1 DUP4 SUB DUP2 DUP7 GAS STATICCALL ISZERO DUP1 ISZERO PUSH2 0xE17 JUMPI RETURNDATASIZE PUSH1 0x0 DUP1 RETURNDATACOPY RETURNDATASIZE PUSH1 0x0 REVERT JUMPDEST POP POP POP POP PUSH1 0x40 MLOAD RETURNDATASIZE PUSH1 0x1F NOT PUSH1 0x1F DUP3 ADD AND DUP3 ADD DUP1 PUSH1 0x40 MSTORE POP DUP2 ADD SWAP1 PUSH2 0xE3B SWAP2 SWAP1 PUSH2 0xF38 JUMP JUMPDEST PUSH1 0x40 DUP1 MLOAD TIMESTAMP PUSH1 0x20 DUP3 ADD MSTORE PREVRANDAO SWAP2 DUP2 ADD SWAP2 SWAP1 SWAP2 MSTORE PUSH1 0x60 ADD PUSH1 0x40 MLOAD PUSH1 0x20 DUP2 DUP4 SUB SUB DUP2 MSTORE SWAP1 PUSH1 0x40 MSTORE DUP1 MLOAD SWAP1 PUSH1 0x20 ADD KECCAK256 PUSH1 0x0 SHR PUSH2 0xE73 SWAP2 SWAP1 PUSH2 0x102A JUMP JUMPDEST PUSH1 0x0 SLOAD PUSH1 0x40 MLOAD PUSH4 0xB0382211 PUSH1 0xE0 SHL DUP2 MSTORE PUSH1 0x4 DUP2 ADD DUP4 SWAP1 MSTORE SWAP2 SWAP3 POP PUSH2 0x100 SWAP1 DIV PUSH1 0x1 PUSH1 0x1 PUSH1 0xA0 SHL SUB AND SWAP1 PUSH4 0xB0382211 SWAP1 PUSH1 0x24 ADD PUSH1 0xC0 PUSH1 0x40 MLOAD DUP1 DUP4 SUB DUP2 DUP7 GAS STATICCALL ISZERO DUP1 ISZERO PUSH2 0xEC2 JUMPI RETURNDATASIZE PUSH1 0x0 DUP1 RETURNDATACOPY RETURNDATASIZE PUSH1 0x0 REVERT JUMPDEST POP POP POP POP PUSH1 0x40 MLOAD RETURNDATASIZE PUSH1 0x1F NOT PUSH1 0x1F DUP3 ADD AND DUP3 ADD DUP1 PUSH1 0x40 MSTORE POP DUP2 ADD SWAP1 PUSH2 0xEE6 SWAP2 SWAP1 PUSH2 0xF7D JUMP JUMPDEST MLOAD PUSH1 0x1 DUP1 SLOAD PUSH1 0x1 PUSH1 0x1 PUSH1 0xA0 SHL SUB NOT AND PUSH1 0x1 PUSH1 0x1 PUSH1 0xA0 SHL SUB SWAP1 SWAP3 AND SWAP2 SWAP1 SWAP2 OR DUP2 SSTORE PUSH1 0x0 DUP1 SLOAD PUSH1 0xFF NOT AND SWAP1 SWAP2 OR SWAP1 SSTORE POP JUMP JUMPDEST PUSH1 0x0 DUP1 PUSH1 0x40 DUP4 DUP6 SUB SLT ISZERO PUSH2 0xF29 JUMPI PUSH1 0x0 DUP1 REVERT JUMPDEST POP POP DUP1 CALLDATALOAD SWAP3 PUSH1 0x20 SWAP1 SWAP2 ADD CALLDATALOAD SWAP2 POP JUMP JUMPDEST PUSH1 0x0 PUSH1 0x20 DUP3 DUP5 SUB SLT ISZERO PUSH2 0xF4A JUMPI PUSH1 0x0 DUP1 REVERT JUMPDEST POP MLOAD SWAP2 SWAP1 POP JUMP JUMPDEST DUP1 MLOAD PUSH1 0x1 PUSH1 0x1 PUSH1 0xA0 SHL SUB DUP2 AND DUP2 EQ PUSH2 0xF68 JUMPI PUSH1 0x0 DUP1 REVERT JUMPDEST SWAP2 SWAP1 POP JUMP JUMPDEST DUP1 MLOAD DUP1 ISZERO ISZERO DUP2 EQ PUSH2 0xF68 JUMPI PUSH1 0x0 DUP1 REVERT JUMPDEST PUSH1 0x0 PUSH1 0xC0 DUP3 DUP5 SUB SLT ISZERO PUSH2 0xF8F JUMPI PUSH1 0x0 DUP1 REVERT JUMPDEST PUSH1 0x40 MLOAD PUSH1 0xC0 DUP2 ADD DUP2 DUP2 LT PUSH8 0xFFFFFFFFFFFFFFFF DUP3 GT OR ISZERO PUSH2 0xFC0 JUMPI PUSH4 0x4E487B71 PUSH1 0xE0 SHL PUSH1 0x0 MSTORE PUSH1 0x41 PUSH1 0x4 MSTORE PUSH1 0x24 PUSH1 0x0 REVERT JUMPDEST PUSH1 0x40 MSTORE PUSH2 0xFCC DUP4 PUSH2 0xF51 JUMP JUMPDEST DUP2 MSTORE PUSH2 0xFDA PUSH1 0x20 DUP5 ADD PUSH2 0xF6D JUMP JUMPDEST PUSH1 0x20 DUP3 ADD MSTORE PUSH2 0xFEB PUSH1 0x40 DUP5 ADD PUSH2 0xF6D JUMP JUMPDEST PUSH1 0x40 DUP3 ADD MSTORE PUSH2 0xFFC PUSH1 0x60 DUP5 ADD PUSH2 0xF6D JUMP JUMPDEST PUSH1 0x60 DUP3 ADD MSTORE PUSH2 0x100D PUSH1 0x80 DUP5 ADD PUSH2 0xF6D JUMP JUMPDEST PUSH1 0x80 DUP3 ADD MSTORE PUSH2 0x101E PUSH1 0xA0 DUP5 ADD PUSH2 0xF6D JUMP JUMPDEST PUSH1 0xA0 DUP3 ADD MSTORE SWAP4 SWAP3 POP POP POP JUMP JUMPDEST PUSH1 0x0 DUP3 PUSH2 0x1047 JUMPI PUSH4 0x4E487B71 PUSH1 0xE0 SHL PUSH1 0x0 MSTORE PUSH1 0x12 PUSH1 0x4 MSTORE PUSH1 0x24 PUSH1 0x0 REVERT JUMPDEST POP MOD SWAP1 JUMP JUMPDEST SWAP6 DUP7 MSTORE SWAP4 ISZERO ISZERO PUSH1 0x20 DUP7 ADD MSTORE SWAP2 ISZERO ISZERO PUSH1 0x40 DUP6 ADD MSTORE ISZERO ISZERO PUSH1 0x60 DUP5 ADD MSTORE ISZERO ISZERO PUSH1 0x80 DUP4 ADD MSTORE ISZERO ISZERO PUSH1 0xA0 DUP3 ADD MSTORE PUSH1 0xC0 ADD SWAP1 JUMP JUMPDEST PUSH1 0x0 PUSH1 0x20 DUP3 DUP5 SUB SLT ISZERO PUSH2 0x108C JUMPI PUSH1 0x0 DUP1 REVERT JUMPDEST PUSH2 0x1095 DUP3 PUSH2 0xF51 JUMP JUMPDEST SWAP4 SWAP3 POP POP POP JUMP INVALID LOG2 PUSH5 0x6970667358 0x22 SLT KECCAK256 0xE1 0xE0 0xEF CALLCODE SWAP11 0xB5 0xE7 DUP16 0x22 0xA9 0xA9 LOG3 0xEA 0x2C BYTE DUP1 0xE9 DUP9 0x25 0xEB SWAP5 LOG0 0xCD PUSH28 0xA30592775E2CB2D464736F6C63430008140033000000000000000000 ",
          "linkReferences": {}
        },
        "methodIdentifiers": {
          "increaseValuesOfParticipants(uint256,uint256)": "16d47149",
          "isRamSelected()": "ff5b7165",
          "ramNFT()": "5e64aef8",
          "selectRamIfNotSelected()": "e07438f7",
          "selectedRam()": "7a04e546"
        }
      }
    }
  }
}