{"abi":[{"type":"constructor","inputs":[{"name":"_ramNFT","type":"address","internalType":"address"}],"stateMutability":"nonpayable"},{"type":"function","name":"increaseValuesOfParticipants","inputs":[{"name":"tokenIdOfChallenger","type":"uint256","internalType":"uint256"},{"name":"tokenIdOfAnyPerticipent","type":"uint256","internalType":"uint256"}],"outputs":[],"stateMutability":"nonpayable"},{"type":"function","name":"isRamSelected","inputs":[],"outputs":[{"name":"","type":"bool","internalType":"bool"}],"stateMutability":"view"},{"type":"function","name":"ramNFT","inputs":[],"outputs":[{"name":"","type":"address","internalType":"contract RamNFT"}],"stateMutability":"view"},{"type":"function","name":"selectRamIfNotSelected","inputs":[],"outputs":[],"stateMutability":"nonpayable"},{"type":"function","name":"selectedRam","inputs":[],"outputs":[{"name":"","type":"address","internalType":"address"}],"stateMutability":"view"},{"type":"error","name":"ChoosingRam__CallerIsNotChallenger","inputs":[]},{"type":"error","name":"ChoosingRam__EventIsFinished","inputs":[]},{"type":"error","name":"ChoosingRam__InvalidTokenIdOfChallenger","inputs":[]},{"type":"error","name":"ChoosingRam__InvalidTokenIdOfPerticipent","inputs":[]},{"type":"error","name":"ChoosingRam__TimeToBeLikeRamFinish","inputs":[]},{"type":"error","name":"ChoosingRam__TimeToBeLikeRamIsNotFinish","inputs":[]}],"bytecode":{"object":"0x608060405234801561001057600080fd5b5060405161116a38038061116a83398101604081905261002f91610059565b600080546001600160a01b03909216610100026001600160a81b0319909216919091179055610089565b60006020828403121561006b57600080fd5b81516001600160a01b038116811461008257600080fd5b9392505050565b6110d2806100986000396000f3fe608060405234801561001057600080fd5b50600436106100575760003560e01c806316d471491461005c5780635e64aef8146100715780637a04e546146100a6578063e07438f7146100b9578063ff5b7165146100c1575b600080fd5b61006f61006a366004610f16565b6100de565b005b6000546100899061010090046001600160a01b031681565b6040516001600160a01b0390911681526020015b60405180910390f35b600154610089906001600160a01b031681565b61006f610c5c565b6000546100ce9060ff1681565b604051901515815260200161009d565b60005460ff16156101295760405162461bcd60e51b815260206004820152601060248201526f52616d2069732073656c65637465642160801b60448201526064015b60405180910390fd5b600060019054906101000a90046001600160a01b03166001600160a01b031663d082e3816040518163ffffffff1660e01b8152600401602060405180830381865afa15801561017c573d6000803e3d6000fd5b505050506040513d601f19601f820116820180604052508101906101a09190610f38565b8211156101c0576040516376720b0b60e01b815260040160405180910390fd5b600060019054906101000a90046001600160a01b03166001600160a01b031663d082e3816040518163ffffffff1660e01b8152600401602060405180830381865afa158015610213573d6000803e3d6000fd5b505050506040513d601f19601f820116820180604052508101906102379190610f38565b8111156102575760405163e4829dab60e01b815260040160405180910390fd5b60005460405163b038221160e01b815260048101849052339161010090046001600160a01b03169063b03822119060240160c060405180830381865afa1580156102a5573d6000803e3d6000fd5b505050506040513d601f19601f820116820180604052508101906102c99190610f7d565b516001600160a01b0316146102f157604051637c848d5f60e11b815260040160405180910390fd5b636709bc0042111561031657604051634e8aebe160e11b815260040160405180910390fd5b6000600242443360405160200161035293929190928352602083019190915260601b6bffffffffffffffffffffffff1916604082015260540190565b6040516020818303038152906040528051906020012060001c610375919061102a565b90508060000361082e5760005460405163b038221160e01b8152600481018590526101009091046001600160a01b03169063b03822119060240160c060405180830381865afa1580156103cc573d6000803e3d6000fd5b505050506040513d601f19601f820116820180604052508101906103f09190610f7d565b602001511515600003610473576000805460405163317d7ff560e01b81526101009091046001600160a01b03169163317d7ff59161043c9187916001919081908190819060040161104c565b600060405180830381600087803b15801561045657600080fd5b505af115801561046a573d6000803e3d6000fd5b50505050505050565b60005460405163b038221160e01b8152600481018590526101009091046001600160a01b03169063b03822119060240160c060405180830381865afa1580156104c0573d6000803e3d6000fd5b505050506040513d601f19601f820116820180604052508101906104e49190610f7d565b60400151151560000361052f576000805460405163317d7ff560e01b81526101009091046001600160a01b03169163317d7ff59161043c91879160019182918190819060040161104c565b60005460405163b038221160e01b8152600481018590526101009091046001600160a01b03169063b03822119060240160c060405180830381865afa15801561057c573d6000803e3d6000fd5b505050506040513d601f19601f820116820180604052508101906105a09190610f7d565b6060015115156000036105ec576000805460405163317d7ff560e01b81526101009091046001600160a01b03169163317d7ff59161043c9187916001918291829190819060040161104c565b60005460405163b038221160e01b8152600481018590526101009091046001600160a01b03169063b03822119060240160c060405180830381865afa158015610639573d6000803e3d6000fd5b505050506040513d601f19601f8201168201806040525081019061065d9190610f7d565b6080015115156000036106a8576000805460405163317d7ff560e01b81526101009091046001600160a01b03169163317d7ff59161043c91879160019182918291829160040161104c565b60005460405163b038221160e01b8152600481018590526101009091046001600160a01b03169063b03822119060240160c060405180830381865afa1580156106f5573d6000803e3d6000fd5b505050506040513d601f19601f820116820180604052508101906107199190610f7d565b60a0015115156000036108295760005460405163317d7ff560e01b81526101009091046001600160a01b03169063317d7ff590610765908690600190819081908190819060040161104c565b600060405180830381600087803b15801561077f57600080fd5b505af1158015610793573d6000803e3d6000fd5b505060005460405163b038221160e01b8152600481018790526101009091046001600160a01b0316925063b0382211915060240160c060405180830381865afa1580156107e4573d6000803e3d6000fd5b505050506040513d601f19601f820116820180604052508101906108089190610f7d565b51600180546001600160a01b0319166001600160a01b039092169190911790555b505050565b60005460405163b038221160e01b8152600481018490526101009091046001600160a01b03169063b03822119060240160c060405180830381865afa15801561087b573d6000803e3d6000fd5b505050506040513d601f19601f8201168201806040525081019061089f9190610f7d565b6020015115156000036108eb576000805460405163317d7ff560e01b81526101009091046001600160a01b03169163317d7ff59161043c9186916001919081908190819060040161104c565b60005460405163b038221160e01b8152600481018490526101009091046001600160a01b03169063b03822119060240160c060405180830381865afa158015610938573d6000803e3d6000fd5b505050506040513d601f19601f8201168201806040525081019061095c9190610f7d565b6040015115156000036109a7576000805460405163317d7ff560e01b81526101009091046001600160a01b03169163317d7ff59161043c91869160019182918190819060040161104c565b60005460405163b038221160e01b8152600481018490526101009091046001600160a01b03169063b03822119060240160c060405180830381865afa1580156109f4573d6000803e3d6000fd5b505050506040513d601f19601f82011682018060405250810190610a189190610f7d565b606001511515600003610a64576000805460405163317d7ff560e01b81526101009091046001600160a01b03169163317d7ff59161043c9186916001918291829190819060040161104c565b60005460405163b038221160e01b8152600481018490526101009091046001600160a01b03169063b03822119060240160c060405180830381865afa158015610ab1573d6000803e3d6000fd5b505050506040513d601f19601f82011682018060405250810190610ad59190610f7d565b608001511515600003610b20576000805460405163317d7ff560e01b81526101009091046001600160a01b03169163317d7ff59161043c91869160019182918291829160040161104c565b60005460405163b038221160e01b8152600481018490526101009091046001600160a01b03169063b03822119060240160c060405180830381865afa158015610b6d573d6000803e3d6000fd5b505050506040513d601f19601f82011682018060405250810190610b919190610f7d565b60a0015115156000036108295760005460405163317d7ff560e01b81526101009091046001600160a01b03169063317d7ff590610bdd908590600190819081908190819060040161104c565b600060405180830381600087803b158015610bf757600080fd5b505af1158015610c0b573d6000803e3d6000fd5b505060005460405163b038221160e01b8152600481018690526101009091046001600160a01b0316925063b0382211915060240160c060405180830381865afa1580156107e4573d6000803e3d6000fd5b60005460ff1615610ca25760405162461bcd60e51b815260206004820152601060248201526f52616d2069732073656c65637465642160801b6044820152606401610120565b60005460408051633f29ba4360e11b81529051339261010090046001600160a01b031691637e5374869160048083019260209291908290030181865afa158015610cf0573d6000803e3d6000fd5b505050506040513d601f19601f82011682018060405250810190610d14919061107a565b6001600160a01b031614610d795760405162461bcd60e51b815260206004820152602660248201527f4f6e6c79206f7267616e697365722063616e2063616c6c20746869732066756e6044820152656374696f6e2160d01b6064820152608401610120565b636709bc00421015610d9e57604051635ceaf03760e01b815260040160405180910390fd5b63670b0d80421115610dc3576040516345235db760e01b815260040160405180910390fd5b60008060019054906101000a90046001600160a01b03166001600160a01b031663d082e3816040518163ffffffff1660e01b8152600401602060405180830381865afa158015610e17573d6000803e3d6000fd5b505050506040513d601f19601f82011682018060405250810190610e3b9190610f38565b6040805142602082015244918101919091526060016040516020818303038152906040528051906020012060001c610e73919061102a565b60005460405163b038221160e01b81526004810183905291925061010090046001600160a01b03169063b03822119060240160c060405180830381865afa158015610ec2573d6000803e3d6000fd5b505050506040513d601f19601f82011682018060405250810190610ee69190610f7d565b51600180546001600160a01b0319166001600160a01b039092169190911781556000805460ff1916909117905550565b60008060408385031215610f2957600080fd5b50508035926020909101359150565b600060208284031215610f4a57600080fd5b5051919050565b80516001600160a01b0381168114610f6857600080fd5b919050565b80518015158114610f6857600080fd5b600060c08284031215610f8f57600080fd5b60405160c0810181811067ffffffffffffffff82111715610fc057634e487b7160e01b600052604160045260246000fd5b604052610fcc83610f51565b8152610fda60208401610f6d565b6020820152610feb60408401610f6d565b6040820152610ffc60608401610f6d565b606082015261100d60808401610f6d565b608082015261101e60a08401610f6d565b60a08201529392505050565b60008261104757634e487b7160e01b600052601260045260246000fd5b500690565b958652931515602086015291151560408501521515606084015215156080830152151560a082015260c00190565b60006020828403121561108c57600080fd5b61109582610f51565b939250505056fea2646970667358221220191c893d6f237e73d5ce0c6639fa45cd2d971df709c4f883e77dcc20a105c00b64736f6c63430008140033","linkReferences":{}},"methodIdentifiers":{"increaseValuesOfParticipants(uint256,uint256)":"16d47149","isRamSelected()":"ff5b7165","ramNFT()":"5e64aef8","selectRamIfNotSelected()":"e07438f7","selectedRam()":"7a04e546"},"id":39}